:100000000C94AF010C94F6010C94F6010C94F601DB
:100010000C94F6010C94F6010C94F6010C94F60184
:100020000C94F6010C94F6010C94571F0C942B20A1
:100030000C94831A0C94F6010C94F6010C94F601BE
:100040000C94F6010C94F6010C94F6010C94F60154
:100050000C94F6010C94DA1A0C94F6010C94F60147
:100060000C94F6010C94F6010C94F6010C94F60134
:100070000C94F6010C94F6010C94F6010C94F60124
:100080000C94F6010C94F6010C94F6010C94F60114
:100090000C94F6010C94F6010C94F6010C94F60104
:1000A0000C94F6010C94F6010C94F601165C140005
:1000B0001A000800150017001C0018000C001200A0
:1000C00013002F0030002B00040016000700090069
:1000D0000A000B000D000E000F0033003400280052
:1000E000D85C1D001B00060019000500110010005F
:1000F000360037003800D95C5200E300E200E0002F
:100100004E0001512C004B000251E70050005100FD
:100110004F002A0035001E001F0020002100220091
:10012000230024002500260027002D002E00390082
:100130001E021F02200221022202230224022502A3
:1001400026022702310231000100010001000100F6
:100150000100010001000100010001000100010097
:100160004A0001000100010001000100010001003E
:10017000010001004B004D004E004C0001003A0010
:100180003B003C003D003E003F004000410042007B
:10019000430044004500010001000100010001008E
:1001A0000100010001000100010001000100010047
:1001B0000100010001000100010001000100010037
:1001C0000100010001000100010001000100010027
:1001D0000100010001000100010001000100010017
:1001E000010001001C034C00650074002000490060
:1001F0007400200053006C00690064006500210059
:100200000000120344007200480069006700730098
:100210006200790000000403090409023B000201A6
:1002200000A0FA09040000010301010009211101E5
:1002300000012240000705810308000A09040100AB
:10024000010300000009211101000122B600070589
:10025000820320000A1201000200000008070001CA
:100260000005000102000105010902A10185020942
:1002700001A1000509190129081500250195087536
:100280000181020501093009311581257F9502752B
:1002900008810609381581257F95017508810605B5
:1002A0000C0A38021581257F950175088106C0C0AA
:1002B00005010980A101850319012AB7001501264E
:1002C000B700950175108100C0050C0901A10185D9
:1002D0000419012AA002150126A0029501751081BA
:1002E00000C005010906A1018506050719E029E7F7
:1002F000150025019508750181020507190029EFF0
:100300001500250195F075018102050819012905DF
:10031000950575019102950175039101C0050109CB
:1003200006A101050719E029E715002501950875C3
:100330000181029501750881010507190029FF1542
:100340000026FF009506750881000508190129059A
:10035000950575019102950175039101C000112465
:100360001FBECFEFDAE0DEBFCDBF04B603FE27C06D
:100370008091AE029091AF02A091B002B091B10213
:100380008730904BA740B04BD1F41092AE02109240
:10039000AF021092B0021092B10214BE84B7877FF0
:1003A00084BF0FB6F894A89580916000886180930F
:1003B0006000109260000FBEE0E0F8E3099511E0E4
:1003C000A0E0B1E0EEE0F8E402C005900D92A43A9E
:1003D000B107D9F722E0A4EAB1E001C01D92AE3A1C
:1003E000B207E1F70E94F3130C94DD230C94000094
:1003F000807C809300010895873901F178F4863379
:10040000F9F030F48433F1F08533F1F08FE10895A1
:100410008439E1F08639D1F781E20895843FC1F053
:1004200030F4803FB9F0813F89F781E00895863F3D
:1004300099F0A0F0873F51F787E0089582E2089590
:1004400085E2089583E2089584E2089580E20895A4
:1004500084E0089580E0089586E0089585E0089599
:1004600096E890937A00982F9072906890937B0012
:100470008F7190910001892B80937C0080917A008C
:10048000806480937A0080917A0086FDFCCF809111
:1004900078002091790090917A009F7790937A006C
:1004A000922F08950E94FC010C943002CF93DF93A9
:1004B00080E40E94F801D0E0C0E0809101019091B9
:1004C0000201C817D9071CF0DF91CF9108958AEA7D
:1004D0000E94A1052196F1CF8F929F92AF92BF9279
:1004E000CF92DF92EF92FF920F931F93CF93DF9300
:1004F00080EF0E9452028C018091A6019091A70189
:10050000E801C81BD90B6091030170910401A09010
:100510000101B0900201601771070CF461C0072E51
:10052000000C880B990B0E9487226B017C01B5019E
:10053000B7FE02C06F5F7F4F75956795072E000C61
:10054000880B990B0E9487229B01AC01C701B60161
:100550000E94DD210E9413230E944F227B01CE01C5
:10056000D7FF04C0882799278C1B9D0B8E159F05EC
:1005700054F1BE01DD0F880B990B0E9487224B01BD
:100580005C01B701FF0C880B990B0E9487229B012D
:10059000AC01C501B4010E94DD210E9413230E9419
:1005A0004F22EB01EE24E394F12CCC24DD24CC1A71
:1005B000DD0ACE01D7FDC6018E159F05D4F4109338
:1005C000A7010093A601DF91CF911F910F91FF909A
:1005D000EF90DF90CF90BF90AF909F908F90089555
:1005E00080910501909106019C01261B370BB901F2
:1005F00096CF89EA1C161D060CF08AEA0E94A10516
:100600003FEFE31AF30AD5CFCF93C62F811110C065
:100610006091CC017091CD018091CE019091CF017C
:100620000E940204813071F0882329F08230E9F0C1
:1006300081E0CF9108958BE4C11101C08EE40E9446
:10064000A105F6CF81EE0E94A20480EE0E94A204D2
:100650008FE4C11101C080E50E94A10581EE0E94D6
:10066000340580EE0E943405E3CF89EAC111E7CF5B
:100670008AEAE5CF81E0089581E008950C943C0377
:1006800008950C9440031F93CF93DF9300D000D0C4
:100690000F92CDB7DEB749835A836B833091A8019F
:1006A00089819A8131111DC06623B9F02223A9F0F6
:1006B0000E94ED09182F682F89819A810E9499095B
:1006C00069817A81812F0F900F900F900F900F907A
:1006D000DF91CF911F910C9460100E94C509182FD3
:1006E000EFCF0E94ED0969817A81EDCFFC01262FC1
:1006F000408151816281738184810C94430381E044
:100700000895CF93DF93EC0160E00E947603BE0171
:10071000DF91CF910C9441030E9470120E94560405
:100720000C9494120C94961280E00C945704089543
:1007300008950E9442080E9498032FEF84E39CE0F2
:10074000215080409040E1F700C000000C94FE1A58
:100750000F931F93CF93DF938C0161E00E94760388
:10076000EC01B8010E943E038823A9F1B801CE0133
:100770000E94AA18882379F1B801CE010E948B1635
:10078000882349F1B801CE010E941418882319F179
:10079000F8018281882361F0CB35FDE5DF0721F187
:1007A00070F4C115ECE5DE07A1F0CF3DDC45C9F0E2
:1007B000C801DF91CF911F910F910C943A03CC3572
:1007C0008DE5D807A1F0CD35DD4591F70E949A0E51
:1007D000EFCF0E94990380E0DF91CF911F910F919D
:1007E00008950E944E0FF7CF0E94A30EE1CF0E9402
:1007F000A60EDECF0C9497030E9406190E945704A0
:100800000C94FA03CF92DF92EF92FF926C01EE24E8
:10081000FF2420E0C114D104E104F10419F0C70160
:10082000B60120E1C72ED82EE92EFF24C114D10431
:10083000E104F10419F0285FC701B6016B017C01E6
:1008400054E0F694E794D794C7945A95D1F7C1141D
:10085000D104E104F10419F02C5FC701B6016B016A
:100860007C0142E0F694E794D794C7944A95D1F777
:10087000C114D104E104F10419F02E5FC701B601DF
:100880009695879577956795672B682B692B09F067
:100890002F5F822FFF90EF90DF90CF900895089503
:1008A0000C944F0481E008950C9452040895CF9362
:1008B000C82F0E9450048C2FCF910C945404CF93D6
:1008C000DF93CDB7DEB72B970FB6F894DEBF0FBE20
:1008D000CDBF4F83588769877A878B8761110E94C4
:1008E000E80D1E821D8285E0FE013796DE0111961D
:1008F00001900D928A95E1F78C819D81892B89F475
:1009000049815A816B817C818D819E810E94090D74
:100910002B960FB6F894DEBF0FBECDBFDF91CF91FF
:10092000089589819A8189238F3F51F3CE010196E1
:100930000E947F038111E4CFEBCFFC018081918184
:100940000C942F0ACF93C82F882309F48BC08238C8
:10095000C1F40E94061981FD85C089E30E94A30DA0
:100960000E94180E2FEF81EE94E0215080409040BD
:10097000E1F700C0000089E30E94AA0DCF910C941A
:10098000180E8338A1F40E94061980FD6BC083E520
:100990000E94A30D0E94180E2FEF81EE94E02150CB
:1009A00080409040E1F700C0000083E5E5CF843847
:1009B000A1F40E94061982FD55C087E40E94A30D90
:1009C0000E94180E2FEF81EE94E02150804090405D
:1009D000E1F700C0000087E4CFCF8CEF8C0F813AA5
:1009E00090F46C2F8091090190910A010E947A196C
:1009F000882329F08C2F0E94AA0D0E94180E8C2F9C
:100A00000E94A30DBBCF80E28C0F883048F4C770E2
:100A100081E001C0880FCA95EAF70E94CB0DAECFE6
:100A2000EBE5EC0FE33040F4F0E0E25BFE4F808159
:100A300090E0CF910C943A19E8E5EC0FE73150F4CF
:100A4000F0E0EE0FFF1FE05EFE4F80819181CF91BD
:100A50000C945019CD3E30F08C2F0E948314CF910E
:100A60000C945615CF910895882309F452C082380A
:100A700071F40E94061981FF4CC089E30E94A30D06
:100A80000E94180E89E30E94AA0D0C94180E833858
:100A900059F40E94061980FF3CC083E50E94A30D13
:100AA0000E94180E83E5EFCF843859F40E9406198E
:100AB00082FF2FC087E40E94A30D0E94180E87E4D6
:100AC000E2CF9CEF980F913AF0F290E2980F9830B5
:100AD00050F4877091E001C0990F8A95EAF7892F49
:100AE0000E94D10DD2CF9BE5980F933020F490E077
:100AF00080E00C943A1998E5980F973120F490E033
:100B000080E00C9450198D3E20F00E94DD140C946E
:100B1000561508951F93CF93DF93182FEB010E9472
:100B2000A204209731F4812FDF91CF911F910C9473
:100B300034058FE99FE00197F1F700C0000021978D
:100B4000F0CF70E060E0893311F460E570E00C9460
:100B50008A05882321F00E94CB0D0C94180E08956D
:100B6000882321F00E94D10D0C94180E0895BF9295
:100B7000CF92DF92EF92FF920F931F93CF93DF9369
:100B80006C01D62FC72FFC011281F580F2949FE0F3
:100B9000F9220E94C10DE82E8823B9F0E12E11231D
:100BA000A1F08C2F807F803421F080E28D0F88307F
:100BB000B0F080918C0282FD12C082E00E94690E2A
:100BC0000E94C10D91E0E82EE926BC2EB2948FE080
:100BD000B822EB2DF0E0E152FC4D0C947423E12C93
:100BE000F4CF0C2F0F70C07F11F00295007F1123FE
:100BF00099F0002359F080E28D0F883010F0D11168
:100C000007C0802F0E94CB0D0E94180E8D2F41C06F
:100C1000802F0E94DB0DF8CF8D2F0E94340500231A
:100C200009F43FC080E28D0F883010F0D11104C06C
:100C3000802F0E94D10D03C0802F0E94E10D0E94E1
:100C4000180E2FC00C2F0F70C07FC03211F002950C
:100C5000007FDD2381F0D13009F469C0112309F44C
:100C600073C0FF2009F469C0F601858180FFCECFF3
:100C70008F70858362C080918C0282FF38C01123FF
:100C800059F0002329F0802F0E94CB0D0E94180EEE
:100C900080E00E94A20405C080E00E94340501119A
:100CA000C7CFEB2DE850FF0B349720F40E940619B4
:100CB0000E945704EE2009F482C10E94BD0D80FD00
:100CC0007EC1F60112820E94B70D0E94FD08C60186
:100CD0000E9400080E94B70DDF91CF911F910F91E4
:100CE000FF90EF90DF90CF90BF900C941E091123DE
:100CF00089F0F11006C00E94FB0D802B0E94A9050F
:100D0000D0CFF1E0FF12F7CF0E94FB0D802B0E94A5
:100D1000010EC7CFF11006C00E940E0E802F0E9458
:100D2000B005BFCF21E0F21609F4BBCFF5CF1123F8
:100D300031F035E03F1508F4B4CF802FDFCF84E0E9
:100D40008F1508F4AECFEACFFF2041F3D93349F431
:100D5000FFEF27EE33E0F15020403040E1F700C0D4
:100D600000008D2F0E9434059CCF8C2F8695869590
:100D7000837069F0813009F094CF8D2F9C2F937090
:100D8000111102C090E080E00E9450198ACF8D2F8F
:100D90009C2F9370111102C090E080E00E943A19DC
:100DA00080CF8D2F112329F00E9483140E945615A5
:100DB00078CF0E94DD14FACF8C2F837009F041C0E8
:100DC00011116FCF4D2F429546954770440F440F38
:100DD0000D2F0F7010E030E020E0042E04C0000F53
:100DE000111F221F331F0A94D2F760E070E0CB017D
:100DF000D4FF0FC06FE070E080E090E004C0660FA9
:100E0000771F881F991F4A95D2F760957095809536
:100E10009095C695C695C370602B712B822B932B32
:100E2000C23049F058F4C13019F00E94AF0839CFF0
:100E30000E949D0836CF0E94C10833CF0E949B08B4
:100E400030CF8695112311F08C2F8170882309F4FF
:100E500028CF4D2F429546954770440F440F0D2FD4
:100E60000F7010E030E020E0042E04C0000F111FCE
:100E7000221F331F0A94D2F760E070E0CB01D4FF49
:100E80000FC06FE070E080E090E004C0660F771F55
:100E9000881F991F4A95D2F7609570958095909517
:100EA000C695C695C370602B712B822B932BC230D5
:100EB00049F058F4C13019F00E947409F2CE0E9432
:100EC0006209EFCE0E948609ECCE0E94D708E9CED7
:100ED000CF70112329F08C2F0E94FD088D2F0ECF8B
:100EE0008D2F0E94B0058C2F0E941E09DACED23FB2
:100EF00051F160F4D03FB9F0D13F81F0112309F4F2
:100F000049C0F11083CE8C2F8F7121C0D33F11F1D6
:100F1000D43FA1F780918C0282FF26C08C2F8F7165
:100F2000112311F314C0112349F084E08F1508F444
:100F3000B8CE8C2F8F710E944109B3CE95E09F15DA
:100F400008F4AFCEF6CF8C2F8F711111CDCF0E9448
:100F5000FD08A7CE112329F08C2F8F710E94E8087D
:100F6000A0CE0E94E3089DCE112349F0CF718C2FB3
:100F70000E94FD0863E08C2F0E944E0E92CE81E00D
:100F80000E94690EE1E0EF1508F08BCE82E00E942E
:100F9000690E87CEF110DACE8C2F8F71A5CF4C2F32
:100FA0004F706D2FC6010E945C100E945D0A79CEC1
:100FB0004C2F4F706D2FC6010E945F1072CEDF91D3
:100FC000CF911F910F91FF90EF90DF90CF90BF9046
:100FD00008950F931F93CF93DF93EC01688179817C
:100FE0008A810E94390A8C010E9498090E949A08FD
:100FF000B801CE01DF91CF911F910F910C94B705ED
:10100000CF93DF93EC018B819C81892B29F0888120
:10101000998189238F3F59F4DF91CF910895CE01B3
:101020000E94E907CE01DF91CF910C948103CE019C
:101030000E94A8038111F3CF0E94C10D882361F3A0
:101040008A81882349F380918C0282FDE5CF82E07A
:10105000DF91CF910C94690E90E080E00E943A19E4
:1010600090E080E00E9450190E94E80D0E94F80D67
:101070000E94180E0E947D160C9456150E94B10D08
:101080000C942C080E94D80D0C943E08E92FE29590
:10109000EF70E250EE3070F4F0E0E151FC4D0C9452
:1010A0007423803F19F020F4883E20F481E00895F5
:1010B000843FE1F380E00895883EC0F3813FD1F79B
:1010C000F5CF93FB882780F90895FC0180819181F9
:1010D0000E942F0A0C944608CF93DF9300D000D0D3
:1010E0000F92CDB7DEB70F900F900F900F900F902B
:1010F000DF91CF910895CF93DF9300D000D000D03F
:10110000CDB7DEB726960FB6F894DEBF0FBECDBFC3
:10111000DF91CF91089508950C948B080E948C085C
:101120006093D0017093D1018093D2019093D30149
:101130000C942C0808950C948E080F931F93009123
:10114000D0011091D1012091D2013091D301602BB7
:10115000712B822B932B1F910F910C948E080F9360
:101160001F930091D0011091D1012091D2013091B3
:10117000D30160237123822393231F910F910C9439
:101180008E080F931F930091D0011091D1012091EF
:10119000D2013091D30160277127822793271F91B5
:1011A0000F910C948E080C948B080C94D3080E9419
:1011B000D5086093CC017093CD018093CE019093BC
:1011C000CF010C942C0860E070E0CB010C94D708A0
:1011D0000F931F9341E050E060E070E08A019B01B3
:1011E00004C0000F111F221F331F8A95D2F7C901B7
:1011F000B8011F910F910C94D7080F931F9341E0F2
:1012000050E060E070E004C0440F551F661F771F78
:101210008A95D2F78091CC019091CD01A091CE0119
:10122000B091CF018A019B01082B192B2A2B3B2B54
:10123000C901B8011F910F910C94D7080F931F9308
:1012400041E050E060E070E004C0440F551F661FAD
:10125000771F8A95D2F7CB01BA016095709580957A
:1012600090950091CC011091CD012091CE0130914B
:10127000CF0160237123822393231F910F910C943C
:10128000D7080F931F9341E050E060E070E004C086
:10129000440F551F661F771F8A95D2F78091CC01A6
:1012A0009091CD01A091CE01B091CF018A019B0117
:1012B000082719272A273B27C901B8011F910F9139
:1012C0000C94D7080F931F930091CC011091CD017E
:1012D0002091CE013091CF01602B712B822B932B6B
:1012E0001F910F910C94D7080F931F930091CC017D
:1012F0001091CD012091CE013091CF016023712357
:10130000822393231F910F910C94D7080F931F935F
:101310000091CC011091CD012091CE013091CF01EF
:1013200060277127822793271F910F910C94D7086C
:1013300008952DE0929F800D1124982F977041E021
:1013400001C0440F9A95EAF786958695869595E0B3
:10135000899FF0011124E755FE4F90E080E070E096
:101360005191DF0111979B01082E02C036952795F8
:101370000A94E2F7217021952527242325272C9311
:1013800001968530910561F708952DE0929F800DBB
:101390001124982F977086958695869525E0829FD3
:1013A000F0011124E755FE4F50E040E080E021912C
:1013B00030E0092E02C0369527950A94E2F7217095
:1013C0003327042E01C0220F0A94EAF7822B4F5FC5
:1013D0005F4F4530510559F70895BF92CF92DF9284
:1013E000EF92FF920F931F93CF93DF938C01C090E6
:1013F000CC01D090CD01E090CE01F090CF01809152
:10140000D0019091D101A091D201B091D301C82A0D
:10141000D92AEA2AFB2ACFE1D0E0BC2ED701C601A7
:101420000C2E04C0B695A795979587950A94D2F788
:1014300080FD0EC0219788F7B12C8B2DDF91CF91C5
:101440001F910F91FF90EF90DF90CF90BF90089584
:10145000B8018C2F0E948F11019761F3EECFCF93CB
:10146000DF93EC010E94ED09BE01DF91CF910C9456
:101470008F111F93CF93DF93EB019091A8019923D4
:1014800031F0CB01DF91CF911F910C942F0A88236B
:1014900079F0CB010E94ED09182F682FCE010E9430
:1014A0009909BE01812FDF91CF911F910C948F116B
:1014B000CB010E94C509182FF4CFEF92FF920F9332
:1014C0001F93CF93DF938C01892B81F0F12CEE24B5
:1014D000E394E8012196F8018491843770F4843014
:1014E00008F05FC08130B1F08230A1F1DF91CF917F
:1014F0001F910F91FF90EF900895853709F44CC02C
:1015000008F43DC09CE7980F903780F78F770E94D2
:10151000340549C00E5F1F4FFE01849190E2980F81
:10152000983060F48770FE2D01C0FF0F8A95EAF7AE
:101530008F2F0E94EB0D0E94180E02C00E94A20481
:101540008F2D815030F2EFE9FFE03197F1F700C0C5
:101550000000F7CF0E5F1F4FFE01849190E2980FBD
:10156000983050F48770FE2D01C0FF0F8A95EAF77E
:101570008F2F0E94F10DDFCF0E943405E1CF0E5F67
:101580001F4FFE01C491C150D8F28FE99FE001972F
:10159000F1F700C00000F7CF0E5F1F4FFE01F4907F
:1015A000CFCF0E94A2048E01CBCF1F93CF93DF93A6
:1015B000C091D40116E08091D5018C1304C0DF9155
:1015C000CF911F910895D0E01C9FF0011D9FF00D59
:1015D0001124EA52FE4F40815181628173818481DE
:1015E00095810E947B082196C770E5CF4091060245
:1015F00050910702609108027091090280910A02DD
:1016000090910B020C947B08FF920F931F93CF9342
:10161000DF9380910B02807FD1F4809108028823B0
:10162000B1F08091D4011091D501609106027091C2
:101630000702A0910902B0910A02062F0723C09168
:101640000701D091080196E0F92E181306C0DF912A
:10165000CF911F910F91FF90089590E0109711F096
:101660000F3F19F401968770F0CFF89E9001F99E14
:10167000300D1124F901EA52FE4F41814713F2CF98
:1016800040814613EFCF42814111ECCF4381548119
:101690004A1B5B0B4C175D0728F780910B028F707C
:1016A000806180930B02F901E552FE4F80818F70BB
:1016B0008061808386E092E00E940008DF91CF91F4
:1016C0001F910F91FF900C94D50AAF92BF92CF92C9
:1016D000DF92EF92FF920F931F93CF93DF93CDB7DB
:1016E000DEB761970FB6F894DEBF0FBECDBF8C0199
:1016F00085E0F801DE011D9601900D928A95E1F7D3
:10170000F801E28086E0C82E82E0D82E60910902BE
:1017100070910A026115710509F45FC1909106028A
:1017200020910702892F82238F3F09F456C14081FF
:101730005181A380B480F0900802F501E61BF70BFD
:10174000BF01E0910701F0910801FF2009F4F6C004
:1017500080910B02382F307F6E177F0708F0AFC0E3
:10176000311179C0FE2C251323C0941321C0E11040
:101770001FC08F70806180930B020E94F60AC60121
:101780000E94000880910B02F80185838F2D6196DD
:101790000FB6F894DEBF0FBECDBFDF91CF911F9182
:1017A0000F91FF90EF90DF90CF90BF90AF90089592
:1017B000AB2829F0842F85238F3F09F027C180E0D3
:1017C000F82FF170DF2E80FF3CC08091D401209172
:1017D000D50136E0821315C04D875E878D859E85C5
:1017E0000E942F0A292F22952F702230F0F02430EA
:1017F00018F59F70F1F0F8019581907FD1F4D12C0C
:101800001EC090E0389FF001399FF00D1124EA527C
:10181000FE4F6181651306C06081641303C062815D
:101820006E110FC001968770D5CF9F7011F088237D
:1018300031F3805E883018F3C8010E940008FD2C47
:10184000A5CFEE2009F4A2CF80910B028160809396
:101850000B02F12C9BCF251306C0941304C0F80192
:10186000EE2009F487C0C8010E946508882319F199
:10187000EE2009F180910B02803270F02091060277
:101880003091070238872F831986BB86AA868C87FA
:10189000CE0107960E94000886E0F801A6E0B2E0BB
:1018A00001900D928A95E1F70E94040B0E94F60ABE
:1018B000FF24F3946BCFC8010E940008F9CF3111C7
:1018C00013C07A2DB98AA88A6E2D89890E946C0866
:1018D00086E092E00E94000886E0F60111928A9567
:1018E000E9F70E94F60AB5CF25130FC094130DC077
:1018F000E1100BC0F8018583C8010E94000886E052
:10190000F60111928A95E9F741CFC8010E94650856
:10191000882389F2EE2079F280910B02803208F45C
:10192000BBCF20910602309107023A8329831B82A4
:10193000BD82AC828E83CE010196ACCF6E177F073D
:1019400008F03EC0FE2CEE2009F4B5CF25132AC0C6
:10195000941328C080910B0280FD1BC0982F907FAC
:10196000C1F0F8018583903F31F0982F907F905F10
:101970008F70892B8583C8010E94000886E0F801DA
:10198000A6E0B2E001900D928A95E1F70E94F60A76
:10199000FDCE86E0F801A6E0B2E001900D928A95B6
:1019A000E1F7F4CEC8010E946508811175CF8091DE
:1019B0000B02816080930B02C8010E940008E6CEF2
:1019C0007A2DB98AA88A6E2D89890E946C0886E0D2
:1019D000F60111928A95E9F7D9CFEE2009F46BCF81
:1019E000C8010E946508F82E882309F464CF86E0B8
:1019F000F801A6E0B2E001900D928A95E1F786E049
:101A000092E00E949D040E94040BC0CF81E08E25CD
:101A1000D7CE1F93CF93DF93CDB7DEB72C970FB6FA
:101A2000F894DEBF0FBECDBF4F83588769877A8792
:101A30008B879C87CE0107960E94650B882369F0EF
:101A40008A859B85892B39F04F815885842F852382
:101A50008F3F09F071C016E05FC086E0FE01379647
:101A6000DE01119601900D928A95E1F78A859B859A
:101A7000892B89F38F81988589238F3F61F320918A
:101A8000D50130E0C9010196877099274091D401B2
:101A90004817190671F40E9442081092D50110925D
:101AA000D40186E0E6E0F2E0DF011D928A95E9F7D5
:101AB000D2CF96E0929FD001939FB00D1124AA52ED
:101AC000BE4FFE01319601900D929A95E1F78093F9
:101AD000D5010E94D50ABFCF819FC00111248A522F
:101AE0009E4F0E94650B8823E9F0E091D4011E9F70
:101AF000F0011124EA52FE4F4081518162817381CD
:101B0000848195810E947B088091D40190E00196A8
:101B1000877099278093D4018091D4019091D50149
:101B20008913DACF2C960FB6F894DEBF0FBECDBF67
:101B3000DF91CF911F91089569857A858B859C856A
:101B40000E947B0888CF682F8091090190910A013B
:101B50000C94FA19682F8091090190910A010C9454
:101B6000051A8091090190910A010C94101A809134
:101B70000C02859585958595089580910C02877056
:101B8000089590910C02977081E009F480E0089527
:101B900080913002089590913002892B8093300219
:101BA0000895809590913002982390933002089583
:101BB00010923002089590912F02892B80932F026A
:101BC0000895809590912F02982390932F02089565
:101BD00010922F02089590912E02892B80932E024D
:101BE0000895809590912E02982390932E02089547
:101BF00010922E02089580910D02089508950C947C
:101C0000FE0D90918C0292FD08C090910D029817E4
:101C100021F080930D020C94FF0D089580910D0228
:101C2000882329F010920D0280E00C94FF0D089596
:101C3000E0910901F0910A01809130028083E091E6
:101C40000901F0910A01808190912F02892B8083F4
:101C5000E0910901F0910A01808190912E02892B77
:101C6000808390910D02992381F0E0910901F09118
:101C70000A018081892B80838091090190910A015A
:101C80000E94661981110E940E0E809109019091A7
:101C90000A010C94121908950C944B0E90918C0229
:101CA00092FD10C098E0899F90011124622B6093EF
:101CB0000C020E94FD0880910C0285958595859502
:101CC0000C944C0E0C94FD0810920C0280E00C94C5
:101CD0004C0E90910C028095892380930C02282F42
:101CE000277091F4282F082E000C330B921713063F
:101CF00059F090918C0292FD07C085958595859548
:101D00000E941E090C94640E089590918C0292FB1F
:101D1000222720F9281769F080FB92F990938C0212
:101D200080918B0290918C020E94CA0E82E00C94EA
:101D3000690E089580918C0282FB882780F991E0DA
:101D400089270C94850E81E00C94850E80E00C941C
:101D5000850E90E080E00E94A32321E0893E9E4F03
:101D600009F020E0822F089582E090E00C949B23FC
:101D700083E090E00C949B23CF9384E090E00E945A
:101D80009B23C82F82E290E00E949B23982F8C2FE8
:101D9000CF910895CF93C92F682F84E090E00E94DF
:101DA000A9236C2F82E290E0CF910C94A923AB0180
:101DB000BC018FE090E00C94BB23AB01BC0183E13C
:101DC00090E00C94BB2360E070E0CB010C94DD0E3E
:101DD00060E070E0CB010E94D70E0C94E30E69EE38
:101DE0007EEF90E080E00E94C72360E082E090E018
:101DF0000E94A92360E083E090E00E94A923109252
:101E0000D0011092D1011092D2011092D30160E062
:101E100084E090E00E94A92360E082E290E00E94CA
:101E2000A92360E085E090E00E94A92360E086E0BD
:101E300090E00E94A9236FEF87E090E00E94A92321
:101E400040E050E0BA0188E090E00E94BB2360E0EF
:101E50008DE090E00E94A92340E050E0BA0188E1C3
:101E600090E00E94BB2360E087E190E00E94A923FC
:101E700040E050E0BA018CE190E00E94BB2370E0AA
:101E800060E080E290E00E94C72340E050E0BA01A9
:101E900088E190E00E94BB230C94E80E0C94EF0EB6
:101EA000682F8EE090E00C94A9230E94BF1A6093E3
:101EB00042027093430280934402909345026093E0
:101EC0003E0270933F028093400290934102089536
:101ED0000E94BF1A609342027093430280934402AF
:101EE0009093450260933A0270933B0280933C02C8
:101EF00090933D02089585B7806885BF85B7806857
:101F000085BF0895089508950C94820F08950C9448
:101F1000860F0E947B0F8DE692E10E94FC180E94C2
:101F2000830F0C94840F81E008950C94930F08950F
:101F300008950E94970F0C94980F0E94AA1A0E946D
:101F40004D130E94B7170C94870F8F929F92AF92F8
:101F5000BF92CF92DF92EF92FF920F931F93CF9396
:101F6000DF93CDB7DEB72A970FB6F894DEBF0FBE6A
:101F7000CDBF0E94621381110E94550F52E3852E3E
:101F800052E0952E10E000E0A02E802F0E949812C3
:101F90006C01F401E190F1904F01E816F90609F4A3
:101FA00061C08091460281FD0E94A112C7018C256B
:101FB0009D25B12CEE24E394F12C9C012E213F2190
:101FC000232B09F449C00E94950F8823A9F0BE82F3
:101FD000AF82CE20DF2081E0CD2809F480E0888721
:101FE0000E94B31A8160782F9A8789874E815F811A
:101FF00068858A850E945F04000F111FF801EE5C5E
:10200000FD4F80819181E826F926F182E0820E94CD
:10201000CA1781110E94680F0E9471150E9406194B
:10202000909131028917A9F10E940619809331021B
:102030002A960FB6F894DEBF0FBECDBFDF91CF91C9
:102040001F910F91FF90EF90DF90CF90BF90AF90D6
:102050009F908F900C945704B394EE0CFF1CFDE0FE
:10206000BF12ABCF0F5F1F4F0430110509F08CCFAB
:102070008FEF89838A831B820E94B31A8160782F35
:102080009D838C8349815A816B818D810E945F047D
:10209000BECF2A960FB6F894DEBF0FBECDBFDF913C
:1020A000CF911F910F91FF90EF90DF90CF90BF9055
:1020B000AF909F908F90089590E080E008950895EC
:1020C000972F70E02DE0929F600D711D1124FB0190
:1020D00094E3899FE00DF11D1124EE0FFF1FE455DD
:1020E000FF4F859194910895FC01EE0FFF1FEC5175
:1020F000FE4F859194910895CF93DF930E949311A1
:10210000EC01811520E5920708F042C0811530E40A
:10211000930708F0BDC0883E910528F5803E9105E3
:1021200008F09DC0883A910588F4853A910508F039
:102130008FC08130910509F492C0009709F48FC0D7
:10214000049708F08CC0D0E0C0E089C08F3B9105B7
:1021500008F489C0805C9109C03CD105A0F30E94BD
:102160007410EC017CC08115904250F4C11581E0DF
:10217000D80708F074C0CD3ED10528F3D0656FC0F4
:10218000C11590E3D90708F079C0CE019F70E7CF61
:10219000811525E5920758F5811534E5930708F078
:1021A000A6C0811542E5940750F4C11581E5D80712
:1021B00008F471C0DC2FCC27C16FD06A50C0982FB3
:1021C000969596959E0123703327C115D34508F047
:1021D0007FC0C1E0D0E002C0CC0FDD1F2A95E2F73E
:1021E00020E2929FC0011124C82BD92B6FC0C115CA
:1021F00089E5D807A8F4C11598E5D90708F07CC08F
:10220000C11526E5D20708F09ECF8C2F0E942A1216
:10221000C82FD0E0DC2FCC27CC27DF71D0621FC0C5
:10222000C1153AE5D30708F46CC0CE01905681156C
:10223000904208F088CF8D2F8F710E942A1290E073
:10224000982F882788279F719C012C2BE901E6CFC6
:10225000C55AD0E0C158DE4FC881D0E0D064CE016D
:10226000DF91CF910895C85AD0E0CC0FDD1FCF5A2F
:10227000DE4F0990D881C02DD464F1CFCE019927CB
:10228000D3FF03C0EC01D86CEACFEC01D06CE7CFF0
:10229000DF70D06AE4CFCE01E4E096958795EA95A9
:1022A000E1F783702C2F26952695237090E2299FC5
:1022B00090011124382B8C2F8370C1E0D0E002C034
:1022C000CC0FDD1F8A95E2F7C22BD32BDC68C7CF7A
:1022D000C1E0D0E002C0CC0FDD1F2A95E2F730E26A
:1022E000939FC0011124C82BD92BDA68B8CFD82FFF
:1022F000CC27C46FD06AB3CFDC2FCC27C06FD06A95
:10230000AECF8C2F8F700E942A1234E0D695C795DD
:102310003A95E1F7CF709C2FEC01D069A0CF0E94D5
:1023200060100C947C1082389105B1F1B0F48133C7
:10233000910509F475C048F48932910509F469C022
:102340008A32910509F473C008958533910509F423
:1023500059C08933910501F10895833E9105A9F192
:1023600038F4803E9105F9F0823E910549F10895D7
:10237000863E9105A9F1873E9105C9F1843E9105FC
:1023800019F520918C0221FF1FC080918B0284FDE2
:1023900014C087EE90E0089520918B022370A1F085
:1023A00080EE90E0089520918B0220FD47C030918F
:1023B0008C0230FF09C024FF44C090E080E004C0DC
:1023C00020918B0222FDF7CF089520918B0222FDF0
:1023D0003BC030918C0230FDE3CF24FFF5CFEDCF31
:1023E00020918B0223FFF0CF24FDE7CFD2CF2091A5
:1023F0008B0223FD2CC030918C0231FFEECF84EE96
:1024000090E0089520918B0225FFDECF89E290E0D5
:10241000089520918B0225FFD7CF85E390E00895A2
:1024200020918B0226FFD0CF8AE290E00895209180
:102430008B0226FFC9CF81E390E0089589E390E005
:10244000089583EE90E0089582EE90E0089586EE80
:1024500090E0089590918B0292FF06C0282F28717A
:102460002830F9F4877F846093FF06C0282F2871F5
:102470002831F1F4877E846120918C0220FF06C010
:10248000382F38713830D9F4877F816021FF06C03A
:10249000282F28712831D1F4877E816194FD877EB1
:1024A0000895282F24712430F9F68B7F8860DCCFC3
:1024B000282F2471243101F78B7E8861DDCF382FDE
:1024C0003171313019F78E7F8860E0CF282F21716C
:1024D000213121F78E7E8861E1CF80E00895089553
:1024E0000E94A90E811102C00E944E0F0E94B40EDC
:1024F000809346020E94BC0E90938C0280938B02C4
:102500000E946F120E94B80E682F70E090E080E089
:102510000E949B086091CC017091CD018091CE0109
:102520009091CF010C94D5080C9456020C946C0237
:10253000E82FF0E0EE0FFF1FEB56FD4F80819181F9
:102540000895089580EA8A95F1F7089500C00895E6
:102550000C94A212F894E82FE295EF70F0E031A10C
:10256000282F2F7081E090E001C0880F2A95EAF7AC
:10257000982F9095932391A392A1892B82A378946D
:102580000895CF93DF9384EF0E94AA1285EF0E94F3
:10259000AA1285E90E94AA1283E90E94AA12C2E83F
:1025A000D1E089918F3F11F00E94AA1281E0CF38CB
:1025B000D807B9F7DF91CF910895AF92BF92DF921C
:1025C000EF92FF920F931F93CF93DF938C01D62E40
:1025D000C62FD0E0CE0181579E4F7C01FC012081A7
:1025E0002F3F09F44DC0F894E22FE295EF70F0E030
:1025F00031A12F7081E090E001C0880F2A95EAF7A1
:10260000932F982B91A392A18095892382A37894EC
:102610000E94A612E2E8F1E04FE851E021E030E04C
:10262000B12CA12C61916F3FA9F1A62FA295AF709B
:10263000B0E090968C9190E06F7002C09595879570
:102640006A95E2F780FD26C0C901A82AB92A220F9F
:10265000331F4E175F0731F7F70180818F3F11F06D
:102660000E94AA1261E0A114B10409F460E08D2D6A
:102670000E94A812CC0FDD1FC00FD11FB982A88203
:10268000DF91CF911F910F91FF90EF90DF90BF905E
:10269000AF90089590E080E0D8CF0E94C11288E00A
:1026A000E5E9F2E0DF01982F1D929A95E9F7EDE850
:1026B000F2E0DF011D928A95E9F784E00E94AD13F4
:1026C0000C948C03FF920F931F93CF93DF93CDB79E
:1026D000DEB728970FB6F894DEBF0FBECDBF8E01D0
:1026E0000F5F1F4F88E0F80111928A95E9F7F12CEE
:1026F0006F2DC8010E94DD12F394F4E0FF12F8CFB1
:1027000048E050E0B8018DE892E00E948E23FF245B
:10271000F394009709F4F12C892B41F088E0F8013B
:10272000ADE8B2E001900D928A95E1F72F2D44E0DB
:1027300065E972E08DE892E00E94AE130E94920378
:102740008F2D28960FB6F894DEBF0FBECDBFDF9158
:10275000CF911F910F91FF9008950895FF920F93CD
:102760001F93CF93DF93F82E092F162FD72FC42F47
:10277000222349F081E0809349020E94B31A90938A
:10278000480280934702809149028823A1F08091FA
:102790004702909148020E94CB1A059760F0EF2DF6
:1027A000F02FA12FBD2F90E080E0D0E08C179D0787
:1027B00044F010924902DF91CF911F910F91FF9049
:1027C0000895219131912D933D930196EFCF0E9471
:1027D000B11C0E949D0F0C94BD1C0E94C11C0E9444
:1027E000A50F0C94DB1C0E943C1A0E94981C0E94AE
:1027F000890F0E94E7130E94ED130E94990FFBCFEF
:102800008091500280FF12C06091100185E0689FA6
:10281000B0011124759567957595679560387105B8
:10282000A8F561157105A1F1862F089581FF09C0F2
:102830006091100185E0689FB0011124759567953E
:10284000EDCF6091100182FD0AC080914F02882374
:10285000D1F090910F0160911001891728F085E067
:10286000689FB0011124DACF869FB001112485E062
:10287000869F9001879F300D1124692F70E0C90158
:102880000E946023CBCF65E070E0CECF8FE7089544
:1028900081E008958091500280FF0CC060910C018E
:1028A00070E075956795759567956115710549F1A6
:1028B000862F089581FF06C060910C0170E0759528
:1028C0006795F3CF60910C0182FD0BC090914E0291
:1028D0009923A1F060910B0180910C01961738F0BB
:1028E000682F70E06038710500F38FE70895899FC5
:1028F000C001112470E00E946023F4CF61E070E019
:10290000D7CF81E008958D3E31F40E940014819567
:102910008093540208958E3E19F40E940014F8CF5B
:102920008F3E31F40E9400148195809353020895E4
:10293000803F19F40E940014F8CF893F29F40E94C7
:102940004A148093550208958A3F21F40E944A1444
:102950008195F7CF8B3F31F40E944A148195809383
:10296000560208958C3F19F40E944A14F8CF9FE054
:10297000980F983070F4815F990B21E030E001C02E
:10298000220F8A95EAF780915202822B809352029D
:1029900008958D3F31F48091500281608093500200
:1029A00008958E3F21F4809150028260F7CF8F3FCF
:1029B000B9F7809150028460F1CF409153028D3E6F
:1029C00059F48091540287FF0DC0109254024111B6
:1029D0000BC010924F0208C08E3E81F480915402C9
:1029E00018169CF3442381F0809155029091560271
:1029F000892B09F05AC010924E0208958F3E49F477
:102A000047FFF0CF10925302809154028111ECCF16
:102A1000E0CF803F19F41416ACF3E4CF9091550247
:102A2000893F29F41916F4F610925502DBCF8A3F3C
:102A300019F497FFD7CFF8CF909156028B3F29F426
:102A400097FFD0CF10925602CDCF8C3F19F41916B4
:102A5000CCF3C8CF9FE0980F983090F4815F990B2A
:102A600021E030E0B90102C0660F771F8A95E2F7D6
:102A7000CB01809590915202892380935202B2CF6C
:102A80008D3F31F4809150028E7F80935002AACF07
:102A90008E3F21F4809150028D7FF7CF8F3F09F058
:102AA000A1CF809150028B7FF0CF08950E94B31A7E
:102AB0009C019091530280915402982B21F0309305
:102AC0004D0220934C029091550280915602982B12
:102AD00021F030934B0220934A0281E592E00C945E
:102AE0002C19EF92FF920F931F93CF93DF9300D097
:102AF00000D000D0CDB7DEB786E0E1E5F2E0DE0140
:102B0000119601900D928A95E1F7E0905302F090B2
:102B100054020091550210915602109253021092E5
:102B2000540210925502109256028E2D8F2991F068
:102B300080914C0290914D020E94CB1AAC01909171
:102B40004F02992309F43FC08091110184171506A3
:102B500008F447C0802F812B91F080914A02909118
:102B60004B020E94CB1AAC0190914E02992309F4BA
:102B700077C080910D018417150608F47FC08091FD
:102B8000530290915402892B90915502892B909178
:102B90005602892B11F00E94561586E0FE013196EF
:102BA000A1E5B2E001900D928A95E1F726960FB665
:102BB000F894DEBF0FBECDBFDF91CF911F910F9173
:102BC000FF90EF900895209112018AE0289F9001D4
:102BD00011242417350708F0BDCF9F5F90934F0253
:102BE00002C09F3FD1F7EE2059F00E9400149FEFE2
:102BF0001E140CF491E0899F802D112480935302C0
:102C0000FF2059F00E9400149FEF1F140CF491E074
:102C1000899F802D112480935402309153023323D5
:102C200009F498CF20915402222309F493CF45EB65
:102C30003403C0011124992359F09093530245EBBA
:102C4000240390011124332339F03093540282CFAE
:102C500081E080935302F3CF81E0809354027ACFD6
:102C600020910E018AE0289F900111242417350736
:102C700008F085CF9F5F90934E0202C09F3FD1F72F
:102C8000002359F00E944A149FEF10160CF491E0B3
:102C9000899F802D112480935502112359F00E94A1
:102CA0004A149FEF11160CF491E0899F802D112496
:102CB0008093560230915502332309F460CF20915E
:102CC0005602222309F45BCF45EB3403C0011124E3
:102CD000992359F09093550245EB24039001112458
:102CE000332339F0309356024ACF81E08093550266
:102CF000F3CF81E08093560242CF86E0E1E5F2E037
:102D0000DF011D928A95E9F710924F0210924E0250
:102D1000109250020895CF93DF93EC01FB01828162
:102D2000882309F420C1C430FDE5DF07C8F5CB3F97
:102D30009CE5D90730F49E0122503C4524313105F1
:102D400098F50E94BC0E90938C0280938B02C03148
:102D5000FCE5DF0709F4E0C008F061C0C8309CE57D
:102D6000D90709F4CBC088F5C430FCE5DF0709F4C6
:102D7000B3C0E8F4C2309CE5D90709F4A7C080913C
:102D80008B028260C330DC4509F4A3C080918B02C2
:102D900090918C020E94CA0E0E94420880E004C0FA
:102DA000C236EDE5DE0769F2DF91CF91089580919B
:102DB0008B028061C630FCE5DF0709F48AC008F4A5
:102DC0008FC080918B02806284C080918B028D7F46
:102DD000CC309CE5D90709F47CC070F480918B025B
:102DE0008C60CA30FCE5DF0709F473C008F48AC0C0
:102DF00080918B028E7F6DC080918B02877FCE3059
:102E00009CE5D90709F465C080918B028B7FCF3098
:102E1000DC4508F45EC080918B028F7E5AC0CD3FA6
:102E2000FCE5DF0709F474C040F5C4319CE5D9071F
:102E300009F48AC058F4C231FCE5DF0709F474C014
:102E400008F46EC080918B02837F43C0CB3F9CE52A
:102E5000D90709F449C008F04DC0C531DC4509F077
:102E600095CF80918B0282FB992790F921E09227E0
:102E700090FB82F990FB83F92CC0C1308DE5D80717
:102E800009F458C088F480918C028360CF3FECE550
:102E9000DE0769F180918C028D7FC115DD4538F127
:102EA00080918C028C7F23C0C3308DE5D80709F454
:102EB00058C008F452C0C236DD4509F067CF909182
:102EC0008B02892F8F7E94FF806103C080918B02DB
:102ED000816080938B025ACF80918B028460F9CFFE
:102EE00080918B028860F5CF80918C028160809305
:102EF0008C024CCF80918C028260F9CF80918B0242
:102F00008064E7CF0E94420880918B028068E1CF05
:102F100080918C028E7FEBCF80918B028F7DD9CFF9
:102F200080918B028F7BD5CF0E94420880918B02CB
:102F30008F77CFCF80918C02982F909591708E7F54
:102F4000892B90FB81F9D3CF0E94420890918B028C
:102F5000892F97FB87F98058BCCF81E00E94500FE2
:102F600015CF80E0FBCF81E01FCF0C94040387983E
:102F70008F9A86988E9A8FB190E0880F892F881F3C
:102F8000990B7E9905C020E0822B80935902089509
:102F900022E0FACFE0915902EE0FEE0FE0935902D2
:102FA0008FB190E0880F892F881F990B4FB146FB96
:102FB000222720F946FF02C022E030E0822BE82BD6
:102FC000E0935902EF70F0E0ED56FE4F8081909152
:102FD0005802890F8093580220E0843054F0809189
:102FE00057028F5F8093570260E080E00E94B51720
:102FF00021E0809158028D3F54F480915702815016
:103000008093570261E080E00E94B51721E0809133
:103010005802082E000C990B64E070E00E946023B7
:1030200080935802822F0895CF93DF93EB0186316E
:103030009C4511F50E94C80D9A81992399F08A7ACE
:1030400091E009F490E090935A02811109C089E25D
:103050000E94A30D0E94180E80E0DF91CF91089589
:1030600085E3F6CF80915A02811104C089E20E9463
:10307000AA0DF0CF85E3FBCF81E0EFCF0F931F9335
:10308000CF93DF93C42FD22FFC0182818823C9F014
:1030900040935D020E94B31A90935C0280935B029E
:1030A00080E28C0F883008F050C0C77081E001C00A
:1030B000880FCA95EAF7DF91CF911F910F910C9479
:1030C000A90510915D02141335C080915B029091A7
:1030D0005C020E94CB1A883C910560F5C0E2CD0FDE
:1030E0001D17B9F080E2810F883040F4177081E03D
:1030F00001C0880F1A95EAF70E94B005C83048F45D
:1031000081E09D2F977001C0880F9A95EAF70E9481
:10311000A905802F0E94A105C830B8F4D77081E0BE
:1031200001C0880FDA95EAF7DF91CF911F910F91D7
:103130000C94B00580E28C0F883038F4C77081E0C1
:1031400001C0880FCA95EAF7EFCFDF91CF911F91A9
:103150000F9108950F939C01CB01243F4CE5340758
:1031600059F1A8F4293DFCE53F0701F12A3D4CE562
:103170003407D1F1283D3C4591F406E221EE41EEC1
:1031800068ED7CE50E943E1880E00F910895263F8F
:10319000FCE53F07E9F0B0F0273F3C45F9F0FC01C2
:1031A0008281882339F110925D02EFCF07E225EE8C
:1031B00045EE69ED7CE5E6CF06E221EE40EE64EFF8
:1031C0007CE5E0CF07E225EE44EE65EF7CE5DACF63
:1031D00006E221EE42EE66EF7CE5D4CF07E225EE73
:1031E00046EE67EF7CE5CECF08E221E045EE6AEDE2
:1031F0007CE5C8CF81E0C9CF9093A5018093A4015D
:10320000089590936302809362020895E0916202B0
:10321000F0916302309721F00190F081E02D099444
:1032200080E00895E0916202F0916302309799F096
:1032300020911F01222359F020918B0227FF07C004
:10324000DC012C9111962C93119726E02C9302808F
:10325000F381E02D09940895E0916202F0916302F8
:10326000309739F022E0DC012C930480F581E02DC9
:10327000099408952091600230916102281739075E
:1032800071F09093610280936002E0916202F0918C
:103290006302309721F00680F781E02D09940895AC
:1032A00020915E0230915F022817390771F09093E8
:1032B0005F0280935E02E0916202F09163023097B8
:1032C00021F00084F185E02D09940895FC013296E7
:1032D00080911F01882321F080918B029EE187FF5E
:1032E00096E080E0915008F4089521912223D1F3D3
:1032F0008F5FF8CF662301F120911F012223F1F0A7
:1033000020918B0227FF1AC0462F46954695469579
:103310004E3190F4677021E030E002C0220F331F7D
:103320006A95E2F7840F911DFC01828190E02823C9
:10333000392381E0232B69F480E00895FC01329663
:1033400008962191261721F0E817F907D1F7F4CF55
:1033500081E008959C01FC0132969FEF80E041914D
:10336000461751F09F3F19F4411101C0982F8F5F0C
:103370008630A9F79F3F09F40895290F311D97FD65
:103380003A95F90162830895FC01329608962191DD
:10339000261303C0DF0111971C92E817F907B9F74C
:1033A0000895E62FE695E695E695EE3168F4E80F88
:1033B000F92FF11D677021E030E001C0220F6A95FE
:1033C000EAF78281822B82830895E62FE695E695BF
:1033D000E695EE3170F4E80FF92FF11D677021E0EA
:1033E00030E001C0220F6A95EAF7209582812823F8
:1033F0002283089520911F01222329F020918B021E
:1034000027FD0C94D1190C94AA1920911F01222395
:1034100029F020918B0227FD0C94E5190C94C41916
:10342000FC01329680911F01882351F080918B021C
:1034300087FF06C08EE1DF011D928A95E9F70895A6
:1034400086E0F9CF08950C94221A811105C081E01D
:10345000809364020C94231A82E0FACF83E0809375
:1034600064020C94231A0C94251A81E08093640260
:103470000C94231A0C94351A08958091A502843077
:1034800031F10E9494031092650288E190E020E4FB
:103490000FB6F894A895809360000FBE209360004B
:1034A00083B7817F846083BF83B7816083BF789453
:1034B000889583B78E7F83BF0FB6F894A8958091C7
:1034C0006000886180936000109260000FBE0895D4
:1034D00008950895CF930E94681A0E9462130E9473
:1034E000691AC0E08C2F0E949812892B31F4CF5FAB
:1034F000C430C1F780E0CF91089581E0FCCF0E94F5
:1035000042080C94FC031F921FB61F9211248F9344
:103510009F93AF93BF9380916502811113C08091F7
:103520009D0290919E02A0919F02B091A0024196AF
:10353000A11DB11D80939D0290939E02A0939F02B6
:10354000B093A002BF91AF919F918F911F901FBE2A
:103550001F90189582E084BD93E095BD9AEF97BDCA
:1035600080936E0008952FB7F89480919D029091FA
:103570009E02A0919F02B091A0022FBF08952FB785
:10358000F89460919D0270919E0280919F029091AB
:10359000A0022FBF08959C014FB7F89480919D021F
:1035A00090919E02A0919F02B091A0024FBF821BFA
:1035B000930B089578941F921FB61F9211248F9336
:1035C0009F93AF93BF9380919D0290919E02A09193
:1035D0009F02B091A0020196A11DB11D80939D0292
:1035E00090939E02A0939F02B093A002BF91AF91CF
:1035F0009F918F911F901FBE1F90189587E797E7A7
:10360000909301088093000888E19AE00FB6F8943F
:10361000A895809360000FBE90936000FFCF8091CB
:103620008902089508959C0182E08093E9009FEF4C
:103630008091E800915085FD06C085ED8A95F1F7EF
:1036400000009111F5CF8091E80085FF0CC050E09B
:1036500040E066E070E0C9010E944C1D8091E800E6
:103660008E778093E8000895CF93DF93EC018091EB
:103670001F018823B1F180918B0287FF32C060E285
:1036800082E08093E9008FEF9091E800815095FDF2
:1036900006C095ED9A95F1F700008111F5CF809164
:1036A000E80085FF1BC080911F0170E050E040E002
:1036B000811104C050E040E068E070E0CE010E945B
:1036C0004C1D8091E8008E778093E80080E2FE0137
:1036D000A9E6B2E001900D928A95E1F7DF91CF91D2
:1036E000089568E081E0CDCF809366027093680210
:1036F000609367028091A502843001F582E0809397
:10370000E9008FEF9091E800815095FD06C095ED9E
:103710009A95F1F700008111F5CF8091E80085FFBF
:103720000DC050E040E063E070E086E692E00E9469
:103730004C1D8091E8008E778093E8000895BC01CD
:1037400084E00C94741BBC0183E00C94741B809186
:10375000A402811109C00E94DC1E0E94391F8091C1
:10376000E20084608093E20008951092A40208951C
:103770000C94351A6091A10281E0611101C080E0D2
:103780000C942E1A9091A50281E0943009F080E00B
:103790006091A1020C94331A42E061EC81E00E9436
:1037A000581E42E261EC82E00E94581E9091A502F0
:1037B00081E0943009F080E06091A1020C94251A18
:1037C0008091A702833009F460C030F48130C9F1E0
:1037D000823009F49CC008958A3009F488C08B3087
:1037E00009F46EC0893009F04FC08091A602813281
:1037F00009F04AC08091AA029091AB02029708F0AA
:1038000043C08091E800877F8093E8008091E800C2
:1038100082FF36C09091F3008091F200029731F45C
:103820008091F100813011F0863021F48091F10017
:10383000809389028091E8008B778093E8000C9454
:103840008C1E8091A602813AF9F48091E800877F6E
:103850008093E8008091AA029091AB02892B61F4D9
:1038600060E289E692E070E00E949B1D8091E80092
:103870008B778093E800089560E090E080E0F3CFDC
:103880008091A5028111C2CF08958091A602813A4C
:10389000D9F78091AA029091AB02892BA9F7809168
:1038A000E800877F8093E8008091E80080FFFCCFEC
:1038B00080911F018093F1008091E8008E77BDCF49
:1038C0008091A602813201F78091AA029091AB0209
:1038D000892BD1F68091E800877F8093E8000E94D1
:1038E0008C1E8091A80280931F010C944208809145
:1038F000A602813249F68091E800877F8093E80034
:103900000E948C1E8091A90280938A020895809162
:10391000A602813A09F0B8CF8091E800877F8093B2
:10392000E8008091E80080FFFCCF80918A02C2CF3E
:1039300084B7877F84BF0FB6F894A8958091600004
:10394000886180936000109260000FBE80E890E074
:103950000FB6F89480936100909361000FBE0C94B1
:103960003A1A0E94DC1E0E94391FE2EEF0E08081CC
:103970008460808378940C94C22183E191E00C945C
:1039800001198091A5028530A9F48091A5028530A6
:1039900011F00C947F1A0E943D1A8091A302882393
:1039A000A1F30E946A1A882381F30E94361D0E94A7
:1039B0004208EBCF089508950C94DE1C292F33277D
:1039C0002330310519F168F42130310509F444C080
:1039D0002230310509F445C090E080E030E020E07D
:1039E00025C02132310549F122323105A9F780E4A1
:1039F00090E02DE133E061157105C1F086EB90E0B8
:103A000027E632E06130710589F0E6CF99278130F1
:103A1000910581F0009729F00297F1F6E4EEF1E0CC
:103A200002C0E6E1F2E0849190E09F01FA01318367
:103A300020830895E2E0F2E0F6CF89E090E02CE206
:103A400032E06115710591F389E090E025E432E000
:103A50006130710559F3C0CF82E190E025E532E095
:103A6000E5CF8BE390E02AE132E0E0CF80E189BD51
:103A700082E189BD09B400FEFDCF8091D8008F7D21
:103A80008093D8008091E00082608093E000809174
:103A9000E00081FDFCCF0895AF92BF92CF92DF92FC
:103AA000FF920F931F93CF93DF936C01EB018A0179
:103AB0000E94AB1EF82E811123C00115110539F0AB
:103AC000F80180819181C81BD90BC80ED91EB12C79
:103AD000A12C2097A9F08091E80085FD22C080915B
:103AE000E8008E778093E80001151105A1F0F80138
:103AF00080819181A80EB91EB182A08285E0F82E46
:103B00008F2DDF91CF911F910F91FF90DF90CF907C
:103B1000BF90AF9008950E94AB1E8823D1F2F82E7B
:103B2000EFCFF60181916F018093F1002197FFEFB4
:103B3000AF1ABF0ACECFFC018091AC029091AD02CA
:103B400086179707A0F06115710529F49091E80098
:103B50009E779093E80090E06115710551F4911102
:103B600008C08091E80082FF34C080E00895BC0165
:103B7000F2CF8091A5028823C1F18530C1F18091F7
:103B8000E80083FD30C08091E80082FDEACF80919B
:103B9000E80080FFE1CF8091F3002091F200382F00
:103BA0006115710519F02830310558F091E0283081
:103BB000310509F090E02091E8002E772093E8008D
:103BC000CBCF81918093F100615071092F5F3F4FFE
:103BD000E7CF8091A502882341F0853041F08091A4
:103BE000E80083FFBECF81E0089582E0089583E07E
:103BF0000895FC018091AC029091AD028617970761
:103C0000A0F06115710529F48091E8008E7780930A
:103C1000E80090E06115710551F4911108C08091A0
:103C2000E80082FF35C080E00895BC01F2CF8091AA
:103C3000A5028823C9F18530C9F18091E80083FD90
:103C400031C08091E80082FDEACF8091E80080FFDA
:103C5000E1CF8091F3002091F200382F61157105BA
:103C600019F02830310558F091E02830310509F07D
:103C700090E08091E8008E778093E800CBCF84912C
:103C80008093F1003196615071092F5F3F4FE6CF6D
:103C90008091A502882341F0853041F08091E800B1
:103CA00083FFBDCF81E0089582E0089583E0089509
:103CB000982F973028F08F708093E90081E0089565
:103CC0009093E900242F762F50E0981731F07091EF
:103CD000EC002091ED005091F00021FD02C09F5FAB
:103CE000E8CF3091EB003E7F3093EB003091ED0058
:103CF0003D7F3093ED003091EB0031603093EB006D
:103D00007093EC002093ED005093F0002091EE00B2
:103D100027FDE5CF80E008958091A60287FF13C0BC
:103D20008091E80082FF06C08091E8008B77809345
:103D3000E80004C08091A5028111F2CF089580911E
:103D4000A5028823D9F38091E80080FFF8CF809105
:103D5000E8008E77ECCF2091E4003091E50095E605
:103D6000A9012091EC00822F817020FF06C0809174
:103D7000E80080FF06C080E008952091E80022FD61
:103D80001AC08091A502882389F0853089F080913E
:103D9000EB0085FD0FC02091E4003091E500421753
:103DA0005307F9F29150E1F684E0089582E0089516
:103DB00083E0089581E008950E944A1F0E94521FE7
:103DC000E0EEF0E0808181608083E8EDF0E08081CA
:103DD0008F77808319BCA7EDB0E08C918E7F8C9398
:103DE00080818F7E80831092A40208950F931F9389
:103DF000CF93DF930E944A1F0E94521FC8EDD0E06C
:103E000088818F77888388818068888388818F7D87
:103E1000888319BC1092A5021092A1021092A302ED
:103E20001092A20200EE10E0F80180818B7F808367
:103E300088818160888342E060E080E00E94581EB3
:103E4000E1EEF0E080818E7F8083E2EEF0E0808121
:103E500081608083808188608083F80180818E7F8B
:103E60008083888180618883DF91CF911F910F913A
:103E70000895E8EDF0E080818F7E8083E7EDF0E04B
:103E800080818160808384E082BF81E08093A4028E
:103E90000C94F61EE8EDF0E080818E7F8083109216
:103EA000E20008951092DA001092E10008951F9246
:103EB0000F920FB60F9211242F933F934F935F935E
:103EC0006F937F938F939F93AF93BF93EF93FF93E2
:103ED0008091E10082FF0BC08091E20082FF07C069
:103EE0008091E1008B7F8093E1000E94C12180914D
:103EF000DA0080FF19C08091D80080FF15C0809142
:103F0000DA008E7F8093DA008091D90080FF96C01E
:103F100080E189BD82E189BD09B400FEFDCF81E069
:103F20008093A5020E94A71B8091E10080FF19C029
:103F30008091E20080FF15C08091E2008E7F809327
:103F4000E2008091E20080618093E2008091D800DD
:103F500080628093D80019BC85E08093A5020E94FE
:103F6000BA1B8091E10084FF2BC08091E20084FFA6
:103F700027C080E189BD82E189BD89B5982F917004
:103F800080FFFBCF8091D8008F7D8093D8008091F7
:103F9000E1008F7E8093E1008091E2008F7E80932C
:103FA000E2008091E20081608093E2008091A102B2
:103FB000882309F449C084E08093A5020E94C21BB3
:103FC0008091E10083FF29C08091E20083FF25C03A
:103FD0008091E100877F8093E10082E08093A502D9
:103FE0001092A1028091E1008E7F8093E100809188
:103FF000E2008E7F8093E2008091E20080618093F6
:10400000E20042E060E080E00E94581E8091F000F3
:1040100088608093F0000E94B81BFF91EF91BF91E0
:10402000AF919F918F917F916F915F914F913F9150
:104030002F910F900FBE0F901F90189519BC1092E2
:10404000A5020E94B51B70CF8091E30087FD93E02D
:104050009093A502B3CF1F920F920FB60F92112427
:104060002F933F934F935F936F937F938F939F9380
:10407000AF93BF93CF93DF93EF93FF93D091E9007A
:10408000DF708091EC00C82FC17080FDC0E81092F5
:10409000E9008091F000877F8093F00078940E947F
:1040A0006F201092E9008091F00088608093F0000A
:1040B000CD2BCF70C093E900FF91EF91DF91CF91AD
:1040C000BF91AF919F918F917F916F915F914F9130
:1040D0003F912F910F900FBE0F901F9018951F9337
:1040E000CF93DF93CDB7DEB7AA970FB6F894DEBFB4
:1040F0000FBECDBF86EA92E02091F100FC01219332
:10410000CF01F2E08E3A9F07B9F70E94E01B809141
:10411000E80083FF1EC18091A6029091A7029A3009
:1041200008F017C1E92FF0E0E350FC4D0C94742324
:10413000803899F0823809F00CC18091AA028F7002
:10414000873008F006C18093E9008091EB0085FB81
:10415000882780F91092E90006C08091A202909110
:10416000A302911182609091E800977F9093E800FC
:104170008093F1001092F1008091E8008E77E5C005
:10418000882309F4D3C0823009F0E3C08091A802EB
:104190008111D6C08091AA028F702FEF280F263090
:1041A00008F0D7C08093E9002091EB0020FFC8C041
:1041B000933031F48091EB0080628093EB00C0C0BB
:1041C0009091EB0090619093EB0021E030E001C012
:1041D000220F8A95EAF72093EA001092EA00809174
:1041E000EB008860EACF8111B4C01091A8021F775C
:1041F0008091E3008078812B8093E3008091E80038
:10420000877F8093E8000E948C1E8091E80080FFE9
:10421000FCCF8091E30080688093E30082E011117D
:1042200083E08093A50295C08058823008F091C049
:104230008091A8029091A9028C3D23E09207A1F5FC
:1042400083E08A838AE289834FB7F894DE0113966C
:1042500020E03EE051E2E32FF0E050935700E4917C
:1042600020FF03C0E295EF703F5FEF708E2F90E06C
:10427000EA30C0F0C7968D939D932F5F243159F794
:104280004FBF8091E800877F8093E8006AE270E08A
:10429000CE0101960E949B1D8091E8008B77809350
:1042A000E80057C0C096E7CF6091AA027091AB02B8
:1042B000AE014F5F5F4F0E94DC1CBC01892B09F4EB
:1042C00048C09091E800977F9093E80089819A8197
:1042D0000E94F91DE1CF8038E1F58091E800877FE9
:1042E0008093E8008091A1028093F10045CF811175
:1042F00030C09091A802923060F58091E800877FED
:104300008093E8009093A1020E948C1E8091A102EC
:10431000882311F084E005C08091E30087FDFACF87
:1043200081E08093A5020E94CC1B13C08091A8025B
:10433000813079F481E0933009F080E08093A3022A
:104340001092E9008091E800877F8093E8000E9446
:104350008C1E8091E80083FF0AC08091E800877F6F
:104360008093E8008091EB0080628093EB00AA9636
:104370000FB6F894DEBF0FBECDBFDF91CF911F9176
:1043800008950895CF938091A5028823A1F0C0914C
:10439000E900CF709091EC00892F817090FD80E84A
:1043A000C82B1092E9008091E80083FD0E946F20E5
:1043B000CF70C093E900CF9108950E94F1210C9431
:1043C000D9220E94D22258F00E94CB2240F029F438
:1043D0005F3F29F00C94C22251110C940D230C94D0
:1043E000C8220E94EA2268F39923B1F3552391F37E
:1043F000951B550BBB27AA2762177307840738F054
:104400009F5F5F4F220F331F441FAA1FA9F335D0B0
:104410000E2E3AF0E0E832D091505040E695001C64
:10442000CAF72BD0FE2F29D0660F771F881FBB1F1E
:10443000261737074807AB07B0E809F0BB0B802DFC
:10444000BF01FF2793585F4F3AF09E3F510578F028
:104450000C94C2220C940D235F3FE4F3983ED4F3F6
:10446000869577956795B795F7959F5FC9F7880FFC
:10447000911D9695879597F90895E1E0660F771F4E
:10448000881FBB1F621773078407BA0720F0621BDF
:10449000730B840BBA0BEE1F88F7E09508950E940A
:1044A00056226894B1110C940D2308950E94F222B3
:1044B00088F09F5798F0B92F9927B751B0F0E1F0E5
:1044C000660F771F881F991F1AF0BA95C9F714C095
:1044D000B13091F00E940C23B1E008950C940C23AC
:1044E000672F782F8827B85F39F0B93FCCF38695CE
:1044F00077956795B395D9F73EF49095809570952B
:1045000061957F4F8F4F9F4F0895E89409C097FBA7
:104510003EF490958095709561957F4F8F4F9F4F9A
:104520009923A9F0F92F96E9BB279395F6958795DE
:1045300077956795B795F111F8CFFAF4BB0F11F4A1
:1045400060FF1BC06F5F7F4F8F4F9F4F16C0882348
:1045500011F096E911C0772321F09EE8872F762F7E
:1045600005C0662371F096E8862F70E060E02AF0BF
:104570009A95660F771F881FDAF7880F96958795AB
:1045800097F9089597F99F6780E870E060E00895D3
:104590009FEF80EC089500240A941616170618065B
:1045A0000906089500240A94121613061406050637
:1045B0000895092E0394000C11F4882352F0BB0FC8
:1045C00040F4BF2B11F460FF04C06F5F7F4F8F4F2B
:1045D0009F4F089557FD9058440F551F59F05F3F66
:1045E00071F04795880F97FB991F61F09F3F79F015
:1045F00087950895121613061406551FF2CF469597
:10460000F1DF08C0161617061806991FF1CF869518
:104610007105610508940895E894BB2766277727FC
:10462000CB0197F908950E94F222E8F09E37E8F056
:104630009639B8F49E3848F4672F782F8827985F0A
:10464000F9CF86957795679593959539D0F3B62FE1
:10465000B1706B0F711D811D20F48795779567955B
:1046600093950C9437230C9452230C940D23882398
:1046700071F4772321F09850872B762F07C066239B
:1046800011F499270DC09051862B70E060E02AF05C
:104690009A95660F771F881FDAF7880F969587958A
:1046A00097F908959F3F31F0915020F487957795C1
:1046B0006795B795880F911D9695879597F90895F9
:1046C00097FB072E16F4009407D077FD09D00E94BF
:1046D0007A2307FC05D03EF4909581959F4F08956D
:1046E000709561957F4F0895EE0FFF1F0590F4912F
:1046F000E02D0994AA1BBB1B51E107C0AA1FBB1FD9
:10470000A617B70710F0A61BB70B881F991F5A955D
:10471000A9F780959095BC01CD010895FB01DC01BE
:1047200004C08D910190801921F441505040C8F788
:10473000881B990B0895F999FECF92BD81BDF89A17
:10474000992780B50895A8E1B0E042E050E00C94CC
:10475000CF23262FF999FECF92BD81BDF89A0197FC
:1047600000B4021639F01FBA20BD0FB6F894FA9AB9
:10477000F99A0FBE08950396272F0E94AA230E943C
:10478000A923252F0E94AA23242F0C94AA23019643
:10479000272F0E94AA230C94A923DC01CB01FC0142
:1047A000F999FECF06C0F2BDE1BDF89A319600B48A
:1047B0000D9241505040B8F70895F894FFCFF1059D
:1047C000F10522062206B506D10651065106DC0681
:1047D000680777077707CF0751065106D8075108B2
:1047E00051085A085A085C085A085A085A085108C9
:1047F000510861085A085A0861089820C020A92168
:0E480000C020A921F3201421A9216B217721CA
:10480E00403200C800FF03C8000E022808641E14C0
:10481E000A321E0F1B341B131BA31B9F1B121B01E3
:10482E00E200E900EA00B500B600B700CD00830152
:10483E00CC008A0192019401210223022402250256
:10484E00260227022A02B300B4006F007000818294
:10485E0083E200E900EA00B500B600B700CD0083A0
:10486E0001CC008A01920194012102230224022527
:10487E0002260227022A02B300B4006F00700081E4
:10488E00828367663635349796943233919092F4DC
:10489E00F5959300FF0100010000FFFF00000100ED
:0448AE0001FF000006
:00000001FF
