:100000000C94AF010C94F6010C94F6010C94F601DB
:100010000C94F6010C94F6010C94F6010C94F60184
:100020000C94F6010C94F6010C94F41F0C94C82067
:100030000C940D1B0C94F6010C94F6010C94F60133
:100040000C94F6010C94F6010C94F6010C94F60154
:100050000C94F6010C94641B0C94F6010C94F601BC
:100060000C94F6010C94F6010C94F6010C94F60134
:100070000C94F6010C94F6010C94F6010C94F60124
:100080000C94F6010C94F6010C94F6010C94F60114
:100090000C94F6010C94F6010C94F6010C94F60104
:1000A0000C94F6010C94F6010C94F601165C140005
:1000B0001A000800150017001C0018000C001200A0
:1000C00013002F0030002B00040016000700090069
:1000D0000A000B000D000E000F0033003400280052
:1000E000D85C1D001B00060019000500110010005F
:1000F000360037003800D95C5200E300E200E0002F
:100100004E0001512C004B000251A85D50005100DF
:100110004F002A4135001E001F0020002100220050
:10012000230024002500260027002D002E00390082
:100130001E021F02200221022202230224022502A3
:1001400026022702310231000100010001000100F6
:100150000100010001000100010001000100010097
:100160004A0001000100010001000100010001003E
:10017000010001004B004D004E004C0001003A0010
:100180003B003C003D003E003F004000410042007B
:10019000430044004500010001000100010001008E
:1001A0000100010001000100010001000100010047
:1001B0000100010001000100010001000100010037
:1001C0000100010001000100010001000100010027
:1001D0000100010001000100010001000100010017
:1001E000010001001C034C00650074002000490060
:1001F0007400200053006C00690064006500210059
:100200000000120344007200480069006700730098
:100210006200790000000403090409023B000201A6
:1002200000A0FA09040000010301010009211101E5
:1002300000012240000705810308000A09040100AB
:10024000010300000009211101000122B600070589
:10025000820320000A1201000200000008070001CA
:100260000005000102000105010902A10185020942
:1002700001A1000509190129081500250195087536
:100280000181020501093009311581257F9502752B
:1002900008810609381581257F95017508810605B5
:1002A0000C0A38021581257F950175088106C0C0AA
:1002B00005010980A101850319012AB7001501264E
:1002C000B700950175108100C0050C0901A10185D9
:1002D0000419012AA002150126A0029501751081BA
:1002E00000C005010906A1018506050719E029E7F7
:1002F000150025019508750181020507190029EFF0
:100300001500250195F075018102050819012905DF
:10031000950575019102950175039101C0050109CB
:1003200006A101050719E029E715002501950875C3
:100330000181029501750881010507190029FF1542
:100340000026FF009506750881000508190129059A
:10035000950575019102950175039101C000112465
:100360001FBECFEFDAE0DEBFCDBF04B603FE27C06D
:100370008091B1029091B202A091B302B091B40207
:100380008730904BA740B04BD1F41092B10210923D
:10039000B2021092B3021092B40214BE84B7877FE7
:1003A00084BF0FB6F894A89580916000886180930F
:1003B0006000109260000FBEE0E0F8E3099511E0E4
:1003C000A0E0B1E0E8E4F9E402C005900D92A43A9F
:1003D000B107D9F722E0A4EAB1E001C01D92A13B28
:1003E000B207E1F70E947D140C947A240C9400006B
:1003F000807C809300010895873901F178F4863379
:10040000F9F030F48433F1F08533F1F08FE10895A1
:100410008439E1F08639D1F781E20895843FC1F053
:1004200030F4803FB9F0813F89F781E00895863F3D
:1004300099F0A0F0873F51F787E0089582E2089590
:1004400085E2089583E2089584E2089580E20895A4
:1004500084E0089580E0089586E0089585E0089599
:1004600096E890937A00982F9072906890937B0012
:100470008F7190910001892B80937C0080917A008C
:10048000806480937A0080917A0086FDFCCF809111
:1004900078002091790090917A009F7790937A006C
:1004A000922F08950E94FC010C943002CF93DF93A9
:1004B00080E40E94F801D0E0C0E0809101019091B9
:1004C0000201C817D9071CF0DF91CF9108958AEA7D
:1004D0000E942D062196F1CF8F929F92AF92BF92EC
:1004E000CF92DF92EF92FF920F931F93CF93DF9300
:1004F0008091070181117EC081E190E0909302011B
:100500008093010180EF0E9452028C018091A6012C
:100510009091A701E801C81BD90B6091030170916C
:100520000401A0900101B0900201601771070CF462
:1005300064C0072E000C880B990B0E9424236B01CA
:100540007C01B501B7FE02C06F5F7F4F759567955F
:10055000072E000C880B990B0E9424239B01AC01F1
:10056000C701B6010E947A220E94B0230E94EC22A9
:100570007B01CE01D7FF04C0882799278C1B9D0BD8
:100580008E159F0554F1BE01DD0F880B990B0E945B
:1005900024234B015C01B701FF0C880B990B0E94CF
:1005A00024239B01AC01C501B4010E947A220E9460
:1005B000B0230E94EC22EB01EE24E394F12CCC2436
:1005C000DD24CC1ADD0ACE01D7FDC6018E159F05AC
:1005D000ECF41093A7010093A601DF91CF911F9136
:1005E0000F91FF90EF90DF90CF90BF90AF909F90D2
:1005F0008F90089582E390E081CF809105019091E2
:1006000006019C01261B370BB90193CF89EA1C1602
:100610001D060CF08AEA0E942D063FEFE31AF30A4A
:10062000D2CFCF93FB01873A2DE5920771F1883A3B
:100630002DE5920709F461C0C1E0863A9D4511F5A8
:10064000C281CC2309F449C08091AA0181110AC05A
:1006500081E08093AA01809107018823E1F182EE75
:100660000E942E050E943D1B9093A9018093A80132
:1006700081EE0E942E05C0910701C1111DC085E3C6
:100680000E942E058C2FCF910895C281CC23D9F0E2
:100690008091AA0181110AC081E08093AA01809112
:1006A0000701882371F082EE0E942E050E943D1BF7
:1006B0009093A9018093A8018BE20E942E05C0E0CF
:1006C000E1CF83EEF1CF809107018823A1F082EE84
:1006D0000E94C005D7CF83EEC3CF81EE0E94C00534
:1006E00080910701882321F08BE20E94C005EFCFA3
:1006F00085E30E94C00583EEEBCF82818823F9F267
:100700000E943D1B9093A9018093A8010E94551B54
:10071000883E9340A0F68091070191E0892780935D
:100720000701CDCFCF93C62F811110C06091CF01AB
:100730007091D0018091D1019091D2010E948E04DC
:10074000813071F0882329F08230E9F081E0CF9187
:1007500008958BE4C11101C08EE40E942D06F6CFEE
:1007600081EE0E942E0580EE0E942E058FE4C111BD
:1007700001C080E50E942D0681EE0E94C00580EE3A
:100780000E94C005E3CF89EAC111E7CF8AEAE5CF2D
:1007900081E008950C94110308950C94CC031F93E9
:1007A000CF93DF9300D000D00F92CDB7DEB749834F
:1007B0005A836B833091AB0189819A8131111DC0BD
:1007C0006623B9F02223A9F00E94790A182F682F16
:1007D00089819A810E94250A69817A81812F0F90EF
:1007E0000F900F900F900F90DF91CF911F910C946D
:1007F000EC100E94510A182FEFCF0E94790A6981EC
:100800007A81EDCFFC01262F408151816281738175
:1008100084810C94CF0381E00895CF93DF93EC01A2
:1008200060E00E940204BE01DF91CF910C94CD03E1
:100830000E94FC120E94E2040C9420130C946C029F
:1008400080E00C94E304089508950E94CE080E946D
:1008500024042FEF84E39CE0215080409040E1F796
:1008600000C000000C94881B0F931F93CF93DF935D
:100870008C0161E00E940204EC01B8010E94CA03ED
:100880008823A9F1B801CE010E943419882379F197
:10089000B801CE010E941517882349F1B801CE0195
:1008A0000E949E18882319F1F8018281882361F043
:1008B000CB35FDE5DF0721F170F4C115ECE5DE076E
:1008C000A1F0CF3DDC45C9F0C801DF91CF911F9168
:1008D0000F910C94C803CC358DE5D807A1F0CD3528
:1008E000DD4591F70E94260FEFCF0E94250480E09E
:1008F000DF91CF911F910F9108950E94DA0FF7CFEA
:100900000E942F0FE1CF0E94320FDECF0C94230400
:100910000E9490190E94E3040C948604CF92DF9207
:10092000EF92FF926C01EE24FF2420E0C114D10469
:10093000E104F10419F0C701B60120E1C72ED82E59
:10094000E92EFF24C114D104E104F10419F0285F59
:10095000C701B6016B017C0154E0F694E794D7948B
:10096000C7945A95D1F7C114D104E104F10419F0E8
:100970002C5FC701B6016B017C0142E0F694E7945D
:10098000D794C7944A95D1F7C114D104E104F10476
:1009900019F02E5FC701B6019695879577956795F3
:1009A000672B682B692B09F02F5F822FFF90EF9048
:1009B000DF90CF90089508950C94DB0481E00895B2
:1009C0000C94DE040895CF93C82F0E94DC048C2F72
:1009D000CF910C94E004CF93DF93CDB7DEB72B9784
:1009E0000FB6F894DEBF0FBECDBF4F83588769871F
:1009F0007A878B8761110E94740E1E821D8285E0AA
:100A0000FE013796DE01119601900D928A95E1F76D
:100A10008C819D81892B89F449815A816B817C81EC
:100A20008D819E810E94950D2B960FB6F894DEBFA6
:100A30000FBECDBFDF91CF91089589819A8189231F
:100A40008F3F51F3CE0101960E940B048111E4CF38
:100A5000EBCFFC01808191810C94BB0ACF93C82F0E
:100A6000882309F48BC08238C1F40E94901981FD5B
:100A700085C089E30E942F0E0E94A40E2FEF81EE05
:100A800094E0215080409040E1F700C0000089E3ED
:100A90000E94360ECF910C94A40E8338A1F40E94CC
:100AA000901980FD6BC083E50E942F0E0E94A40E5A
:100AB0002FEF81EE94E0215080409040E1F700C09C
:100AC000000083E5E5CF8438A1F40E94901982FDEF
:100AD00055C087E40E942F0E0E94A40E2FEF81EED6
:100AE00094E0215080409040E1F700C0000087E48E
:100AF000CFCF8CEF8C0F813A90F46C2F80910A014C
:100B000090910B010E94041A882329F08C2F0E94D7
:100B1000360E0E94A40E8C2F0E942F0EBBCF80E2B7
:100B20008C0F883048F4C77081E001C0880FCA95E7
:100B3000EAF70E94570EAECFEBE5EC0FE33040F43E
:100B4000F0E0E15BFE4F808190E0CF910C94C419FE
:100B5000E8E5EC0FE73150F4F0E0EE0FFF1FEF5D3A
:100B6000FE4F80819181CF910C94DA19CD3E30F007
:100B70008C2F0E940D15CF910C94E015CF91089504
:100B8000882309F452C0823871F40E94901981FFC1
:100B90004CC089E30E942F0E0E94A40E89E30E949C
:100BA000360E0C94A40E833859F40E94901980FFDD
:100BB0003CC083E50E942F0E0E94A40E83E5EFCF78
:100BC000843859F40E94901982FF2FC087E40E9454
:100BD0002F0E0E94A40E87E4E2CF9CEF980F913A6B
:100BE000F0F290E2980F983050F4877091E001C0D5
:100BF000990F8A95EAF7892F0E945D0ED2CF9BE567
:100C0000980F933020F490E080E00C94C41998E59C
:100C1000980F973120F490E080E00C94DA198D3E23
:100C200020F00E9467150C94E01508951F93CF9350
:100C3000DF93182FEB010E942E05209731F4812FAE
:100C4000DF91CF911F910C94C0058FE99FE0019730
:100C5000F1F700C000002197F0CF70E060E0893329
:100C600011F460E570E00C941606882321F00E94D0
:100C7000570E0C94A40E0895882321F00E945D0E57
:100C80000C94A40E0895BF92CF92DF92EF92FF9240
:100C90000F931F93CF93DF936C01D62FC72FFC01C7
:100CA0001281F580F2949FE0F9220E944D0EE82E09
:100CB0008823B9F0E12E1123A1F08C2F807F80349E
:100CC00021F080E28D0F8830B0F080918F0282FD9C
:100CD00012C082E00E94F50E0E944D0E91E0E82EB7
:100CE000E926BC2EB2948FE0B822EB2DF0E0E45858
:100CF000FB4D0C941124E12CF4CF0C2F0F70C07F0E
:100D000011F00295007F112399F0002359F080E241
:100D10008D0F883010F0D11107C0802F0E94570E20
:100D20000E94A40E8D2F41C0802F0E94670EF8CF25
:100D30008D2F0E94C005002309F43FC080E28D0F73
:100D4000883010F0D11104C0802F0E945D0E03C0C6
:100D5000802F0E946D0E0E94A40E2FC00C2F0F70CA
:100D6000C07FC03211F00295007FDD2381F0D130C9
:100D700009F469C0112309F473C0FF2009F469C0A4
:100D8000F601858180FFCECF8F70858362C0809110
:100D90008F0282FF38C0112359F0002329F0802FE1
:100DA0000E94570E0E94A40E80E00E942E0505C0EE
:100DB00080E00E94C0050111C7CFEB2DE850FF0B6A
:100DC000349720F40E9490190E94E304EE2009F465
:100DD00082C10E94490E80FD7EC1F60112820E94EE
:100DE000430E0E948909C6010E948C080E94430E8E
:100DF000DF91CF911F910F91FF90EF90DF90CF90F7
:100E0000BF900C94AA09112389F0F11006C00E942A
:100E1000870E802B0E943506D0CFF1E0FF12F7CF6E
:100E20000E94870E802B0E948D0EC7CFF11006C046
:100E30000E949A0E802F0E943C06BFCF21E0F2163E
:100E400009F4BBCFF5CF112331F035E03F1508F49D
:100E5000B4CF802FDFCF84E08F1508F4AECFEACF78
:100E6000FF2041F3D93349F4FFEF27EE33E0F1508F
:100E700020403040E1F700C000008D2F0E94C005E7
:100E80009CCF8C2F86958695837069F0813009F010
:100E900094CF8D2F9C2F9370111102C090E080E0B1
:100EA0000E94DA198ACF8D2F9C2F9370111102C0E6
:100EB00090E080E00E94C41980CF8D2F112329F08B
:100EC0000E940D150E94E01578CF0E946715FACF99
:100ED0008C2F837009F041C011116FCF4D2F4295B7
:100EE00046954770440F440F0D2F0F7010E030E00F
:100EF00020E0042E04C0000F111F221F331F0A948C
:100F0000D2F760E070E0CB01D4FF0FC06FE070E07B
:100F100080E090E004C0660F771F881F991F4A95F4
:100F2000D2F76095709580959095C695C695C370DB
:100F3000602B712B822B932BC23049F058F4C130B7
:100F400019F00E943B0939CF0E94290936CF0E942F
:100F50004D0933CF0E94270930CF8695112311F018
:100F60008C2F8170882309F428CF4D2F4295469508
:100F70004770440F440F0D2F0F7010E030E020E059
:100F8000042E04C0000F111F221F331F0A94D2F732
:100F900060E070E0CB01D4FF0FC06FE070E080E054
:100FA00090E004C0660F771F881F991F4A95D2F7FB
:100FB0006095709580959095C695C695C370602B89
:100FC000712B822B932BC23049F058F4C13019F0A9
:100FD0000E94000AF2CE0E94EE09EFCE0E94120A91
:100FE000ECCE0E946309E9CECF70112329F08C2F3B
:100FF0000E9489098D2F0ECF8D2F0E943C068C2FC9
:101000000E94AA09DACED23F51F160F4D03FB9F084
:10101000D13F81F0112309F449C0F11083CE8C2F08
:101020008F7121C0D33F11F1D43FA1F780918F027E
:1010300082FF26C08C2F8F71112311F314C011234E
:1010400049F084E08F1508F4B8CE8C2F8F710E9480
:10105000CD09B3CE95E09F1508F4AFCEF6CF8C2F17
:101060008F711111CDCF0E948909A7CE112329F0CC
:101070008C2F8F710E947409A0CE0E946F099DCEA3
:10108000112349F0CF718C2F0E94890963E08C2FC6
:101090000E94DA0E92CE81E00E94F50EE1E0EF159B
:1010A00008F08BCE82E00E94F50E87CEF110DACEEA
:1010B0008C2F8F71A5CF4C2F4F706D2FC6010E94C2
:1010C000E8100E94E90A79CE4C2F4F706D2FC601AF
:1010D0000E94EB1072CEDF91CF911F910F91FF9084
:1010E000EF90DF90CF90BF9008950F931F93CF9311
:1010F000DF93EC01688179818A810E94C50A8C01A5
:101100000E94240A0E942609B801CE01DF91CF91E6
:101110001F910F910C944306CF93DF93EC018B81C9
:101120009C81892B29F08881998189238F3F59F4EB
:10113000DF91CF910895CE010E947508CE01DF9115
:10114000CF910C940D04CE010E9434048111F3CF91
:101150000E944D0E882361F38A81882349F3809190
:101160008F0282FDE5CF82E0DF91CF910C94F50EE6
:1011700090E080E00E94C41990E080E00E94DA19BB
:101180000E94740E0E94840E0E94A40E0E940717F3
:101190000C94E0150E943D0E0C94B8080E94640E59
:1011A0000C94CA08E92FE295EF70E250EE3070F42B
:1011B000F0E0E457FB4D0C941124803F19F020F42B
:1011C000883E20F481E00895843FE1F380E00895B3
:1011D000883EC0F3813FD1F7F5CF93FB882780F994
:1011E0000895FC01808191810E94BB0A0C94D20871
:1011F000CF93DF9300D000D00F92CDB7DEB70F9022
:101200000F900F900F900F90DF91CF910895CF9393
:10121000DF9300D000D000D0CDB7DEB726960FB652
:10122000F894DEBF0FBECDBFDF91CF910895089532
:101230000C9417090E9418096093D3017093D4018C
:101240008093D5019093D6010C94B80808950C941E
:101250001A090F931F930091D3011091D40120918B
:10126000D5013091D601602B712B822B932B1F91CE
:101270000F910C941A090F931F930091D3011091B1
:10128000D4012091D5013091D601602371238223AE
:1012900093231F910F910C941A090F931F930091A0
:1012A000D3011091D4012091D5013091D60160274E
:1012B0007127822793271F910F910C941A090C9480
:1012C00017090C945F090E9461096093CF01709324
:1012D000D0018093D1019093D2010C94B80860E0C2
:1012E00070E0CB010C9463090F931F9341E050E031
:1012F00060E070E08A019B0104C0000F111F221FF3
:10130000331F8A95D2F7C901B8011F910F910C9430
:1013100063090F931F9341E050E060E070E004C068
:10132000440F551F661F771F8A95D2F78091CF0112
:101330009091D001A091D101B091D2018A019B017D
:10134000082B192B2A2B3B2BC901B8011F910F9198
:101350000C9463090F931F9341E050E060E070E04C
:1013600004C0440F551F661F771F8A95D2F7CB0123
:10137000BA0160957095809590950091CF0110917C
:10138000D0012091D1013091D201602371238223B9
:1013900093231F910F910C9463090F931F9341E0C6
:1013A00050E060E070E004C0440F551F661F771FD7
:1013B0008A95D2F78091CF019091D001A091D1016F
:1013C000B091D2018A019B01082719272A273B27C0
:1013D000C901B8011F910F910C9463090F931F93DA
:1013E0000091CF011091D0012091D1013091D20113
:1013F000602B712B822B932B1F910F910C946309FF
:101400000F931F930091CF011091D0012091D10132
:101410003091D20160237123822393231F910F9176
:101420000C9463090F931F930091CF011091D00189
:101430002091D1013091D201602771278227932713
:101440001F910F910C94630908952DE0929F800DD8
:101450001124982F977041E001C0440F9A95EAF744
:1014600086958695869595E0899FF0011124E4552F
:10147000FE4F90E080E070E05191DF0111979B01F9
:10148000082E02C0369527950A94E2F7217021951F
:101490002527242325272C9301968530910561F774
:1014A00008952DE0929F800D1124982F97708695B6
:1014B0008695869525E0829FF0011124E455FE4F24
:1014C00050E040E080E0219130E0092E02C03695E6
:1014D00027950A94E2F721703327042E01C0220FCA
:1014E0000A94EAF7822B4F5F5F4F4530510559F759
:1014F0000895BF92CF92DF92EF92FF920F931F93C6
:10150000CF93DF938C01C090CF01D090D001E090B9
:10151000D101F090D2018091D3019091D401A0919A
:10152000D501B091D601C82AD92AEA2AFB2ACFE1EF
:10153000D0E0BC2ED701C6010C2E04C0B695A795ED
:10154000979587950A94D2F780FD0EC0219788F76A
:10155000B12C8B2DDF91CF911F910F91FF90EF90C8
:10156000DF90CF90BF900895B8018C2F0E941B127E
:10157000019761F3EECFCF93DF93EC010E94790ADC
:10158000BE01DF91CF910C941B121F93CF93DF9379
:10159000EB019091AB01992331F0CB01DF91CF9119
:1015A0001F910C94BB0A882379F0CB010E94790A21
:1015B000182F682FCE010E94250ABE01812FDF91CE
:1015C000CF911F910C941B12CB010E94510A182F2E
:1015D000F4CFEF92FF920F931F93CF93DF938C0181
:1015E000892B81F0F12CEE24E394E8012196F80197
:1015F0008491843770F4843008F05FC08130B1F09A
:101600008230A1F1DF91CF911F910F91FF90EF9068
:101610000895853709F44CC008F43DC09CE7980F45
:10162000903780F78F770E94C00549C00E5F1F4F2B
:10163000FE01849190E2980F983060F48770FE2D3F
:1016400001C0FF0F8A95EAF78F2F0E94770E0E9444
:10165000A40E02C00E942E058F2D815030F2EFE9BA
:10166000FFE03197F1F700C00000F7CF0E5F1F4F8A
:10167000FE01849190E2980F983050F48770FE2D0F
:1016800001C0FF0F8A95EAF78F2F0E947D0EDFCFF2
:101690000E94C005E1CF0E5F1F4FFE01C491C150F3
:1016A000D8F28FE99FE00197F1F700C00000F7CF73
:1016B0000E5F1F4FFE01F490CFCF0E942E058E01CA
:1016C000CBCF1F93CF93DF93C091D70116E08091CA
:1016D000D8018C1304C0DF91CF911F910895D0E001
:1016E0001C9FF0011D9FF00D1124E752FE4F408119
:1016F000518162817381848195810E9407092196BD
:10170000C770E5CF4091090250910A0260910B0227
:1017100070910C0280910D0290910E020C940709B9
:10172000FF920F931F93CF93DF9380910E02807FE0
:10173000D1F480910B028823B1F08091D7011091F0
:10174000D8016091090270910A02A0910C02B09137
:101750000D02062F0723C0910801D091090196E0E0
:10176000F92E181306C0DF91CF911F910F91FF90B2
:10177000089590E0109711F00F3F19F401968770CB
:10178000F0CFF89E9001F99E300D1124F901E75237
:10179000FE4F41814713F2CF40814613EFCF428184
:1017A0004111ECCF438154814A1B5B0B4C175D0701
:1017B00028F780910E028F70806180930E02F901EC
:1017C000E252FE4F80818F708061808389E092E0D9
:1017D0000E948C08DF91CF911F910F91FF900C9484
:1017E000610BAF92BF92CF92DF92EF92FF920F9375
:1017F0001F93CF93DF93CDB7DEB761970FB6F89401
:10180000DEBF0FBECDBF8C0185E0F801DE011D9665
:1018100001900D928A95E1F7F801E28089E0C82EE7
:1018200082E0D82E60910C0270910D026115710555
:1018300009F45FC19091090220910A02892F822345
:101840008F3F09F456C140815181A380B480F0904C
:101850000B02F501E61BF70BBF01E0910801F091C7
:101860000901FF2009F4F6C080910E02382F307F65
:101870006E177F0708F0AFC0311179C0FE2C251319
:1018800023C0941321C0E1101FC08F70806180932A
:101890000E020E94820BC6010E948C0880910E02EB
:1018A000F80185838F2D61960FB6F894DEBF0FBEC9
:1018B000CDBFDF91CF911F910F91FF90EF90DF90FF
:1018C000CF90BF90AF900895AB2829F0842F852347
:1018D0008F3F09F027C180E0F82FF170DF2E80FFE5
:1018E0003CC08091D7012091D80136E0821315C009
:1018F0004D875E878D859E850E94BB0A292F229584
:101900002F702230F0F0243018F59F70F1F0F801BC
:101910009581907FD1F4D12C1EC090E0389FF001CA
:10192000399FF00D1124E752FE4F6181651306C007
:101930006081641303C062816E110FC001968770CD
:10194000D5CF9F7011F0882331F3805E883018F373
:10195000C8010E948C08FD2CA5CFEE2009F4A2CF6F
:1019600080910E02816080930E02F12C9BCF251393
:1019700006C0941304C0F801EE2009F487C0C80122
:101980000E94F108882319F1EE2009F180910E02DE
:10199000803270F02091090230910A0238872F833B
:1019A0001986BB86AA868C87CE0107960E948C0872
:1019B00086E0F801A9E0B2E001900D928A95E1F786
:1019C0000E94900B0E94820BFF24F3946BCFC801FE
:1019D0000E948C08F9CF311113C07A2DB98AA88AD8
:1019E0006E2D89890E94F80889E092E00E948C0897
:1019F00086E0F60111928A95E9F70E94820BB5CF35
:101A000025130FC094130DC0E1100BC0F80185839E
:101A1000C8010E948C0886E0F60111928A95E9F7C8
:101A200041CFC8010E94F108882389F2EE2079F2A3
:101A300080910E02803208F4BBCF209109023091D0
:101A40000A023A8329831B82BD82AC828E83CE0137
:101A50000196ACCF6E177F0708F03EC0FE2CEE203B
:101A600009F4B5CF25132AC0941328C080910E0223
:101A700080FD1BC0982F907FC1F0F8018583903FB7
:101A800031F0982F907F905F8F70892B8583C801EC
:101A90000E948C0886E0F801A9E0B2E001900D9266
:101AA0008A95E1F70E94820BFDCE86E0F801A9E05D
:101AB000B2E001900D928A95E1F7F4CEC8010E9440
:101AC000F108811175CF80910E02816080930E0222
:101AD000C8010E948C08E6CE7A2DB98AA88A6E2D9C
:101AE00089890E94F80886E0F60111928A95E9F743
:101AF000D9CFEE2009F46BCFC8010E94F108F82E6F
:101B0000882309F464CF86E0F801A9E0B2E00190EF
:101B10000D928A95E1F789E092E00E9429050E94E2
:101B2000900BC0CF81E08E25D7CE1F93CF93DF934C
:101B3000CDB7DEB72C970FB6F894DEBF0FBECDBF82
:101B40004F83588769877A878B879C87CE01079652
:101B50000E94F10B882369F08A859B85892B39F0D7
:101B60004F815885842F85238F3F09F071C016E07F
:101B70005FC086E0FE013796DE01119601900D925E
:101B80008A95E1F78A859B85892B89F38F819885D2
:101B900089238F3F61F32091D80130E0C90101967C
:101BA000877099274091D7014817190671F40E9450
:101BB000CE081092D8011092D70186E0E9E0F2E059
:101BC000DF011D928A95E9F7D2CF96E0929FD0016E
:101BD000939FB00D1124A752BE4FFE013196019084
:101BE0000D929A95E1F78093D8010E94610BBFCFC7
:101BF000819FC001112487529E4F0E94F10B8823C0
:101C0000E9F0E091D7011E9FF0011124E752FE4F49
:101C10004081518162817381848195810E9407098D
:101C20008091D70190E00196877099278093D70122
:101C30008091D7019091D8018913DACF2C960FB6F5
:101C4000F894DEBF0FBECDBFDF91CF911F910895F5
:101C500069857A858B859C850E94070988CF682FC6
:101C600080910A0190910B010C94841A682F809145
:101C70000A0190910B010C948F1A80910A019091A6
:101C80000B010C949A1A80910F0285958595859584
:101C9000089580910F028770089590910F029770B8
:101CA00081E009F480E008958091330208959091D5
:101CB0003302892B809333020895809590913302EB
:101CC00098239093330208951092330208959091CF
:101CD0003202892B809332020895809590913202CE
:101CE00098239093320208951092320208959091B1
:101CF0003102892B809331020895809590913102B1
:101D000098239093310208951092310208958091A2
:101D10001002089508950C948A0E90918F0292FDFE
:101D200008C090911002981721F0809310020C9433
:101D30008B0E089580911002882329F010921002D2
:101D400080E00C948B0E0895E0910A01F0910B0154
:101D5000809133028083E0910A01F0910B01808130
:101D600090913202892B8083E0910A01F0910B015E
:101D7000808190913102892B808390911002992368
:101D800081F0E0910A01F0910B018081892B808321
:101D900080910A0190910B010E94F01981110E941B
:101DA0009A0E80910A0190910B010C949C19089550
:101DB0000C94D70E90918F0292FD10C098E0899FED
:101DC00090011124622B60930F020E948909809177
:101DD0000F028595859585950C94D80E0C948909EC
:101DE00010920F0280E00C94D80E90910F02809513
:101DF000892380930F02282F277091F4282F082E13
:101E0000000C330B9217130659F090918F0292FD3C
:101E100007C08595859585950E94AA090C94F00EBA
:101E2000089590918F0292FB222720F9281769F0DC
:101E300080FB92F990938F0280918E0290918F0295
:101E40000E94560F82E00C94F50E089580918F0247
:101E500082FB882780F991E089270C94110F81E09B
:101E60000C94110F80E00C94110F90E080E00E9420
:101E7000402421E0893E9E4F09F020E0822F089502
:101E800082E090E00C94382483E090E00C943824B5
:101E9000CF9384E090E00E943824C82F82E290E043
:101EA0000E943824982F8C2FCF910895CF93C92F5B
:101EB000682F84E090E00E9446246C2F82E290E03C
:101EC000CF910C944624AB01BC018FE090E00C94C0
:101ED0005824AB01BC0183E190E00C94582460E0ED
:101EE00070E0CB010C94690F60E070E0CB010E94C0
:101EF000630F0C946F0F69EE7EEF90E080E00E941C
:101F0000642460E082E090E00E94462460E083E088
:101F100090E00E9446241092D3011092D4011092B6
:101F2000D5011092D60160E084E090E00E94462442
:101F300060E082E290E00E94462460E085E090E06C
:101F40000E94462460E086E090E00E9446246FEF05
:101F500087E090E00E94462440E050E0BA0188E02B
:101F600090E00E94582460E08DE090E00E944624BA
:101F700040E050E0BA0188E190E00E94582460E01F
:101F800087E190E00E94462440E050E0BA018CE1F5
:101F900090E00E94582470E060E080E290E00E94AF
:101FA000642440E050E0BA0188E190E00E945824A7
:101FB0000C94740F0C947B0F682F8EE090E00C94BF
:101FC00046240E94491B6093450270934602809309
:101FD00047029093480260934102709342028093BB
:101FE00043029093440208950E94491B6093450266
:101FF00070934602809347029093480260933D029B
:1020000070933E0280933F0290934002089585B7FB
:10201000806885BF85B7806885BF08950895089555
:102020000C940E1008950C9412100E94071089EF62
:1020300092E10E9486190E940F100C94101081E00A
:1020400008950C941F10089508950E9423100C9475
:1020500024100E94341B0E94D7130E9441180C9434
:1020600013108F929F92AF92BF92CF92DF92EF9216
:10207000FF920F931F93CF93DF93CDB7DEB72A97CD
:102080000FB6F894DEBF0FBECDBF0E94EC138111D6
:102090000E94E10F55E3852E52E0952E10E000E0FE
:1020A000A02E802F0E9422136C01F401E190F19088
:1020B0004F01E816F90609F461C08091490281FDDB
:1020C0000E942B13C7018C259D25B12CEE24E3948F
:1020D000F12C9C012E213F21232B09F449C00E94A1
:1020E00021108823A9F0BE82AF82CE20DF2081E0BC
:1020F000CD2809F480E088870E943D1B8160782FFD
:102100009A8789874E815F8168858A850E94EB0462
:10211000000F111FF801EB5CFD4F80819181E826D3
:10212000F926F182E0820E94541881110E94F40F76
:102130000E94FB150E949019909134028917A9F111
:102140000E949019809334022A960FB6F894DEBF4D
:102150000FBECDBFDF91CF911F910F91FF90EF90F8
:10216000DF90CF90BF90AF909F908F900C94E3043E
:10217000B394EE0CFF1CFDE0BF12ABCF0F5F1F4FFF
:102180000430110509F08CCF8FEF89838A831B827D
:102190000E943D1B8160782F9D838C8349815A81E9
:1021A0006B818D810E94EB04BECF2A960FB6F89406
:1021B000DEBF0FBECDBFDF91CF911F910F91FF907A
:1021C000EF90DF90CF90BF90AF909F908F90089549
:1021D00090E080E008950895972F70E02DE0929FA1
:1021E000600D711D1124FB0194E3899FE00DF11D29
:1021F0001124EE0FFF1FE455FF4F85919491089530
:10220000FC01EE0FFF1FEC51FE4F85919491089554
:10221000CF93DF930E941F12EC01811520E59207F6
:1022200008F042C0811530E4930708F0BDC0883E35
:10223000910528F5803E910508F09DC0883A9105EA
:1022400088F4853A910508F08FC08130910509F432
:1022500092C0009709F48FC0049708F08CC0D0E0BA
:10226000C0E089C08F3B910508F489C0805C91096A
:10227000C03CD105A0F30E940011EC017CC0811587
:10228000904250F4C11581E0D80708F074C0CD3EEB
:10229000D10528F3D0656FC0C11590E3D90708F0C8
:1022A00079C0CE019F70E7CF811525E5920758F5DB
:1022B000811534E5930708F0A6C0811542E594071F
:1022C00050F4C11581E5D80708F471C0DC2FCC2784
:1022D000C16FD06A50C0982F969596959E01237035
:1022E0003327C115D34508F07FC0C1E0D0E002C05C
:1022F000CC0FDD1F2A95E2F720E2929FC001112446
:10230000C82BD92B6FC0C11589E5D807A8F4C11512
:1023100098E5D90708F07CC0C11526E5D20708F07A
:102320009ECF8C2F0E94B612C82FD0E0DC2FCC2776
:10233000CC27DF71D0621FC0C1153AE5D30708F47E
:102340006CC0CE0190568115904208F088CF8D2F39
:102350008F710E94B61290E0982F882788279F716E
:102360009C012C2BE901E6CFC55AD0E0C058DE4FC6
:10237000C881D0E0D064CE01DF91CF910895C85AD2
:10238000D0E0CC0FDD1FCE5ADE4F0990D881C02D92
:10239000D464F1CFCE019927D3FF03C0EC01D86CF0
:1023A000EACFEC01D06CE7CFDF70D06AE4CFCE018A
:1023B000E4E096958795EA95E1F783702C2F2695B2
:1023C0002695237090E2299F90011124382B8C2FA1
:1023D0008370C1E0D0E002C0CC0FDD1F8A95E2F728
:1023E000C22BD32BDC68C7CFC1E0D0E002C0CC0F3A
:1023F000DD1F2A95E2F730E2939FC0011124C82B1C
:10240000D92BDA68B8CFD82FCC27C46FD06AB3CF16
:10241000DC2FCC27C06FD06AAECF8C2F8F700E947C
:10242000B61234E0D695C7953A95E1F7CF709C2F58
:10243000EC01D069A0CF0E94EC100C9408118238F6
:102440009105B1F1B0F48133910509F475C048F4F8
:102450008932910509F469C08A32910509F473C083
:1024600008958533910509F459C08933910501F127
:102470000895833E9105A9F138F4803E9105F9F065
:10248000823E910549F10895863E9105A9F1873E66
:102490009105C9F1843E910519F520918F0221FF24
:1024A0001FC080918E0284FD14C087EE90E00895D5
:1024B00020918E022370A1F080EE90E0089520918B
:1024C0008E0220FD47C030918F0230FF09C024FFEB
:1024D00044C090E080E004C020918E0222FDF7CF3E
:1024E000089520918E0222FD3BC030918F0230FD75
:1024F000E3CF24FFF5CFEDCF20918E0223FFF0CF65
:1025000024FDE7CFD2CF20918E0223FD2CC0309145
:102510008F0231FFEECF84EE90E0089520918E027D
:1025200025FFDECF89E290E0089520918E0225FFFD
:10253000D7CF85E390E0089520918E0226FFD0CF7B
:102540008AE290E0089520918E0226FFC9CF81E3B0
:1025500090E0089589E390E0089583EE90E0089577
:1025600082EE90E0089586EE90E0089590918E02BC
:1025700092FF06C0282F28712830F9F4877F8460E5
:1025800093FF06C0282F28712831F1F4877E8461DB
:1025900020918F0220FF06C0382F38713830D9F4CF
:1025A000877F816021FF06C0282F28712831D1F450
:1025B000877E816194FD877E0895282F24712430C1
:1025C000F9F68B7F8860DCCF282F2471243101F746
:1025D0008B7E8861DDCF382F3171313019F78E7FD6
:1025E0008860E0CF282F2171213121F78E7E88610C
:1025F000E1CF80E0089508950E94350F811102C057
:102600000E94DA0F0E94400F809349020E94480FF7
:1026100090938F0280938E020E94FB120E94440FBF
:10262000682F70E090E080E00E9427096091CF0160
:102630007091D0018091D1019091D2010C946109E7
:102640000C945602E82FF0E0EE0FFF1FE856FD4F06
:10265000808191810895089580EA8A95F1F708951F
:1026600000C008950C942C13F894E82FE295EF70B5
:10267000F0E031A1282F2F7081E090E001C0880F99
:102680002A95EAF7982F9095932391A392A1892BED
:1026900082A378940895CF93DF9384EF0E9434133C
:1026A00085EF0E94341385E90E94341383E90E9468
:1026B0003413C3E8D1E089918F3F11F00E943413A5
:1026C00081E0C039D807B9F7DF91CF910895AF9273
:1026D000BF92DF92EF92FF920F931F93CF93DF93FE
:1026E0008C01D62EC62FD0E0CE0180579E4F7C01A4
:1026F000FC0120812F3F09F44DC0F894E22FE295B0
:10270000EF70F0E031A12F7081E090E001C0880F00
:102710002A95EAF7932F982B91A392A1809589236C
:1027200082A378940E943013E3E8F1E040E951E09D
:1027300021E030E0B12CA12C61916F3FA9F1A62FCF
:10274000A295AF70B0E090968C9190E06F7002C04F
:10275000959587956A95E2F780FD26C0C901A82A5C
:10276000B92A220F331F4E175F0731F7F701808117
:102770008F3F11F00E94341361E0A114B10409F4F9
:1027800060E08D2D0E943213CC0FDD1FC00FD11FD2
:10279000B982A882DF91CF911F910F91FF90EF90A6
:1027A000DF90BF90AF90089590E080E0D8CF0E9476
:1027B0004B1388E0E8E9F2E0DF01982F1D929A952B
:1027C000E9F7E0E9F2E0DF011D928A95E9F784E09C
:1027D0000E9437140C941804FF920F931F93CF9309
:1027E000DF93CDB7DEB728970FB6F894DEBF0FBEE4
:1027F000CDBF8E010F5F1F4F88E0F80111928A95BF
:10280000E9F7F12C6F2DC8010E946713F394F4E0EF
:10281000FF12F8CF48E050E0B80180E992E00E9452
:102820002B24FF24F394009709F4F12C892B41F019
:1028300088E0F801A0E9B2E001900D928A95E1F7F5
:102840002F2D44E068E972E080E992E00E9438149C
:102850000E941E048F2D28960FB6F894DEBF0FBE7F
:10286000CDBFDF91CF911F910F91FF9008950895F3
:10287000FF920F931F93CF93DF93F82E092F162FFC
:10288000D72FC42F222349F081E080934C020E946D
:102890003D1B90934B0280934A0280914C02882307
:1028A000A1F080914A0290914B020E94551B05971E
:1028B00060F0EF2DF02FA12FBD2F90E080E0D0E051
:1028C0008C179D0744F010924C02DF91CF911F911D
:1028D0000F91FF900895219131912D933D93019691
:1028E000EFCF0E944E1D0E9429100C945A1D0E9489
:1028F0005E1D0E9431100C94781D0E94C61A0E9421
:10290000351D0E9415100E9471140E9477140E94B8
:102910002510FBCF8091530280FF12C060911101FE
:1029200085E0689FB0011124759567957595679549
:1029300060387105A8F561157105A1F1862F08951C
:1029400081FF09C06091110185E0689FB0011124E9
:1029500075956795EDCF6091110182FD0AC0809158
:1029600052028823D1F090911001609111018917D2
:1029700028F085E0689FB0011124DACF869FB0016E
:10298000112485E0869F9001879F300D1124692FC7
:1029900070E0C9010E94FD23CBCF65E070E0CECF8F
:1029A0008FE7089581E008958091530280FF0CC065
:1029B00060910D0170E07595679575956795611546
:1029C000710549F1862F089581FF06C060910D01C0
:1029D00070E075956795F3CF60910D0182FD0BC096
:1029E000909151029923A1F060910C0180910D0109
:1029F000961738F0682F70E06038710500F38FE7A4
:102A00000895899FC001112470E00E94FD23F4CF36
:102A100061E070E0D7CF81E008958D3E31F40E94EF
:102A20008A1481958093570208958E3E19F40E946E
:102A30008A14F8CF8F3E31F40E948A1481958093D6
:102A400056020895803F19F40E948A14F8CF893FF6
:102A500029F40E94D4148093580208958A3F21F4E7
:102A60000E94D4148195F7CF8B3F31F40E94D41487
:102A700081958093590208958C3F19F40E94D414D3
:102A8000F8CF9FE0980F983070F4815F990B21E0A8
:102A900030E001C0220F8A95EAF780915502822B1F
:102AA0008093550208958D3F31F4809153028160E7
:102AB0008093530208958E3F21F4809153028260E7
:102AC000F7CF8F3FB9F7809153028460F1CF4091E7
:102AD00056028D3E59F48091570287FF0DC0109227
:102AE000570241110BC01092520208C08E3E81F471
:102AF0008091570218169CF3442381F0809158026C
:102B000090915902892B09F05AC0109251020895F0
:102B10008F3E49F447FFF0CF109256028091570242
:102B20008111ECCFE0CF803F19F41416ACF3E4CF61
:102B300090915802893F29F41916F4F61092580220
:102B4000DBCF8A3F19F497FFD7CFF8CF9091590286
:102B50008B3F29F497FFD0CF10925902CDCF8C3FF5
:102B600019F41916CCF3C8CF9FE0980F983090F461
:102B7000815F990B21E030E0B90102C0660F771F39
:102B80008A95E2F7CB018095909155028923809335
:102B90005502B2CF8D3F31F4809153028E7F8093E6
:102BA0005302AACF8E3F21F4809153028D7FF7CF3D
:102BB0008F3F09F0A1CF809153028B7FF0CF089512
:102BC0000E943D1B9C019091560280915702982BC8
:102BD00021F03093500220934F029091580280913F
:102BE0005902982B21F030934E0220934D0284E538
:102BF00092E00C94B619EF92FF920F931F93CF932C
:102C0000DF9300D000D000D0CDB7DEB786E0E4E59A
:102C1000F2E0DE01119601900D928A95E1F7E090C5
:102C20005602F090570200915802109159021092EA
:102C300056021092570210925802109259028E2D8D
:102C40008F2991F080914F02909150020E94551B64
:102C5000AC0190915202992309F43FC08091120176
:102C60008417150608F447C0802F812B91F08091BE
:102C70004D0290914E020E94551BAC019091510261
:102C8000992309F477C080910E018417150608F482
:102C90007FC08091560290915702892B90915802E3
:102CA000892B90915902892B11F00E94E01586E042
:102CB000FE013196A4E5B2E001900D928A95E1F70C
:102CC00026960FB6F894DEBF0FBECDBFDF91CF9131
:102CD0001F910F91FF90EF900895209113018AE0CA
:102CE000289F900111242417350708F0BDCF9F5F5E
:102CF0009093520202C09F3FD1F7EE2059F00E94FC
:102D00008A149FEF1E140CF491E0899F802D1124EA
:102D100080935602FF2059F00E948A149FEF1F14DF
:102D20000CF491E0899F802D1124809357023091FB
:102D30005602332309F498CF20915702222309F435
:102D400093CF45EB3403C0011124992359F090939C
:102D5000560245EB240390011124332339F03093BC
:102D6000570282CF81E080935602F3CF81E08093B7
:102D700057027ACF20910F018AE0289F90011124F9
:102D80002417350708F085CF9F5F9093510202C04A
:102D90009F3FD1F7002359F00E94D4149FEF1016E3
:102DA0000CF491E0899F802D112480935802112307
:102DB00059F00E94D4149FEF11160CF491E0899FF2
:102DC000802D11248093590230915802332309F445
:102DD00060CF20915902222309F45BCF45EB3403E5
:102DE000C0011124992359F09093580245EB240314
:102DF00090011124332339F0309359024ACF81E0F6
:102E000080935802F3CF81E08093590242CF86E04D
:102E1000E4E5F2E0DF011D928A95E9F71092520293
:102E200010925102109253020895CF93DF93EC0158
:102E3000FB018281882309F420C1C430FDE5DF074E
:102E4000C8F5CB3F9CE5D90730F49E0122503C45A4
:102E50002431310598F50E94480F90938F0280939A
:102E60008E02C031FCE5DF0709F4E0C008F061C064
:102E7000C8309CE5D90709F4CBC088F5C430FCE51F
:102E8000DF0709F4B3C0E8F4C2309CE5D90709F4C0
:102E9000A7C080918E028260C330DC4509F4A3C0D4
:102EA00080918E0290918F020E94560F0E94CE0850
:102EB00080E004C0C236EDE5DE0769F2DF91CF9114
:102EC000089580918E028061C630FCE5DF0709F429
:102ED0008AC008F48FC080918E02806284C0809185
:102EE0008E028D7FCC309CE5D90709F47CC070F44C
:102EF00080918E028C60CA30FCE5DF0709F473C054
:102F000008F48AC080918E028E7F6DC080918E02FF
:102F1000877FCE309CE5D90709F465C080918E0289
:102F20008B7FCF30DC4508F45EC080918E028F7EAF
:102F30005AC0CD3FFCE5DF0709F474C040F5C43149
:102F40009CE5D90709F48AC058F4C231FCE5DF07D3
:102F500009F474C008F46EC080918E02837F43C070
:102F6000CB3F9CE5D90709F449C008F04DC0C531F5
:102F7000DC4509F095CF80918E0282FB992790F96C
:102F800021E0922790FB82F990FB83F92CC0C1309D
:102F90008DE5D80709F458C088F480918F028360CA
:102FA000CF3FECE5DE0769F180918F028D7FC1157F
:102FB000DD4538F180918F028C7F23C0C3308DE5D1
:102FC000D80709F458C008F452C0C236DD4509F0EC
:102FD00067CF90918E02892F8F7E94FF806103C00E
:102FE00080918E02816080938E025ACF80918E02F2
:102FF0008460F9CF80918E028860F5CF80918F0236
:10300000816080938F024CCF80918F028260F9CFD4
:1030100080918E028064E7CF0E94CE0880918E025C
:103020008068E1CF80918F028E7FEBCF80918E02FE
:103030008F7DD9CF80918E028F7BD5CF0E94CE0815
:1030400080918E028F77CFCF80918F02982F9095AD
:1030500091708E7F892B90FB81F9D3CF0E94CE088F
:1030600090918E02892F97FB87F98058BCCF81E021
:103070000E94DC0F15CF80E0FBCF81E01FCF0C94C6
:10308000920387988F9A86988E9A8FB190E0880FD6
:10309000892F881F990B7E9905C020E0822B809391
:1030A0005C02089522E0FACFE0915C02EE0FEE0F91
:1030B000E0935C028FB190E0880F892F881F990BF5
:1030C0004FB146FB222720F946FF02C022E030E044
:1030D000822BE82BE0935C02EF70F0E0EC56FE4FA1
:1030E000808190915B02890F80935B0220E08430A5
:1030F00054F080915A028F5F80935A0260E080E022
:103100000E943F1821E080915B028D3F54F4809132
:103110005A02815080935A0261E080E00E943F1879
:1031200021E080915B02082E000C990B64E070E0B6
:103130000E94FD2380935B02822F0895CF93DF933B
:10314000EB0186319C4511F50E94540E9A8199231A
:1031500099F08A7A91E009F490E090935D028111F0
:1031600009C089E20E942F0E0E94A40E80E0DF9128
:10317000CF91089585E3F6CF80915D02811104C05F
:1031800089E20E94360EF0CF85E3FBCF81E0EFCFDE
:103190000F931F93CF93DF93C42FD22FFC01828113
:1031A0008823C9F0409360020E943D1B90935F0208
:1031B00080935E0280E28C0F883008F050C0C770A8
:1031C00081E001C0880FCA95EAF7DF91CF911F9186
:1031D0000F910C94350610916002141335C0809144
:1031E0005E0290915F020E94551B883C910560F53C
:1031F000C0E2CD0F1D17B9F080E2810F883040F496
:10320000177081E001C0880F1A95EAF70E943C060A
:10321000C83048F481E09D2F977001C0880F9A95BF
:10322000EAF70E943506802F0E942D06C830B8F4B8
:10323000D77081E001C0880FDA95EAF7DF91CF916E
:103240001F910F910C943C0680E28C0F883038F46B
:10325000C77081E001C0880FCA95EAF7EFCFDF9110
:10326000CF911F910F9108950F939C01CB01243FA3
:103270004CE5340759F1A8F4293DFCE53F0701F17D
:103280002A3D4CE53407D1F1283D3C4591F406E256
:1032900021EE41EE68ED7CE50E94C81880E00F91B8
:1032A0000895263FFCE53F07E9F0B0F0273F3C4595
:1032B000F9F0FC018281882339F110926002EFCF8E
:1032C00007E225EE45EE69ED7CE5E6CF06E221EE6C
:1032D00040EE64EF7CE5E0CF07E225EE44EE65EFDB
:1032E0007CE5DACF06E221EE42EE66EF7CE5D4CF54
:1032F00007E225EE46EE67EF7CE5CECF08E221E05F
:1033000045EE6AED7CE5C8CF81E0C9CF9093A50179
:103310008093A401089590936602809365020895B6
:10332000E0916502F0916602309721F00190F08102
:10333000E02D099480E00895E0916502F091660225
:10334000309799F020912001222359F020918E028C
:1033500027FF07C0DC012C9111962C93119726E0D2
:103360002C930280F381E02D09940895E091650289
:10337000F0916602309739F022E0DC012C93048052
:10338000F581E02D09940895209163023091640243
:103390002817390771F09093640280936302E091DB
:1033A0006502F0916602309721F00680F781E02DEA
:1033B000099408952091610230916202281739071B
:1033C00071F09093620280936102E0916502F09146
:1033D0006602309721F00084F185E02D099408956C
:1033E000FC01329680912001882321F080918E0289
:1033F0009EE187FF96E080E0915008F408952191C6
:103400002223D1F38F5FF8CF662301F120912001B1
:103410002223F1F020918E0227FF1AC0462F4695F5
:10342000469546954E3190F4677021E030E002C039
:10343000220F331F6A95E2F7840F911DFC018281F0
:1034400090E02823392381E0232B69F480E008955C
:10345000FC01329608962191261721F0E817F9070A
:10346000D1F7F4CF81E008959C01FC0132969FEFE3
:1034700080E04191461751F09F3F19F4411101C07E
:10348000982F8F5F8630A9F79F3F09F40895290F81
:10349000311D97FD3A95F90162830895FC0132963A
:1034A00008962191261303C0DF0111971C92E8179B
:1034B000F907B9F70895E62FE695E695E695EE311A
:1034C00068F4E80FF92FF11D677021E030E001C0CA
:1034D000220F6A95EAF78281822B82830895E62F74
:1034E000E695E695E695EE3170F4E80FF92FF11DBB
:1034F000677021E030E001C0220F6A95EAF720955D
:10350000828128232283089520912001222329F0FB
:1035100020918E0227FD0C945B1A0C94341A209192
:103520002001222329F020918E0227FD0C946F1A8E
:103530000C944E1AFC01329680912001882351F0A0
:1035400080918E0287FF06C08EE1DF011D928A9571
:10355000E9F7089586E0F9CF08950C94AC1A81112B
:1035600005C081E0809367020C94AD1A82E0FACF27
:1035700083E0809367020C94AD1A0C94AF1A81E03B
:10358000809367020C94AD1A0C94BF1A0895809131
:10359000A802843031F10E9420041092680288E170
:1035A00090E020E40FB6F894A895809360000FBED9
:1035B0002093600083B7817F846083BF83B781607D
:1035C00083BF7894889583B78E7F83BF0FB6F894B6
:1035D000A8958091600088618093600010926000DF
:1035E0000FBE089508950895CF930E94F21A0E9485
:1035F000EC130E94F31AC0E08C2F0E942213892B37
:1036000031F4CF5FC430C1F780E0CF91089581E0FD
:10361000FCCF0E94CE080C9488041F921FB61F9204
:1036200011248F939F93AF93BF9380916802811170
:1036300013C08091A0029091A102A091A202B0912A
:10364000A3024196A11DB11D8093A0029093A102F7
:10365000A093A202B093A302BF91AF919F918F91CB
:103660001F901FBE1F90189582E084BD93E095BD0A
:103670009AEF97BD80936E0008952FB7F8948091CC
:10368000A0029091A102A091A202B091A3022FBF2B
:1036900008952FB7F8946091A0027091A1028091D3
:1036A000A2029091A3022FBF08959C014FB7F894F6
:1036B0008091A0029091A102A091A202B091A302D8
:1036C0004FBF821B930B089578941F921FB61F92D1
:1036D00011248F939F93AF93BF938091A0029091F9
:1036E000A102A091A202B091A3020196A11DB11D59
:1036F0008093A0029093A102A093A202B093A30290
:10370000BF91AF919F918F911F901FBE1F901895F1
:1037100081E08093E00080E28093D8001092C9009D
:103720008FE19EE40197F1F700C0000087E090EB85
:10373000DC018093B1029093B202A093B302B093E4
:10374000B40288E19CE00FB6F894A89580936000DD
:103750000FBE90936000FFCF80918C020895089572
:103760009C0182E08093E9009FEF8091E8009150F6
:1037700085FD06C085ED8A95F1F700009111F5CF22
:103780008091E80085FF0CC050E040E066E070E00A
:10379000C9010E94E91D8091E8008E778093E800BE
:1037A0000895CF93DF93EC01809120018823B1F13C
:1037B00080918E0287FF32C060E282E08093E90050
:1037C0008FEF9091E800815095FD06C095ED9A9598
:1037D000F1F700008111F5CF8091E80085FF1BC053
:1037E0008091200170E050E040E0811104C050E081
:1037F00040E068E070E0CE010E94E91D8091E800A1
:103800008E778093E80080E2FE01ACE6B2E00190A2
:103810000D928A95E1F7DF91CF91089568E081E0FC
:10382000CDCF8093690270936B0260936A0280919E
:10383000A802843001F582E08093E9008FEF909137
:10384000E800815095FD06C095ED9A95F1F70000CE
:103850008111F5CF8091E80085FF0DC050E040E078
:1038600063E070E089E692E00E94E91D8091E80043
:103870008E778093E8000895BC0184E00C94111CBD
:10388000BC0183E00C94111C8091A702811109C036
:103890000E94791F0E94D61F8091E200846080936D
:1038A000E20008951092A70208950C94BF1A609147
:1038B000A40281E0611101C080E00C94B81A9091DB
:1038C000A80281E0943009F080E06091A4020C9499
:1038D000BD1A42E061EC81E00E94F51E42E261EC1B
:1038E00082E00E94F51E9091A80281E0943009F0D8
:1038F00080E06091A4020C94AF1A8091AA028330F8
:1039000009F460C030F48130C9F1823009F49CC000
:1039100008958A3009F488C08B3009F46EC089306C
:1039200009F04FC08091A902813209F04AC080910C
:10393000AD029091AE02029708F043C08091E8007A
:10394000877F8093E8008091E80082FF36C09091E5
:10395000F3008091F200029731F48091F100813000
:1039600011F0863021F48091F10080938C028091D7
:10397000E8008B778093E8000C94291F8091A902BE
:10398000813AF9F48091E800877F8093E800809184
:10399000AD029091AE02892B61F460E28CE692E078
:1039A00070E00E94381E8091E8008B778093E800D9
:1039B000089560E090E080E0F3CF8091A80281114B
:1039C000C2CF08958091A902813AD9F78091AD02C2
:1039D0009091AE02892BA9F78091E800877F8093B0
:1039E000E8008091E80080FFFCCF80912001809367
:1039F000F1008091E8008E77BDCF8091A9028132DD
:103A000001F78091AD029091AE02892BD1F68091A1
:103A1000E800877F8093E8000E94291F8091AB0215
:103A2000809320010C94CE088091A902813249F63E
:103A30008091E800877F8093E8000E94291F809191
:103A4000AC0280938D0208958091A902813A09F019
:103A5000B8CF8091E800877F8093E8008091E800EC
:103A600080FFFCCF80918D02C2CF84B7877F84BF57
:103A70000FB6F894A89580916000886180936000EB
:103A8000109260000FBE80E890E00FB6F89480932B
:103A90006100909361000FBE0C94C41A0E94791FBC
:103AA0000E94D61FE2EEF0E08081846080837894EB
:103AB0000C945F2284E191E00C948B198091A80210
:103AC0008530A9F48091A802853011F00C94091B6F
:103AD0000E94C71A8091A6028823A1F30E94F41ABB
:103AE000882381F30E94D31D0E94CE08EBCF089556
:103AF00008950C947B1D292F33272330310519F1AC
:103B000068F42130310509F444C02230310509F44C
:103B100045C090E080E030E020E025C02132310552
:103B200049F122323105A9F780E490E02DE133E03C
:103B300061157105C1F086EB90E027E632E0613057
:103B4000710589F0E6CF99278130910581F00097C2
:103B500029F00297F1F6E4EEF1E002C0E6E1F2E0CE
:103B6000849190E09F01FA01318320830895E2E07F
:103B7000F2E0F6CF89E090E02CE232E061157105C9
:103B800091F389E090E025E432E06130710559F36A
:103B9000C0CF82E190E025E532E0E5CF8BE390E015
:103BA0002AE132E0E0CF80E189BD82E189BD09B43C
:103BB00000FEFDCF8091D8008F7D8093D80080914A
:103BC000E00082608093E0008091E00081FDFCCF06
:103BD0000895AF92BF92CF92DF92FF920F931F93FF
:103BE000CF93DF936C01EB018A010E94481FF82EEE
:103BF000811123C00115110539F0F80180819181EF
:103C0000C81BD90BC80ED91EB12CA12C2097A9F026
:103C10008091E80085FD22C08091E8008E77809336
:103C2000E80001151105A1F0F80180819181A80E2D
:103C3000B91EB182A08285E0F82E8F2DDF91CF9141
:103C40001F910F91FF90DF90CF90BF90AF9008959C
:103C50000E94481F8823D1F2F82EEFCFF601819100
:103C60006F018093F1002197FFEFAF1ABF0ACECF0B
:103C7000FC018091AF029091B00286179707A0F0E7
:103C80006115710529F49091E8009E779093E80002
:103C900090E06115710551F4911108C08091E80020
:103CA00082FF34C080E00895BC01F2CF8091A80269
:103CB0008823C1F18530C1F18091E80083FD30C0D7
:103CC0008091E80082FDEACF8091E80080FFE1CF9B
:103CD0008091F3002091F200382F6115710519F0E1
:103CE0002830310558F091E02830310509F090E096
:103CF0002091E8002E772093E800CBCF819180932C
:103D0000F100615071092F5F3F4FE7CF8091A8020A
:103D1000882341F0853041F08091E80083FFBECFD9
:103D200081E0089582E0089583E00895FC01809188
:103D3000AF029091B00286179707A0F06115710548
:103D400029F48091E8008E778093E80090E0611577
:103D5000710551F4911108C08091E80082FF35C0CF
:103D600080E00895BC01F2CF8091A8028823C9F1B8
:103D70008530C9F18091E80083FD31C08091E80071
:103D800082FDEACF8091E80080FFE1CF8091F300CF
:103D90002091F200382F6115710519F02830310596
:103DA00058F091E02830310509F090E08091E8006A
:103DB0008E778093E800CBCF84918093F100319689
:103DC000615071092F5F3F4FE6CF8091A802882391
:103DD00041F0853041F08091E80083FFBDCF81E064
:103DE000089582E0089583E00895982F973028F091
:103DF0008F708093E90081E008959093E900242F6B
:103E0000762F50E0981731F07091EC002091ED0082
:103E10005091F00021FD02C09F5FE8CF3091EB0090
:103E20003E7F3093EB003091ED003D7F3093ED000D
:103E30003091EB0031603093EB007093EC002093F5
:103E4000ED005093F0002091EE0027FDE5CF80E0DB
:103E500008958091A90287FF13C08091E80082FF36
:103E600006C08091E8008B778093E80004C08091C1
:103E7000A8028111F2CF08958091A8028823D9F376
:103E80008091E80080FFF8CF8091E8008E77ECCF3A
:103E90002091E4003091E50095E6A9012091EC0025
:103EA000822F817020FF06C08091E80080FF06C04D
:103EB00080E008952091E80022FD1AC08091A802B8
:103EC000882389F0853089F08091EB0085FD0FC053
:103ED0002091E4003091E50042175307F9F2915028
:103EE000E1F684E0089582E0089583E0089581E09A
:103EF00008950E94E71F0E94EF1FE0EEF0E080812E
:103F000081608083E8EDF0E080818F77808319BC49
:103F1000A7EDB0E08C918E7F8C9380818F7E808323
:103F20001092A70208950F931F93CF93DF930E94DF
:103F3000E71F0E94EF1FC8EDD0E088818F7788834C
:103F400088818068888388818F7D888319BC1092DE
:103F5000A8021092A4021092A6021092A50200EEEE
:103F600010E0F80180818B7F808388818160888365
:103F700042E060E080E00E94F51EE1EEF0E080812A
:103F80008E7F8083E2EEF0E080818160808380819B
:103F900088608083F80180818E7F80838881806142
:103FA0008883DF91CF911F910F910895E8EDF0E0A4
:103FB00080818F7E8083E7EDF0E080818160808367
:103FC00084E082BF81E08093A7020C94931FE8ED08
:103FD000F0E080818E7F80831092E200089510923D
:103FE000DA001092E10008951F920F920FB60F921F
:103FF00011242F933F934F935F936F937F938F93EE
:104000009F93AF93BF93EF93FF938091E10082FF63
:104010000BC08091E20082FF07C08091E1008B7F9E
:104020008093E1000E945E228091DA0080FF19C037
:104030008091D80080FF15C08091DA008E7F809338
:10404000DA008091D90080FF96C080E189BD82E1CD
:1040500089BD09B400FEFDCF81E08093A8020E94D3
:10406000441C8091E10080FF19C08091E20080FF34
:1040700015C08091E2008E7F8093E2008091E20083
:1040800080618093E2008091D80080628093D800A4
:1040900019BC85E08093A8020E94571C8091E10022
:1040A00084FF2BC08091E20084FF27C080E189BD9E
:1040B00082E189BD89B5982F917080FFFBCF8091F7
:1040C000D8008F7D8093D8008091E1008F7E80930F
:1040D000E1008091E2008F7E8093E2008091E20017
:1040E00081608093E2008091A402882309F449C092
:1040F00084E08093A8020E945F1C8091E10083FF0E
:1041000029C08091E20083FF25C08091E100877F74
:104110008093E10082E08093A8021092A402809133
:10412000E1008E7F8093E1008091E2008E7F80939A
:10413000E2008091E20080618093E20042E060E072
:1041400080E00E94F51E8091F00088608093F0006E
:104150000E94551CFF91EF91BF91AF919F918F915C
:104160007F916F915F914F913F912F910F900FBE73
:104170000F901F90189519BC1092A8020E94521C13
:1041800070CF8091E30087FD93E09093A802B3CFB6
:104190001F920F920FB60F9211242F933F934F93BC
:1041A0005F936F937F938F939F93AF93BF93CF93BF
:1041B000DF93EF93FF93D091E900DF708091EC00E3
:1041C000C82FC17080FDC0E81092E9008091F00016
:1041D000877F8093F00078940E940C211092E90070
:1041E0008091F00088608093F000CD2BCF70C09359
:1041F000E900FF91EF91DF91CF91BF91AF919F9136
:104200008F917F916F915F914F913F912F910F907F
:104210000FBE0F901F9018951F93CF93DF93CDB7CC
:10422000DEB7AA970FB6F894DEBF0FBECDBF89EAFE
:1042300092E02091F100FC012193CF01F2E0813B5B
:104240009F07B9F70E947D1C8091E80083FF1EC183
:104250008091A9029091AA029A3008F017C1E92F23
:10426000F0E0E656FB4D0C941124803899F082382A
:1042700009F00CC18091AD028F70873008F006C143
:104280008093E9008091EB0085FB882780F91092EC
:10429000E90006C08091A5029091A602911182606A
:1042A0009091E800977F9093E8008093F10010923E
:1042B000F1008091E8008E77E5C0882309F4D3C02F
:1042C000823009F0E3C08091AB028111D6C08091A9
:1042D000AD028F702FEF280F263008F0D7C08093E3
:1042E000E9002091EB0020FFC8C0933031F48091A9
:1042F000EB0080628093EB00C0C09091EB00906176
:104300009093EB0021E030E001C0220F8A95EAF79C
:104310002093EA001092EA008091EB008860EACFD7
:104320008111B4C01091AB021F778091E3008078B7
:10433000812B8093E3008091E800877F8093E800E1
:104340000E94291F8091E80080FFFCCF8091E3004C
:1043500080688093E30082E0111183E08093A802DB
:1043600095C08058823008F091C08091AB02909146
:10437000AC028C3D23E09207A1F583E08A838AE2B8
:1043800089834FB7F894DE01139620E03EE051E2B6
:10439000E32FF0E050935700E49120FF03C0E29533
:1043A000EF703F5FEF708E2F90E0EA30C0F0C7965D
:1043B0008D939D932F5F243159F74FBF8091E80073
:1043C000877F8093E8006AE270E0CE0101960E9448
:1043D000381E8091E8008B778093E80057C0C09624
:1043E000E7CF6091AD027091AE02AE014F5F5F4FBB
:1043F0000E94791DBC01892B09F448C09091E80006
:10440000977F9093E80089819A810E94961EE1CF60
:104410008038E1F58091E800877F8093E800809103
:10442000A4028093F10045CF811130C09091AB027E
:10443000923060F58091E800877F8093E800909348
:10444000A4020E94291F8091A402882311F084E015
:1044500005C08091E30087FDFACF81E08093A80238
:104460000E94691C13C08091AB02813079F481E015
:10447000933009F080E08093A6021092E9008091C9
:10448000E800877F8093E8000E94291F8091E80060
:1044900083FF0AC08091E800877F8093E8008091C5
:1044A000EB0080628093EB00AA960FB6F894DEBF13
:1044B0000FBECDBFDF91CF911F9108950895CF9387
:1044C0008091A8028823A1F0C091E900CF7090915B
:1044D000EC00892F817090FD80E8C82B1092E900D4
:1044E0008091E80083FD0E940C21CF70C093E90009
:1044F000CF9108950E948E220C9476230E946F2300
:1045000058F00E94682340F029F45F3F29F00C9492
:104510005F2351110C94AA230C9465230E948723D6
:1045200068F39923B1F3552391F3951B550BBB27E2
:10453000AA2762177307840738F09F5F5F4F220F27
:10454000331F441FAA1FA9F335D00E2E3AF0E0E81E
:1045500032D091505040E695001CCAF72BD0FE2F68
:1045600029D0660F771F881FBB1F261737074807FC
:10457000AB07B0E809F0BB0B802DBF01FF279358B4
:104580005F4F3AF09E3F510578F00C945F230C94F6
:10459000AA235F3FE4F3983ED4F386957795679519
:1045A000B795F7959F5FC9F7880F911D96958795E9
:1045B00097F90895E1E0660F771F881FBB1F621708
:1045C00073078407BA0720F0621B730B840BBA0BC6
:1045D000EE1F88F7E09508950E94F3226894B111C8
:1045E0000C94AA2308950E948F2388F09F5798F077
:1045F000B92F9927B751B0F0E1F0660F771F881FE8
:10460000991F1AF0BA95C9F714C0B13091F00E9401
:10461000A923B1E008950C94A923672F782F882748
:10462000B85F39F0B93FCCF3869577956795B39528
:10463000D9F73EF490958095709561957F4F8F4F97
:104640009F4F0895E89409C097FB3EF4909580959C
:10465000709561957F4F8F4F9F4F9923A9F0F92F48
:1046600096E9BB279395F695879577956795B795C6
:10467000F111F8CFFAF4BB0F11F460FF1BC06F5FAC
:104680007F4F8F4F9F4F16C0882311F096E911C0BE
:10469000772321F09EE8872F762F05C0662371F0DF
:1046A00096E8862F70E060E02AF09A95660F771FF3
:1046B000881FDAF7880F9695879597F9089597F9E7
:1046C0009F6780E870E060E008959FEF80EC0895B8
:1046D00000240A94161617061806090608950024E1
:1046E0000A9412161306140605060895092E03945B
:1046F000000C11F4882352F0BB0F40F4BF2B11F4CF
:1047000060FF04C06F5F7F4F8F4F9F4F089557FD2D
:104710009058440F551F59F05F3F71F04795880F2F
:1047200097FB991F61F09F3F79F0879508951216C6
:1047300013061406551FF2CF4695F1DF08C0161672
:1047400017061806991FF1CF869571056105089423
:104750000895E894BB2766277727CB0197F908953A
:104760000E948F23E8F09E37E8F09639B8F49E381F
:1047700048F4672F782F8827985FF9CF869577952B
:10478000679593959539D0F3B62FB1706B0F711D66
:10479000811D20F487957795679593950C94D42384
:1047A0000C94EF230C94AA23882371F4772321F02F
:1047B0009850872B762F07C0662311F499270DC0D8
:1047C0009051862B70E060E02AF09A95660F771F73
:1047D000881FDAF7880F9695879597F908959F3F78
:1047E00031F0915020F4879577956795B795880FAC
:1047F000911D9695879597F9089597FB072E16F4C6
:10480000009407D077FD09D00E94172407FC05D03B
:104810003EF4909581959F4F0895709561957F4FD7
:104820000895EE0FFF1F0590F491E02D0994AA1B47
:10483000BB1B51E107C0AA1FBB1FA617B70710F08B
:10484000A61BB70B881F991F5A95A9F780959095BD
:10485000BC01CD010895FB01DC0104C08D910190E4
:10486000801921F441505040C8F7881B990B0895D6
:10487000F999FECF92BD81BDF89A992780B5089528
:10488000A8E1B0E042E050E00C946C24262FF999A6
:10489000FECF92BD81BDF89A019700B4021639F09F
:1048A0001FBA20BD0FB6F894FA9AF99A0FBE089570
:1048B0000396272F0E9447240E944624252F0E94FA
:1048C0004724242F0C9447240196272F0E94472425
:1048D0000C944624DC01CB01FC01F999FECF06C003
:1048E000F2BDE1BDF89A319600B40D9241505040AE
:1048F000B8F70895F894FFCF7D067D06AE06AE06A4
:1049000041075D07DD06DD066807F40703080308B5
:104910005B08DD06DD066408DD08DD08E608E6085C
:10492000E808E608E608E608DD08DD08ED08E60820
:10493000E608ED0835215D2146225D2146229021C1
:08494000B121462208221422D5
:10494800401100C800FF0301C80011022808641EB6
:10495800140A321EAC1BD11BB01B401C3C1CAF1BE5
:1049680001E200E900EA00B500B600B700CD008317
:1049780001CC008A0192019401210223022402251C
:1049880002260227022A02B300B4006F00700081D9
:104998008283E200E900EA00B500B600B700CD0066
:1049A8008301CC008A01920194012102230224028E
:1049B8002502260227022A02B300B4006F00700005
:1049C8008182836766363534979694323391909214
:1049D800F4F5959300FF0100010000FFFF000001BE
:0449E8000001FF00CB
:00000001FF
