:100000000C94AF010C94F6010C94F6010C94F601DB
:100010000C94F6010C94F6010C94F6010C94F60184
:100020000C94F6010C94F6010C94E31D0C94B71E8D
:100030000C9425190C94F6010C94F6010C94F6011D
:100040000C94F6010C94F6010C94F6010C94F60154
:100050000C94F6010C947C190C94F6010C94F601A6
:100060000C94F6010C94F6010C94F6010C94F60134
:100070000C94F6010C94F6010C94F6010C94F60124
:100080000C94F6010C94F6010C94F6010C94F60114
:100090000C94F6010C94F6010C94F6010C94F60104
:1000A0000C94F6010C94F6010C94F601165C140005
:1000B0001A000800150017001C0018000C001200A0
:1000C00013002F0030002B00040016000700090069
:1000D0000A000B000D000E000F0033003400280052
:1000E000D85C1D001B00060019000500110010005F
:1000F000360037003800D95C5200E000E300E2002F
:1001000000002C000000000001510251500051007D
:100110004F002A0035001E001F0020002100220091
:10012000230024002500260027002D002E00390082
:100130001E021F02200221022202230224022502A3
:1001400026022702310231000100010001000100F6
:100150000100010001000100010001000100010097
:100160004A00010001000100000001000000000041
:10017000010001004B004D004E004C0001003A0010
:100180003B003C003D003E003F004000410042007B
:10019000430044004500010001000100010001008E
:1001A0000100010001000100010001000100010047
:1001B0000100010001000100010001000100010037
:1001C0000100010001000100010001000100010027
:1001D000000001000000000001000100010001001A
:1001E000010001001C034C00650074002000490060
:1001F0007400200053006C00690064006500210059
:100200000000120344007200480069006700730098
:100210006200790000000403090409023B000201A6
:1002200000A0FA09040000010301010009211101E5
:1002300000012240000705810308000A09040100AB
:10024000010300000009211101000122B600070589
:10025000820320000A1201000200000008070001CA
:100260000005000102000105010902A10185020942
:1002700001A1000509190129081500250195087536
:100280000181020501093009311581257F9502752B
:1002900008810609381581257F95017508810605B5
:1002A0000C0A38021581257F950175088106C0C0AA
:1002B00005010980A101850319012AB7001501264E
:1002C000B700950175108100C0050C0901A10185D9
:1002D0000419012AA002150126A0029501751081BA
:1002E00000C005010906A1018505050719E029E7F8
:1002F000150025019508750181020507190029EFF0
:100300001500250195F075018102050819012905DF
:10031000950575019102950175039101C0050109CB
:1003200006A101050719E029E715002501950875C3
:100330000181029501750881010507190029FF1542
:100340000026FF009506750881000508190129059A
:10035000950575019102950175039101C000112465
:100360001FBECFEFDAE0DEBFCDBF04B603FE27C06D
:100370008091940290919502A0919602B09197027B
:100380008730904BA740B04BD1F41092940210925A
:100390009502109296021092970214BE84B7877F3E
:1003A00084BF0FB6F894A89580916000886180930F
:1003B0006000109260000FBEE0E0F8E3099511E0E4
:1003C000A0E0B1E0E6E6F5E402C005900D92AE389B
:1003D000B107D9F722E0AEE8B1E001C01D92A4391F
:1003E000B207E1F70E940F130C9489220C940000CD
:1003F000807C809300010895873901F178F4863379
:10040000F9F030F48433F1F08533F1F08FE10895A1
:100410008439E1F08639D1F781E20895843FC1F053
:1004200030F4803FB9F0813F89F781E00895863F3D
:1004300099F0A0F0873F51F787E0089582E2089590
:1004400085E2089583E2089584E2089580E20895A4
:1004500084E0089580E0089586E0089585E0089599
:1004600096E890937A00982F9072906890937B0012
:100470008F7190910001892B80937C0080917A008C
:10048000806480937A0080917A0086FDFCCF809111
:1004900078002091790090917A009F7790937A006C
:1004A000922F08950E94FC010C943002CF93DF93A9
:1004B00080E40E94F801D0E0C0E0809101019091B9
:1004C0000201C817D9073CF01092950110929401CF
:1004D000DF91CF9108958AEA0E9401052196EDCF20
:1004E000CF92DF92EF92FF920F931F93CF93DF9300
:1004F00080EF0E945202909391018093900120918D
:10050000920130919301AC01421B530B9A0157FFAA
:1005100003C0319521953109233331050CF44CC0CA
:10052000BC01990F880B990B0E9413216B017C0170
:100530006091030170910401072E000C880B990B48
:100540000E9413219B01AC01C701B6010E946920E2
:100550006B017C016091010170910201072E000C7A
:10056000880B990B0E9413219B01AC01C701B601B6
:100570000E949F210E94DB206B01C0919401D091C9
:1005800095018B010C1B1D0B101611063CF5D0E0DC
:10059000C0E089EA0E94010521960C171D07C9F7E2
:1005A000D0929501C0929401809190019091910117
:1005B0009093930180939201DF91CF911F910F91BE
:1005C000FF90EF90DF90CF9008958AEA0E94010596
:1005D0000F5F1F4F0C171D07C4F3E2CF10E000E0C0
:1005E000C61BD70BF7CF81E0089581E008950C94E6
:1005F000F50208950C94F9021F93CF93DF9300D076
:1006000000D00F92CDB7DEB749835A836B83309108
:10061000960189819A8131111DC06623B9F0222388
:10062000A9F00E942D09182F682F89819A810E94B4
:10063000D90869817A81812F0F900F900F900F90C8
:100640000F90DF91CF911F910C94730F0E940509B9
:10065000182FEFCF0E942D0969817A81EDCFFC011F
:10066000262F408151816281738184810C94FC0228
:1006700081E00895CF93DF93EC0160E00E942F03A7
:10068000BE01DF91CF910C94FA020E9483110E9467
:10069000B6030C94A7110C94A91108950E94820727
:1006A0000E944D032FEF84E39CE021508040904056
:1006B000E1F700C000000C94A0190F931F93CF9393
:1006C000DF938C0161E00E942F03EC01B8010E94CE
:1006D000F7028823A9F1B801CE010E9411168823E0
:1006E00079F1B801CE010E946316882349F1B8015F
:1006F000CE010E948617882319F1F8018281882390
:1007000061F0CB35FDE5DF0721F170F4C115ECE5B3
:10071000DE07A1F0CF3DDC45C9F0C801DF91CF91E4
:100720001F910F910C94F302CC358DE5D807A1F001
:10073000CD35DD4591F70E940A0DEFCF0E944E03A3
:1007400080E0DF91CF911F910F9108950E947B0E61
:10075000F7CF0E94130DE1CF0E94160DDECF089552
:100760000C94AF0381E008950C94B2030895CF93E5
:10077000C82F0E94B0038C2FCF910C94B403CF9359
:10078000DF93CDB7DEB72B970FB6F894DEBF0FBE61
:10079000CDBF4F83588769877A878B8761110E9405
:1007A000390D1E821D8285E0FE013796DE0111960D
:1007B00001900D928A95E1F78C819D81892B89F4B6
:1007C00049815A816B817C818D819E810E94390C87
:1007D0002B960FB6F894DEBF0FBECDBFDF91CF9141
:1007E000089589819A8189238F3F51F3CE01019623
:1007F0000E9438038111E4CFEBCFFC01808191810D
:100800000C946F09CF93C82F882309F48BC08238CA
:10081000C1F40E94B51781FD85C089E30E94D30C05
:100820000E94690D2FEF81EE94E0215080409040AE
:10083000E1F700C0000089E30E94DA0CCF910C942C
:10084000690D8338A1F40E94B51780FD6BC083E564
:100850000E94D30C0E94690D2FEF81EE94E021508D
:1008600080409040E1F700C0000083E5E5CF843888
:10087000A1F40E94B51782FD55C087E40E94D30CF5
:100880000E94690D2FEF81EE94E02150804090404E
:10089000E1F700C0000087E4CFCF8CEF8C0F813AE6
:1008A00090F46C2F80910501909106010E94291807
:1008B000882329F08C2F0E94DA0C0E94690D8C2F5E
:1008C0000E94D30CBBCF80E28C0F883048F4C770F5
:1008D00081E001C0880FCA95EAF70E941C0DAECFD7
:1008E000EBE5EC0FE33040F4F0E0E85BFE4F808195
:1008F00090E0CF910C94E917E8E5EC0FE73150F464
:10090000F0E0EE0FFF1FE65EFE4F80819181CF91F8
:100910000C94FF17CD3E30F08C2F0E949D13CF9189
:100920000C947014CF910895882309F452C0823832
:1009300071F40E94B51781FF4CC089E30E94D30C6B
:100940000E94690D89E30E94DA0C0C94690D8338CA
:1009500059F40E94B51780FF3CC083E50E94D30C78
:100960000E94690D83E5EFCF843859F40E94B517D2
:1009700082FF2FC087E40E94D30C0E94690D87E498
:10098000E2CF9CEF980F913AF0F290E2980F9830F6
:1009900050F4877091E001C0990F8A95EAF7892F8A
:1009A0000E94220DD2CF9BE5980F933020F490E067
:1009B00080E00C94E91798E5980F973120F490E0C7
:1009C00080E00C94FF178D3E20F00E94F7130C94EA
:1009D000701408951F93CF93DF93182FEB010E949B
:1009E0000204209731F4812FDF91CF911F910C9455
:1009F00094048FE99FE00197F1F700C00000219770
:100A0000F0CF70E060E0893311F460E570E00C94A1
:100A1000EA04882321F00E941C0D0C94690D0895AE
:100A2000882321F00E94220D0C94690D0895BF9235
:100A3000CF92DF92EF92FF920F931F93CF93DF93AA
:100A40006C01D62FC72FFC011281058102950F7012
:100A50000E94F10CE82E8823A1F0E12E112389F0E9
:100A60008C2F807F803429F080E28D0FE12C88303C
:100A700040F082E00E94BA0D0E94F10C91E0E82E55
:100A8000E926BC2EB2949FE0B922EB2DF0E0E557A9
:100A9000FD4D0C9420220C2F0F70C07F11F0029599
:100AA000007F1123A9F0002359F080E28D0F8830D8
:100AB00010F0D11109C0802F0E941C0D0E94690DF9
:100AC0008D2F0E94020414C0802F0E942C0DF6CF9F
:100AD0008D2F0E949404002359F080E28D0F8830FE
:100AE00010F0D1112CC0802F0E94220D0E94690DA0
:100AF0002B2D2850330B2430310520F40E94B517DC
:100B00000E94B703EE2009F49EC10E94ED0C80FD07
:100B10009AC1F60112820E94E70C0E943D08C601AC
:100B20000E9444070E94E70CDF91CF911F910F9123
:100B3000FF90EF90DF90CF90BF900C945E08802FD5
:100B40000E94320DD3CFFC2FFF70FF2EC07FC0322A
:100B500019F0F29480EFF822DD2369F0D13049F1E9
:100B6000112391F1002351F1F601858180FFA8CF77
:100B70008F70858323C0112381F0011106C00E946C
:100B80004C0D8F290E940905B3CF0130C1F70E9497
:100B90004C0D8F290E94520DABCF011106C00E944F
:100BA0005F0D8F2D0E941005A3CF013009F4A0CF57
:100BB000F6CF112329F0063008F09ACF8F2DE2CF1F
:100BC000053008F095CFEDCF002359F3D93349F420
:100BD000FFEF27EE33E0F15020403040E1F700C056
:100BE00000008D2F0E94940483CF8C2F86958695CC
:100BF000837069F0813009F07BCF8D2F9C2F93702B
:100C0000111102C090E080E00E94FF1771CF8D2F7C
:100C10009C2F9370111102C090E080E00E94E917B0
:100C200067CF8D2F112329F00E949D130E9470140D
:100C30005FCF0E94F713FACF8C2F837009F041C069
:100C4000111156CF4D2F429546954770440F440FD2
:100C50000D2F0F7010E030E020E0042E04C0000FD4
:100C6000111F221F331F0A94D2F760E070E0CB01FE
:100C7000D4FF0FC06FE070E080E090E004C0660F2A
:100C8000771F881F991F4A95D2F7609570958095B8
:100C90009095C695C695C370602B712B822B932BB4
:100CA000C23049F058F4C13019F00E94EF0720CF4C
:100CB0000E94DD071DCF0E9401081ACF0E94DB07AA
:100CC00017CF8695112311F08C2F8170882309F49A
:100CD0000FCF4D2F429546954770440F440F0D2F6F
:100CE0000F7010E030E020E0042E04C0000F111F50
:100CF000221F331F0A94D2F760E070E0CB01D4FFCB
:100D00000FC06FE070E080E090E004C0660F771FD6
:100D1000881F991F4A95D2F7609570958095909598
:100D2000C695C695C370602B712B822B932BC23056
:100D300049F058F4C13019F00E94B408D9CE0E948D
:100D4000A208D6CE0E94C608D3CE0E941708D0CEE5
:100D5000CF70112329F08C2F0E943D088D2F12CFC8
:100D60008D2F0E9410058C2F0E945E08C1CED23FAD
:100D700089F160F4D03FC9F0D13F29F1112309F482
:100D800042C001119DCE8C2F8F7121C0D33F39F10C
:100D9000D43FA1F7112369F1CF718C2F0E943D0838
:100DA00063E08C2F0E949F0DA3CE112341F00530EC
:100DB00008F09ECE8C2F8F710E94810899CE06304C
:100DC00008F096CEF7CF8C2F8F71112369F20E9415
:100DD0003D088ECE8C2F8F711123C9F3C5CF1123FF
:100DE00029F08C2F8F710E94280882CE0E94230840
:100DF0007FCE81E00E94BA0D023008F479CE82E005
:100E00000E94BA0D75CE002359F0D93309F0E9CE0E
:100E10008FEF97EEE3E081509040E040E1F7DFCEC6
:100E20008C2F8F71A1CF4C2F4F706D2FC6010E9458
:100E30006F0F0E949D095CCE4C2F4F706D2FC60125
:100E40000E94720F55CEDF91CF911F910F91FF90AD
:100E5000EF90DF90CF90BF9008950F931F93CF93A3
:100E6000DF93EC01688179818A810E9479098C0184
:100E70000E94D8080E94DA07B801CE01DF91CF9115
:100E80001F910F910C941705CF93DF93EC018B8189
:100E90009C81892B29F08881998189238F3F59F47E
:100EA000DF91CF910895CE010E942D07CE01DF91F1
:100EB000CF910C943A03CE010E945D038111F3CFD0
:100EC0000E94F10C882361F38A81882349F382E030
:100ED000DF91CF910C94BA0D90E080E00E94E91769
:100EE00090E080E00E94FF170E94390D0E94490D9A
:100EF0000E94690D0E9497150C9470140E94E10CD9
:100F00000C946C070E94290D0C947E07E92FE29542
:100F1000EF70E250EE3070F4F0E0E556FD4D0C94C9
:100F20002022803F19F020F4883E20F481E00895CB
:100F3000843FE1F380E00895883EC0F3813FD1F71C
:100F4000F5CF93FB882780F90895FC01808191817A
:100F50000E946F090C948607CF93DF9300D000D0D6
:100F60000F92CDB7DEB70F900F900F900F900F90AC
:100F7000DF91CF910895CF93DF9300D000D000D0C0
:100F8000CDB7DEB726960FB6F894DEBF0FBECDBF45
:100F9000DF91CF91089508950C94CB070E94CC0760
:100FA0006093BE017093BF018093C0019093C10113
:100FB0000C946C0708950C94CE070F931F93009127
:100FC000BE011091BF012091C0013091C101602B81
:100FD000712B822B932B1F910F910C94CE070F93A3
:100FE0001F930091BE011091BF012091C00130916B
:100FF000C10160237123822393231F910F910C94CD
:10100000CE070F931F930091BE011091BF01209155
:10101000C0013091C10160277127822793271F915A
:101020000F910C94CE070C94CB070C9413080E94DC
:1010300015086093BA017093BB018093BC01909333
:10104000BD010C946C0760E070E0CB010C941708B4
:101050000F931F9341E050E060E070E08A019B0134
:1010600004C0000F111F221F331F8A95D2F7C90138
:10107000B8011F910F910C9417080F931F9341E033
:1010800050E060E070E004C0440F551F661F771FFA
:101090008A95D2F78091BA019091BB01A091BC01D1
:1010A000B091BD018A019B01082B192B2A2B3B2BE8
:1010B000C901B8011F910F910C9417080F931F934A
:1010C00041E050E060E070E004C0440F551F661F2F
:1010D000771F8A95D2F7CB01BA01609570958095FC
:1010E00090950091BA011091BB012091BC01309103
:1010F000BD0160237123822393231F910F910C94D0
:1011000017080F931F9341E050E060E070E004C0C7
:10111000440F551F661F771F8A95D2F78091BA0139
:101120009091BB01A091BC01B091BD018A019B01CE
:10113000082719272A273B27C901B8011F910F91BA
:101140000C9417080F931F930091BA011091BB01E3
:101150002091BC013091BD01602B712B822B932B10
:101160001F910F910C9417080F931F930091BA01D0
:101170001091BB012091BC013091BD01602371230E
:10118000822393231F910F910C9417080F931F93A1
:101190000091BA011091BB012091BC013091BD01B9
:1011A00060277127822793271F910F910C941708AE
:1011B00008952DE0929F800D1124982F977041E0A3
:1011C00001C0440F9A95EAF786958695869595E035
:1011D000899FF0011124E956FE4F90E080E070E015
:1011E0005191DF0111979B01082E02C0369527957A
:1011F0000A94E2F7217021952527242325272C9393
:1012000001968530910561F708952DE0929F800D3C
:101210001124982F977086958695869525E0829F54
:10122000F0011124E956FE4F50E040E080E02191AA
:1012300030E0092E02C0369527950A94E2F7217016
:101240003327042E01C0220F0A94EAF7822B4F5F46
:101250005F4F4530510559F70895BF92CF92DF9205
:10126000EF92FF920F931F93CF93DF938C01C09067
:10127000BA01D090BB01E090BC01F090BD0180911B
:10128000BE019091BF01A091C001B091C101C82AD7
:10129000D92AEA2AFB2ACFE1D0E0BC2ED701C60129
:1012A0000C2E04C0B695A795979587950A94D2F70A
:1012B00080FD0EC0219788F7B12C8B2DDF91CF9147
:1012C0001F910F91FF90EF90DF90CF90BF90089506
:1012D000B8018C2F0E94A210019761F3EECFCF933B
:1012E000DF93EC010E942D09BE01DF91CF910C9498
:1012F000A2101F93CF93DF93EB0190919601992356
:1013000031F0CB01DF91CF911F910C946F098823AD
:1013100079F0CB010E942D09182F682FCE010E9471
:10132000D908BE01812FDF91CF911F910C94A2109B
:10133000CB010E940509182FF4CFEF92FF920F9373
:101340001F93CF93DF938C01892B81F0F12CEE2436
:10135000E394E8012196F8018491843770F4843095
:1013600008F05FC08130B1F08230A1F1DF91CF9100
:101370001F910F91FF90EF900895853709F44CC0AD
:1013800008F43DC09CE7980F903780F78F770E9454
:10139000940449C00E5F1F4FFE01849190E2980FA4
:1013A000983060F48770FE2D01C0FF0F8A95EAF730
:1013B0008F2F0E943C0D0E94690D02C00E94020402
:1013C0008F2D815030F2EFE9FFE03197F1F700C047
:1013D0000000F7CF0E5F1F4FFE01849190E2980F3F
:1013E000983050F48770FE2D01C0FF0F8A95EAF700
:1013F0008F2F0E94420DDFCF0E949404E1CF0E5F39
:101400001F4FFE01C491C150D8F28FE99FE00197B0
:10141000F1F700C00000F7CF0E5F1F4FFE01F49000
:10142000CFCF0E9402048E01CBCF1F93CF93DF93C7
:10143000C091C20116E08091C3018C1304C0DF91FA
:10144000CF911F910895D0E01C9FF0011D9FF00DDA
:101450001124EC53FE4F408151816281738184815C
:1014600095810E94BB072196C770E5CF4091F4019A
:101470005091F5016091F6017091F7018091F801AA
:101480009091F9010C94BB071F93CF93DF93809148
:10149000F901807FA9F48091F601882389F0809179
:1014A000C201C091C3016091F4017091F501A09156
:1014B000F701B091F801D62FD72316E0C81304C066
:1014C000DF91CF911F91089590E0109711F0DF3FC9
:1014D00019F401968770F2CF189F9001199F300D73
:1014E0001124F901EC53FE4F41814713F2CF4081A3
:1014F0004613EFCF42814111ECCF438154814A1B07
:101500005B0B483C510528F78091F9018F70806191
:101510008093F901F901E753FE4F80818F7080615C
:10152000808384EF91E00E944407DF91CF911F9167
:101530000C94150AAF92BF92CF92DF92EF92FF9276
:101540000F931F93CF93DF93CDB7DEB761970FB69D
:10155000F894DEBF0FBECDBF8C0185E0F801DE013F
:101560001D9601900D928A95E1F7F801E28084EFD3
:10157000C82E81E0D82E6091F7017091F8016115B5
:10158000710509F45AC19091F4012091F501892F58
:1015900082238F3F09F451C140815181A380B480DF
:1015A000F090F601F501E61BF70BFF2009F4F6C0F9
:1015B0008091F901382F307FE83CF10508F0AFC089
:1015C000311179C0FE2C251323C0941321C0E110E2
:1015D0001FC08F7080618093F9010E94360AC60196
:1015E0000E9444078091F901F80185838F2D61964F
:1015F0000FB6F894DEBF0FBECDBFDF91CF911F9124
:101600000F91FF90EF90DF90CF90BF90AF90089533
:10161000AB2829F0842F85238F3F09F027C180E074
:10162000F82FF170DF2E80FF3CC08091C201209125
:10163000C30136E0821315C04D875E878D859E8578
:101640000E946F09292F22952F702230F0F024304C
:1016500018F59F70F1F0F8019581907FD1F4D12CAD
:101660001EC090E0389FF001399FF00D1124EC531B
:10167000FE4F6181651306C06081641303C06281FF
:10168000E6120FC001968770D5CF9F7011F08823A6
:1016900031F3805E883018F3C8010E944407FD2CA6
:1016A000A5CFEE2009F4A2CF8091F901816080934B
:1016B000F901F12C9BCF251306C0941304C0F80147
:1016C000EE2009F487C0C8010E94A507882319F1FC
:1016D000EE2009F18091F901803270F02091F4013F
:1016E0003091F50138872F831986BB86AA868C87AF
:1016F000CE0107960E94440786E0F801A4EFB1E00E
:1017000001900D928A95E1F70E94440A0E94360AE0
:10171000FF24F3946BCFC8010E944407F9CF311125
:1017200013C07A2DB98AA88A6E2D89890E94AC07C8
:1017300084EF91E00E94440786E0F60111928A95B9
:10174000E9F70E94360AB5CF25130FC094130DC0D8
:10175000E1100BC0F8018583C8010E94440786E0B0
:10176000F60111928A95E9F741CFC8010E94A507B9
:10177000882389F2EE2079F28091F901803208F411
:10178000BBCF2091F4013091F5013A8329831B826C
:10179000BD82AC828E83CE010196ACCFE83CF105D0
:1017A00008F03EC0FE2CEE2009F4B5CF25132AC068
:1017B000941328C08091F90180FD1BC0982F907F61
:1017C000C1F0F8018583903F31F0982F907F905FB2
:1017D0008F70892B8583C8010E94440786E0F80139
:1017E000A4EFB1E001900D928A95E1F70E94360ACC
:1017F000FDCE86E0F801A4EFB1E001900D928A954C
:10180000E1F7F4CEC8010E94A507811175CF809140
:10181000F90181608093F901C8010E944407E6CE76
:101820007A2DB98AA88A6E2D89890E94AC0786E034
:10183000F60111928A95E9F7D9CFEE2009F46BCF22
:10184000C8010E94A507F82E882309F464CF86E01A
:10185000F801A4EFB1E001900D928A95E1F784EFD1
:1018600091E00E94FD030E94440AC0CF81E08E25D2
:10187000D7CE1F93CF93DF93CDB7DEB72C970FB69C
:10188000F894DEBF0FBECDBF4F83588769877A8734
:101890008B879C87CE0107960E949A0A882369F05D
:1018A0008A859B85892B39F04F815885842F852324
:1018B0008F3F09F071C016E05FC086E0FE013796E9
:1018C000DE01119601900D928A95E1F78A859B853C
:1018D000892B89F38F81988589238F3F61F320912C
:1018E000C30130E0C9010196877099274091C20178
:1018F0004817190671F40E9482071092C3011092D2
:10190000C20186E0E4EFF1E0DF011D928A95E9F77C
:10191000D2CF96E0929FD001939FB00D1124AC538B
:10192000BE4FFE01319601900D929A95E1F780939A
:10193000C3010E94150ABFCF819FC00111248C539F
:101940009E4F0E949A0A8823E9F0E091C2011E9FEF
:10195000F0011124EC53FE4F40815181628173816B
:10196000848195810E94BB078091C20190E001961D
:10197000877099278093C2018091C2019091C30121
:101980008913DACF2C960FB6F894DEBF0FBECDBF09
:10199000DF91CF911F91089569857A858B859C850C
:1019A0000E94BB0788CF682F8091050190910601A6
:1019B0000C94A918682F80910501909106010C9450
:1019C000B41880910501909106010C94BF18809184
:1019D000FA0185958595859508958091FA0187701E
:1019E00008959091FA01977081E009F480E00895DC
:1019F0009091720292FB222720F9281751F080FB68
:101A000092F99093720280917102909172020C94FB
:101A1000F70D08958091720282FB882780F991E08A
:101A200089270C94F80C81E00C94F80C80E00C945D
:101A3000F80C80911E02089590911E02892B8093CC
:101A40001E020895809590911E02982390931E0285
:101A5000089510921E02089590911D02892B809383
:101A60001D020895809590911D02982390931D0268
:101A7000089510921D02089590911C02892B809365
:101A80001C020895809590911C02982390931C024B
:101A9000089510921C0208958091FB010895089505
:101AA0000C944F0D9091720292FD08C09091FB0131
:101AB000981721F08093FB010C94500D08958091AC
:101AC000FB01882329F01092FB0180E00C94500D5B
:101AD0000895E0910501F091060180911E02808336
:101AE000E0910501F0910601808190911D02892B02
:101AF0008083E0910501F0910601808190911C02A4
:101B0000892B80839091FB01992381F0E09105015D
:101B1000F09106018081892B80838091050190914D
:101B200006010E94151881110E945F0D8091050128
:101B3000909106010C94C11708950C949C0D9091FE
:101B4000720292FD10C098E0899F90011124622BCF
:101B50006093FA010E943D088091FA018595859570
:101B600085950C949D0D0C943D081092FA0180E02F
:101B70000C949D0D9091FA01809589238093FA0130
:101B8000282F277039F4282F082E000C330B9217BA
:101B9000130621F49091720292FF07C085958595F6
:101BA00085950E945E080C94B50D089590E080E044
:101BB0000E944F2221E0893E9E4F09F020E0822FB3
:101BC000089582E090E00C94472283E090E00C942A
:101BD0004722CF9384E090E00E944722C82F82E200
:101BE00090E00E944722982F8C2FCF910895CF9399
:101BF000C92F682F84E090E00E9455226C2F82E26A
:101C000090E0CF910C945522AB01BC018FE090E0A5
:101C10000C946722AB01BC0183E190E00C94672235
:101C200060E070E0CB010C940A0E60E070E0CB0144
:101C30000E94040E0C94100E69EE7EEF90E080E09E
:101C40000E94732260E082E090E00E94552260E0F2
:101C500083E090E00E9455221092BE011092BF01D5
:101C60001092C0011092C10160E084E090E00E94F7
:101C7000552260E082E290E00E94552260E085E01B
:101C800090E00E94552260E086E090E00E9455229C
:101C90006FEF87E090E00E94552240E050E0BA01EB
:101CA00088E090E00E94672260E08DE090E00E9472
:101CB000552240E050E0BA0188E190E00E9467229E
:101CC00060E087E190E00E94552240E050E0BA01D8
:101CD0008CE190E00E94672270E060E080E290E09A
:101CE0000E94732240E050E0BA0188E190E00E9437
:101CF00067220C94150E0C941C0E682F8EE090E059
:101D00000C9455220E94611960932C0270932D024D
:101D100080932E0290932F026093280270932902E1
:101D200080932A0290932B02089585B7806885BF1F
:101D300085B7806885BF0895089508950C949C0E1A
:101D400008950C94A00E0E94950E80E891E10E94E7
:101D5000B1190E949D0E0C949E0E81E008950C9482
:101D6000AD0E089508950E94B10E0C94B20E0E941B
:101D70004C190E9468120C94A10E8F929F92AF9200
:101D8000BF92CF92DF92EF92FF920F931F93CF9368
:101D9000DF93CDB7DEB72A970FB6F894DEBF0FBE3C
:101DA000CDBF0E948A1281110E94820E50E2852EC0
:101DB00052E0952E10E000E0A02E802F0E94AB1183
:101DC0006C01F401E190F1904F01E816F90609F475
:101DD0005CC08091300281FD0E94B411C7018C2546
:101DE0009D25B12CEE24E394F12C9C012E213F2162
:101DF000232B09F444C00E94AF0E8823A9F0BE82B1
:101E0000AF82CE20DF2081E0CD2809F480E08887F2
:101E10000E9455198160782F9A8789874E815F814A
:101E200068858A850E94BF03000F111FF801E05EDC
:101E3000FD4F80819181E826F926F182E0820E949F
:101E40008B140E94B51790911F028917A9F10E9467
:101E5000B51780931F022A960FB6F894DEBF0FBE07
:101E6000CDBFDF91CF911F910F91FF90EF90DF9049
:101E7000CF90BF90AF909F908F900C94B703B39486
:101E8000EE0CFF1CFDE0BF12B0CF0F5F1F4F043000
:101E9000110509F091CF8FEF89838A831B820E94FD
:101EA00055198160782F9D838C8349815A816B817C
:101EB0008D810E94BF03C3CF2A960FB6F894DEBF70
:101EC0000FBECDBFDF91CF911F910F91FF90EF908B
:101ED000DF90CF90BF90AF909F908F90089590E04B
:101EE00080E008950895972F70E02DE0929F600D97
:101EF000711D1124FB0194E3899FE00DF11D112454
:101F0000EE0FFF1FE455FF4F859194910895FC015A
:101F1000EE0FFF1FEC51FE4F859194910895CF93E2
:101F2000DF930E94A610EC01811520E5920708F0CE
:101F300042C0811530E4930708F0BDC0883E91058A
:101F400028F5803E910508F09DC0883A910588F4F7
:101F5000853A910508F08FC08130910509F492C04F
:101F6000009709F48FC0049708F08CC0D0E0C0E05F
:101F700089C08F3B910508F489C0805C9109C03C01
:101F8000D105A0F30E94870FEC017CC0811590421F
:101F900050F4C11581E0D80708F074C0CD3ED105DA
:101FA00028F3D0656FC0C11590E3D90708F079C058
:101FB000CE019F70E7CF811525E5920758F5811571
:101FC00034E5930708F0A6C0811542E5940750F464
:101FD000C11581E5D80708F471C0DC2FCC27C16F8B
:101FE000D06A50C0982F969596959E0123703327FE
:101FF000C115D34508F07FC0C1E0D0E002C0CC0FCE
:10200000DD1F2A95E2F720E2929FC0011124C82B20
:10201000D92B6FC0C11589E5D807A8F4C11598E57B
:10202000D90708F07CC0C11526E5D20708F09ECF7D
:102030008C2F0E943D11C82FD0E0DC2FCC27CC275D
:10204000DF71D0621FC0C1153AE5D30708F46CC038
:10205000CE0190568115904208F088CF8D2F8F7158
:102060000E943D1190E0982F882788279F719C013E
:102070002C2BE901E6CFC55AD0E0C758DE4FC88106
:10208000D0E0D064CE01DF91CF910895C85AD0E05E
:10209000CC0FDD1FC55BDE4F0990D881C02DD46405
:1020A000F1CFCE019927D3FF03C0EC01D86CEACF62
:1020B000EC01D06CE7CFDF70D06AE4CFCE01E4E072
:1020C00096958795EA95E1F783702C2F26952695AE
:1020D000237090E2299F90011124382B8C2F83705C
:1020E000C1E0D0E002C0CC0FDD1F8A95E2F7C22B21
:1020F000D32BDC68C7CFC1E0D0E002C0CC0FDD1F1E
:102100002A95E2F730E2939FC0011124C82BD92B06
:10211000DA68B8CFD82FCC27C46FD06AB3CFDC2F02
:10212000CC27C06FD06AAECF8C2F8F700E943D112C
:1021300034E0D695C7953A95E1F7CF709C2FEC0126
:10214000D069A0CF0E94730F0C948F0F8238910535
:10215000B1F1B0F48133910509F475C048F48932C6
:10216000910509F469C08A32910509F473C0089594
:102170008533910509F459C08933910501F108951A
:10218000833E9105A9F138F4803E9105F9F0823E35
:10219000910549F10895863E9105A9F1873E910583
:1021A000C9F1843E910519F52091720221FF1FC0EB
:1021B0008091710284FD14C087EE90E00895209113
:1021C00071022370A1F080EE90E0089520917102D9
:1021D00020FD47C03091720230FF09C024FF44C087
:1021E00090E080E004C02091710222FDF7CF0895B5
:1021F0002091710222FD3BC03091720230FDE3CF8D
:1022000024FFF5CFEDCF2091710223FFF0CF24FD05
:10221000E7CFD2CF2091710223FD2CC03091720202
:1022200031FFEECF84EE90E008952091710225FFFA
:10223000DECF89E290E008952091710225FFD7CF8B
:1022400085E390E008952091710226FFD0CF8AE2C5
:1022500090E008952091710226FFC9CF81E390E0BC
:10226000089589E390E0089583EE90E0089582EE6A
:1022700090E0089586EE90E008959091710292FFAB
:1022800006C0282F28712830F9F4877F846093FFD7
:1022900006C0282F28712831F1F4877E84612091AF
:1022A000720220FF06C0382F38713830D9F4877F8A
:1022B000816021FF06C0282F28712831D1F4877E44
:1022C000816194FD877E0895282F24712430F9F6CA
:1022D0008B7F8860DCCF282F2471243101F78B7E1F
:1022E0008861DDCF382F3171313019F78E7F8860EA
:1022F000E0CF282F2171213121F78E7E8861E1CF37
:1023000080E0089508950E94D60D811102C00E94B8
:102310007B0E0E94E10D809330020E94E90D9093A4
:102320007202809371020E9482110E94E50D682F53
:1023300070E090E080E00E94DB076091BA0170914C
:10234000BB018091BC019091BD010C9415080C94C7
:1023500056020C947002E82FF0E0EE0FFF1FE558D4
:10236000FD4F808191810895089580EA8A95F1F763
:10237000089500C008950C94B511F894E82FE295E3
:10238000EF70F0E031A1282F2F7081E090E001C0C4
:10239000880F2A95EAF7982F9095932391A392A1FD
:1023A000892B82A378940895CF93DF9384EF0E94C2
:1023B000BD1185EF0E94BD1185E90E94BD1183E921
:1023C0000E94BD11CCE7D1E089918F3F11F00E94AE
:1023D000BD1181E0C938D807B9F7DF91CF910895D1
:1023E000AF92BF92CF92DF92EF92FF920F931F9323
:1023F000CF93DF938C01B62EC62FD0E0CE01875746
:102400009E4F7C01FC0120812F3F09F453C0F894BA
:10241000E22FE295EF70F0E031A12F7081E090E0C3
:1024200001C0880F2A95EAF7932F982B91A392A1C8
:102430008095892382A378940E94B911ECE7F1E09A
:1024400030E020E0D12CC12C41E050E081918F3F61
:10245000E1F1A82FA295AF70B0E090966C9170E07A
:102460008F7002C0759567958A95E2F760FD2DC063
:10247000CA01022E02C0880F991F0A94E2F7C82AE7
:10248000D92A2F5F3F4F2D30310501F7F7018081A9
:102490008F3F11F00E94BD1161E0C114D10409F415
:1024A00060E08B2D0E94BB11CC0FDD1FC00FD11F30
:1024B000D982C882DF91CF911F910F91FF90EF9049
:1024C000DF90CF90BF90AF90089590E080E0D7CF9D
:1024D0000E94D411A3E7B2E011961C921E92EBE782
:1024E000F2E01182108213961C921E9212971382B0
:1024F000128215961C921E921497158214821796BA
:102500001C921E9216971782168284E00E94D512A2
:102510000C944503FF920F931F93CF93DF93CDB796
:10252000DEB728970FB6F894DEBF0FBECDBF8E0181
:102530000F5F1F4F88E0F80111928A95E9F7F12C9F
:102540006F2DC8010E94F011F394F4E0FF12F8CF50
:1025500048E050E0B80183E792E00E943A22FF246D
:10256000F394009709F4F12C892B41F088E0F801ED
:10257000A3E7B2E001900D928A95E1F72F2D44E098
:102580006BE772E083E792E00E94D6120E944B0351
:102590008F2D28960FB6F894DEBF0FBECDBFDF910A
:1025A000CF911F910F91FF9008950895FF920F937F
:1025B0001F93CF93DF93F82E092F162FD72FC42FF9
:1025C000222349F081E0809333020E9455199093B1
:1025D000320280933102809133028823A1F08091EE
:1025E0003102909132020E946D19059760F0EF2D33
:1025F000F02FA12FBD2F90E080E0D0E08C179D0739
:1026000044F010923302DF91CF911F910F91FF9010
:102610000895219131912D933D930196EFCF0E9422
:10262000D1180E94221B0E943B1B0E944D1B0E943E
:10263000B30EFBCF80913A0280FF12C060910C0173
:1026400085E0689FB001112475956795759567952C
:1026500060387105A8F561157105A1F1862F0895FF
:1026600081FF09C060910C0185E0689FB0011124D1
:1026700075956795EDCF60910C0182FD0AC0809140
:1026800039028823D1F090910B0160910C018917D8
:1026900028F085E0689FB0011124DACF869FB00151
:1026A000112485E0869F9001879F300D1124692FAA
:1026B00070E0C9010E940C22CBCF65E070E0CECF64
:1026C0008FE7089581E0089580913A0280FF0CC061
:1026D0006091080170E0759567957595679561152E
:1026E000710549F1862F089581FF06C060910801A8
:1026F00070E075956795F3CF6091080182FD0BC07E
:10270000909138029923A1F060910701809108010E
:10271000961738F0682F70E06038710500F38FE786
:102720000895899FC001112470E00E940C22F4CF0B
:1027300061E070E0D7CF81E008958D3E31F40E94D2
:102740001A13819580933E0208958E3E19F40E94DB
:102750001A13F8CF8F3E31F40E941A13819580939B
:102760003D020895803F19F40E941A13F8CF893F63
:1027700029F40E94641380933F0208958A3F21F454
:102780000E9464138195F7CF8B3F31F40E9464134C
:1027900081958093400208958C3F19F40E94641340
:1027A000F8CF9FE0980F983070F4815F990B21E08B
:1027B00030E001C0220F8A95EAF780913C02822B1B
:1027C00080933C0208958D3F31F480913A028160FC
:1027D00080933A0208958E3F21F480913A028260FC
:1027E000F7CF8F3FB9F780913A028460F1CF4091E3
:1027F0003D028D3E59F480913E0287FF0DC010923C
:102800003E0241110BC01092390208C08E3E81F485
:1028100080913E0218169CF3442381F080913F0280
:1028200090914002892B09F05AC010923802089505
:102830008F3E49F447FFF0CF10923D0280913E0257
:102840008111ECCFE0CF803F19F41416ACF3E4CF44
:1028500090913F02893F29F41916F4F610923F0235
:10286000DBCF8A3F19F497FFD7CFF8CF9091400282
:102870008B3F29F497FFD0CF10924002CDCF8C3FF1
:1028800019F41916CCF3C8CF9FE0980F983090F444
:10289000815F990B21E030E0B90102C0660F771F1C
:1028A0008A95E2F7CB01809590913C028923809331
:1028B0003C02B2CF8D3F31F480913A028E7F8093FB
:1028C0003A02AACF8E3F21F480913A028D7FF7CF52
:1028D0008F3F09F0A1CF80913A028B7FF0CF08950E
:1028E0000E9455199C0190913D0280913E02982BC7
:1028F00021F0309337022093360290913F0280916D
:102900004002982B21F030933502209334028BE360
:1029100092E00C94DB17EF92FF920F931F93CF93EB
:10292000DF9300D000D000D0CDB7DEB786E0EBE378
:10293000F2E0DE01119601900D928A95E1F7E090A8
:102940003D02F0903E0200913F0210914002109231
:102950003D0210923E0210923F02109240028E2DD4
:102960008F2991F080913602909137020E946D1963
:10297000AC0190913902992309F43FC080910D0177
:102980008417150608F447C0802F812B91F08091A1
:102990003402909135020E946D19AC019091380279
:1029A000992309F477C0809109018417150608F46A
:1029B0007FC080913D0290913E02892B90913F0211
:1029C000892B90914002892B11F00E94701486E0AF
:1029D000FE013196ABE3B2E001900D928A95E1F7EA
:1029E00026960FB6F894DEBF0FBECDBFDF91CF9114
:1029F0001F910F91FF90EF90089520910E018AE0B2
:102A0000289F900111242417350708F0BDCF9F5F40
:102A10009093390202C09F3FD1F7EE2059F00E94F7
:102A20001A139FEF1E140CF491E0899F802D11243E
:102A300080933D02FF2059F00E941A139FEF1F144C
:102A40000CF491E0899F802D112480933E023091F7
:102A50003D02332309F498CF20913E02222309F44A
:102A600093CF45EB3403C0011124992359F090937F
:102A70003D0245EB240390011124332339F03093B8
:102A80003E0282CF81E080933D02F3CF81E08093CC
:102A90003E027ACF20910A018AE0289F90011124FA
:102AA0002417350708F085CF9F5F9093380202C046
:102AB0009F3FD1F7002359F00E9464139FEF101637
:102AC0000CF491E0899F802D112480933F02112303
:102AD00059F00E9464139FEF11160CF491E0899F46
:102AE000802D11248093400230913F02332309F45A
:102AF00060CF20914002222309F45BCF45EB3403E1
:102B0000C0011124992359F090933F0245EB24030F
:102B100090011124332339F0309340024ACF81E0F1
:102B200080933F02F3CF81E08093400242CF86E062
:102B3000EBE3F2E0DF011D928A95E9F7109239028A
:102B40001092380210923A0208950F931F93CF9378
:102B5000DF93C42FD22FFC0182818823C9F04093D8
:102B600043020E945519909342028093410280E2F1
:102B70008C0F883008F050C0C77081E001C0880F0A
:102B8000CA95EAF7DF91CF911F910F910C94090537
:102B900010914302141335C080914102909142027A
:102BA0000E946D19883C910560F5C0E2CD0F1D179C
:102BB000B9F080E2810F883040F4177081E001C0E5
:102BC000880F1A95EAF70E941005C83048F481E092
:102BD0009D2F977001C0880F9A95EAF70E9409050A
:102BE000802F0E940105C830B8F4D77081E001C081
:102BF000880FDA95EAF7DF91CF911F910F910C942E
:102C0000100580E28C0F883038F4C77081E001C075
:102C1000880FCA95EAF7EFCFDF91CF911F910F91FF
:102C200008950F939C01CB01243F4CE5340759F1E3
:102C3000A8F4293DFCE53F0701F12A3D4CE53407A6
:102C4000D1F1283D3C4591F406E221EE41EE68EDDC
:102C50007CE50E94A51580E00F910895263FFCE5D4
:102C60003F07E9F0B0F0273F3C45F9F0FC018281D5
:102C7000882339F110924302EFCF07E225EE45EEAB
:102C800069ED7CE5E6CF06E221EE40EE64EF7CE5FF
:102C9000E0CF07E225EE44EE65EF7CE5DACF06E211
:102CA00021EE42EE66EF7CE5D4CF07E225EE46EE5C
:102CB00067EF7CE5CECF08E221E045EE6AED7CE5EA
:102CC000C8CF81E0C9CFCF93DF93EC01FB018281B4
:102CD000882309F419C1C230FCE5DF07C0F1C63111
:102CE0009CE5D90730F09E012B5F3C45293031052A
:102CF00070F50E94E90D9093720280937102C031C9
:102D0000ECE5DE0709F4CFC008F05BC0C8308CE505
:102D1000D80709F4B6C088F5C430ECE5DE0709F43D
:102D2000A8C0C0F4C2308CE5D80709F49CC08091DB
:102D300071028260C330DC4509F498C08091710251
:102D4000909172020E94F70D0E94820780E0DF914D
:102D5000CF910895809171028061C630ECE5DE0765
:102D600009F484C0809171028860C730DC4508F4A2
:102D70007DC080917102806279C0CC308CE5D8072B
:102D800009F489C070F4809171028C60CA30ECE55E
:102D9000DE0709F46BC008F478C0809171028E7F61
:102DA00065C0CE308CE5D80709F479C080917102F6
:102DB0008B7FCF30DC4508F459C0809171028F7E43
:102DC00055C0CC3FECE5DE0709F457C030F5C33100
:102DD0008CE5D80709F46FC078F4C131ECE5DE0763
:102DE00009F465C0C231DC4509F0A8CF0E94820712
:102DF000809171028F773AC0C5318CE5D80709F40C
:102E000062C008F476C0809172028160CB3FDC45DD
:102E100009F094CF8093720291CFC115FDE5DF07D1
:102E200009F44DC088F4809172028D7FCE3F9CE5FD
:102E3000D90781F3809172028E7FCF3FDC4550F33A
:102E4000809172028360E6CFC230FDE5DF0709F4AE
:102E500059C008F444C080E0C330DD4509F06ECFAE
:102E60000E947D0E6BCF8091710281608093710210
:102E700065CF809171028460F9CF80917202826087
:102E8000C9CF809171028064F1CF0E948207809146
:102E900071028068EBCF809171028D7FE7CF8091C6
:102EA0007102877FE3CF809171028F7DDFCF8091A8
:102EB00071028F7BDBCF80917102837FD7CF8091AE
:102EC00072028C7FA7CF8091710282FB992790F9C3
:102ED00021E0922790FB82F990FB83F9C7CF809184
:102EE0007202982F909591708E7F892B90FB81F9BB
:102EF00091CF0E94820790917102892F97FB87F9E9
:102F00008058B4CF81E0ACCF81E021CFCF93DF9365
:102F1000EB0186319C4511F50E94190D9A81992388
:102F200099F08A7A91E009F490E09093440281113B
:102F300009C089E20E94D30C0E94690D80E0DF91F4
:102F4000CF91089585E3F6CF80914402811104C0AA
:102F500089E20E94DA0CF0CF85E3FBCF81E0EFCF6E
:102F600090934A02809349020895E0914902F091BA
:102F70004A02309721F00190F081E02D099480E021
:102F80000895E0914902F0914A02309799F020911A
:102F90001901222359F02091710227FF07C0DC019B
:102FA0002C9111962C93119725E02C930280F3819C
:102FB000E02D09940895E0914902F0914A0230977A
:102FC00039F022E0DC012C930480F581E02D099496
:102FD000089520914702309148022817390771F06F
:102FE0009093480280934702E0914902F0914A028F
:102FF000309721F00680F781E02D09940895209103
:103000004502309146022817390771F09093460225
:1030100080934502E0914902F0914A02309721F0F5
:103020000084F185E02D09940895FC013296809189
:103030001901882321F0809171029EE187FF96E0BB
:1030400080E0915008F4089521912223D1F38F5FFD
:10305000F8CF662301F1209119012223F1F020918C
:10306000710227FF1AC0462F4695469546954E3168
:1030700090F4677021E030E002C0220F331F6A95A0
:10308000E2F7840F911DFC01828190E0282339230F
:1030900081E0232B69F480E00895FC0132960896C4
:1030A0002191261721F0E817F907D1F7F4CF81E035
:1030B00008959C01FC0132969FEF80E041914617F4
:1030C00051F09F3F19F4411101C0982F8F5F863056
:1030D000A9F79F3F09F40895290F311D97FD3A95EF
:1030E000F90162830895FC01329608962191261316
:1030F00003C0DF0111971C92E817F907B9F708958B
:10310000E62FE695E695E695EE3168F4E80FF92F9F
:10311000F11D677021E030E001C0220F6A95EAF7E7
:103120008281822B82830895E62FE695E695E695C7
:10313000EE3170F4E80FF92FF11D677021E030E0F7
:1031400001C0220F6A95EAF7209582812823228305
:10315000089520911901222329F02091710227FD61
:103160000C9480180C94591820911901222329F0ED
:103170002091710227FD0C9494180C947318FC0193
:10318000329680911901882351F08091710287FF56
:1031900006C08EE1DF011D928A95E9F7089586E069
:1031A000F9CF0895089508950C94D31880918B0257
:1031B000843049F10E94D41880E00E94B703109235
:1031C0004B0288E190E020E40FB6F894A895809334
:1031D00060000FBE2093600083B7817F846083BF4F
:1031E00083B7816083BF7894889583B78E7F83BFD0
:1031F0000FB6F894A8958091600088618093600074
:10320000109260000FBE08950895CF930E94D218C7
:103210000E948A120E940419C0E08C2F0E94AB11F8
:10322000892B31F4CF5FC430C1F780E0CF9108958E
:1032300081E0FCCF08950C941A190E9482070E9425
:10324000B5170E94B7030C941B191F921FB61F924B
:1032500011248F939F93AF93BF9380914B02811161
:1032600013C08091830290918402A0918502B09155
:1032700086024196A11DB11D809383029093840222
:10328000A0938502B0938602BF91AF919F918F91D9
:103290001F901FBE1F90189582E084BD93E095BDDE
:1032A0009AEF97BD80936E0008952FB7F8948091A0
:1032B000830290918402A0918502B09186022FBF73
:1032C00008952FB7F89460918302709184028091E1
:1032D0008502909186022FBF08959C014FB7F89404
:1032E0008091830290918402A0918502B091860220
:1032F0004FBF821B930B089578941F921FB61F92A5
:1033000011248F939F93AF93BF93809183029091E9
:103310008402A0918502B09186020196A11DB11D83
:103320008093830290938402A0938502B0938602D7
:10333000BF91AF919F918F911F901FBE1F901895C5
:1033400087E797E7909301088093000888E19AE067
:103350000FB6F894A895809360000FBE909360001C
:10336000FFCF90938F0180938E01089580916F021B
:10337000089590918B02943031F580934C027093B4
:103380004E0260934D0282E08093E9008FEF9091AE
:10339000E800815095FD06C095ED9A95F1F7000083
:1033A0008111F5CF8091E80085FF0DC050E040E02D
:1033B00063E070E08CE492E00E94D81B8091E8000A
:1033C0008E778093E8000895BC0184E00C94B919CD
:1033D000BC0183E00C94B9199C0182E08093E90060
:1033E0009FEF8091E800915085FD06C085ED8A959C
:1033F000F1F700009111F5CF8091E80085FF0CC036
:1034000050E040E066E070E0C9010E94D81B809166
:10341000E8008E778093E8000895CF93DF93EC0166
:10342000809119018823B1F18091710287FF32C028
:1034300060E282E08093E9008FEF9091E800815094
:1034400095FD06C095ED9A95F1F700008111F5CF35
:103450008091E80085FF1BC08091190170E050E069
:1034600040E0811104C050E040E068E070E0CE012F
:103470000E94D81B8091E8008E778093E80080E25C
:10348000FE01AFE4B2E001900D928A95E1F7DF9181
:10349000CF91089568E081E0CDCF80918A028111BB
:1034A00009C00E94681D0E94C51D8091E2008460D1
:1034B0008093E200089510928A0208950895089575
:1034C000089542E061EC81E00E94E41C42E261EC7C
:1034D00082E00C94E41C80918D02833009F45FC07B
:1034E00030F48130C1F1823009F49BC008958A30F4
:1034F00009F487C08B3009F46DC0893009F04EC0E3
:1035000080918C02813209F049C0809190029091A3
:103510009102029708F042C08091E800877F809373
:10352000E8008091E80082FF35C09091F30080911F
:10353000F200029729F48091F1008B7F813021F411
:103540008091F10080936F028091E8008B778093E7
:10355000E8000C94181D80918C02813AF9F4809156
:10356000E800877F8093E80080919002909191021B
:10357000892B61F460E28FE492E070E00E94271CE6
:103580008091E8008B778093E800089560E090E0F8
:1035900080E0F3CF80918B028111C3CF0895809199
:1035A0008C02813AD9F78091900290919102892BF7
:1035B000A9F78091E800877F8093E8008091E80078
:1035C00080FFFCCF809119018093F1008091E80089
:1035D0008E77BDCF80918C02813201F7809190026D
:1035E00090919102892BD1F68091E800877F80939A
:1035F000E8000E94181D80918E02809319010C949E
:10360000820780918C02813249F68091E800877FA1
:103610008093E8000E94181D80918F0280937002B1
:10362000089580918C02813A09F0B8CF8091E8002A
:10363000877F8093E8008091E80080FFFCCF809135
:103640007002C2CF84B7877F84BF0FB6F894A89565
:1036500080916000886180936000109260000FBECE
:1036600080E890E00FB6F894809361009093610039
:103670000FBE0C94A30E0E94681D0E94C51DE2EEB1
:10368000F0E080818460808378940E944E200E94C4
:10369000B70E8FE091E00C94B01780918B028530CB
:1036A00031F480918B02853021F00E941D190C9419
:1036B000BD0E0E94D61880918902882391F30E9442
:1036C0000519882371F30E94C21B0E948207E9CF6B
:1036D0000C946A1B292F33272330310519F168F424
:1036E0002130310509F444C02230310509F445C0C8
:1036F00090E080E030E020E025C02132310549F142
:1037000022323105A9F780E490E02DE133E0611524
:103710007105C1F086EB90E027E632E0613071057B
:1037200089F0E6CF99278130910581F0009729F043
:103730000297F1F6E4EEF1E002C0E6E1F2E08491F6
:1037400090E09F01FA01318320830895E2E0F2E0E6
:10375000F6CF89E090E02CE232E06115710591F33B
:1037600089E090E025E432E06130710559F3C0CF83
:1037700082E190E025E532E0E5CF8BE390E02AE1BD
:1037800032E0E0CF80E189BD82E189BD09B400FE6D
:10379000FDCF8091D8008F7D8093D8008091E0008C
:1037A00082608093E0008091E00081FDFCCF08956D
:1037B000AF92BF92CF92DF92FF920F931F93CF935E
:1037C000DF936C01EB018A010E94371DF82E8111F5
:1037D00023C00115110539F0F80180819181C81BC2
:1037E000D90BC80ED91EB12CA12C2097A9F080911D
:1037F000E80085FD22C08091E8008E778093E80084
:1038000001151105A1F0F80180819181A80EB91E62
:10381000B182A08285E0F82E8F2DDF91CF911F918C
:103820000F91FF90DF90CF90BF90AF9008950E94CE
:10383000371D8823D1F2F82EEFCFF60181916F0169
:103840008093F1002197FFEFAF1ABF0ACECFFC01A2
:10385000809192029091930286179707A0F06115CC
:10386000710529F49091E8009E779093E80090E02C
:103870006115710551F4911108C08091E80082FF33
:1038800034C080E00895BC01F2CF80918B02882380
:10389000C1F18530C1F18091E80083FD30C0809195
:1038A000E80082FDEACF8091E80080FFE1CF8091BF
:1038B000F3002091F200382F6115710519F02830BE
:1038C000310558F091E02830310509F090E0209161
:1038D000E8002E772093E800CBCF81918093F10010
:1038E000615071092F5F3F4FE7CF80918B02882392
:1038F00041F0853041F08091E80083FFBECF81E048
:10390000089582E0089583E00895FC018091920279
:103910009091930286179707A0F06115710529F41D
:103920008091E8008E778093E80090E06115710542
:1039300051F4911108C08091E80082FF35C080E009
:103940000895BC01F2CF80918B028823C9F18530A4
:10395000C9F18091E80083FD31C08091E80082FDCB
:10396000EACF8091E80080FFE1CF8091F3002091C1
:10397000F200382F6115710519F02830310558F023
:1039800091E02830310509F090E08091E8008E77D1
:103990008093E800CBCF84918093F1003196615001
:1039A00071092F5F3F4FE6CF80918B02882341F052
:1039B000853041F08091E80083FFBDCF81E008951C
:1039C00082E0089583E00895982F973028F08F7053
:1039D0008093E90081E008959093E900242F762FE9
:1039E00050E0981731F07091EC002091ED0050916B
:1039F000F00021FD02C09F5FE8CF3091EB003E7FD9
:103A00003093EB003091ED003D7F3093ED0030912D
:103A1000EB0031603093EB007093EC002093ED00ED
:103A20005093F0002091EE0027FDE5CF80E008954F
:103A300080918C0287FF13C08091E80082FF06C04E
:103A40008091E8008B778093E80004C080918B021E
:103A50008111F2CF089580918B028823D9F3809150
:103A6000E80080FFF8CF8091E8008E77ECCF2091BE
:103A7000E4003091E50095E6A9012091EC00822F49
:103A8000817020FF06C08091E80080FF06C080E0C2
:103A900008952091E80022FD1AC080918B028823AE
:103AA00089F0853089F08091EB0085FD0FC0209171
:103AB000E4003091E50042175307F9F29150E1F626
:103AC00084E0089582E0089583E0089581E00895F8
:103AD0000E94D61D0E94DE1DE0EEF0E08081816034
:103AE0008083E8EDF0E080818F77808319BCA7EDBB
:103AF000B0E08C918E7F8C9380818F7E808310923A
:103B00008A0208950F931F93CF93DF930E94D61DCF
:103B10000E94DE1DC8EDD0E088818F778883888180
:103B20008068888388818F7D888319BC10928B027E
:103B300010928702109289021092880200EE10E023
:103B4000F80180818B7F808388818160888342E057
:103B500060E080E00E94E41CE1EEF0E080818E7F76
:103B60008083E2EEF0E080818160808380818860E4
:103B70008083F80180818E7F808388818061888343
:103B8000DF91CF911F910F910895E8EDF0E08081D2
:103B90008F7E8083E7EDF0E080818160808384E028
:103BA00082BF81E080938A020C94821DE8EDF0E0F0
:103BB00080818E7F80831092E20008951092DA0057
:103BC0001092E10008951F920F920FB60F921124E8
:103BD0002F933F934F935F936F937F938F939F9315
:103BE000AF93BF93EF93FF938091E10082FF0BC0EF
:103BF0008091E20082FF07C08091E1008B7F80937B
:103C0000E1000E944D208091DA0080FF19C0809170
:103C1000D80080FF15C08091DA008E7F8093DA0093
:103C20008091D90080FF96C080E189BD82E189BD85
:103C300009B400FEFDCF81E080938B020E944D1AF3
:103C40008091E10080FF19C08091E20080FF15C0E3
:103C50008091E2008E7F8093E2008091E20080619B
:103C60008093E2008091D80080628093D80019BCD4
:103C700085E080938B020E945F1A8091E10084FFAF
:103C80002BC08091E20084FF27C080E189BD82E1E2
:103C900089BD89B5982F917080FFFBCF8091D800A6
:103CA0008F7D8093D8008091E1008F7E8093E1002A
:103CB0008091E2008F7E8093E2008091E20081603B
:103CC0008093E20080918702882309F449C084E050
:103CD00080938B020E94601A8091E10083FF29C0CB
:103CE0008091E20083FF25C08091E100877F80936F
:103CF000E10082E080938B02109287028091E100C4
:103D00008E7F8093E1008091E2008E7F8093E200BD
:103D10008091E20080618093E20042E060E080E018
:103D20000E94E41C8091F00088608093F0000E9463
:103D30005E1AFF91EF91BF91AF919F918F917F910B
:103D40006F915F914F913F912F910F900FBE0F9008
:103D50001F90189519BC10928B020E945B1A70CFAD
:103D60008091E30087FD93E090938B02B3CF1F9285
:103D70000F920FB60F9211242F933F934F935F939F
:103D80006F937F938F939F93AF93BF93CF93DF9363
:103D9000EF93FF93D091E900DF708091EC00C82F82
:103DA000C17080FDC0E81092E9008091F000877F2B
:103DB0008093F00078940E94FB1E1092E90080919D
:103DC000F00088608093F000CD2BCF70C093E900A5
:103DD000FF91EF91DF91CF91BF91AF919F918F9123
:103DE0007F916F915F914F913F912F910F900FBEF7
:103DF0000F901F9018951F93CF93DF93CDB7DEB729
:103E0000AA970FB6F894DEBF0FBECDBF8CE892E044
:103E10002091F100FC012193CF01F2E084399F074A
:103E2000B9F70E946B1A8091E80083FF1EC1809150
:103E30008C0290918D029A3008F017C1E92FF0E0C2
:103E4000E755FD4D0C942022803899F0823809F016
:103E50000CC1809190028F70873008F006C180936A
:103E6000E9008091EB0085FB882780F91092E9003A
:103E700006C0809188029091890291118260909190
:103E8000E800977F9093E8008093F1001092F10092
:103E90008091E8008E77E5C0882309F4D3C0823092
:103EA00009F0E3C080918E028111D6C0809190020A
:103EB0008F702FEF280F263008F0D7C08093E900CD
:103EC0002091EB0020FFC8C0933031F48091EB00CB
:103ED00080628093EB00C0C09091EB009061909362
:103EE000EB0021E030E001C0220F8A95EAF7209331
:103EF000EA001092EA008091EB008860EACF81111D
:103F0000B4C010918E021F778091E3008078812BDE
:103F10008093E3008091E800877F8093E8000E940F
:103F2000181D8091E80080FFFCCF8091E30080683D
:103F30008093E30082E0111183E080938B0295C0AF
:103F40008058823008F091C080918E0290918F024B
:103F50008C3D23E09207A1F583E08A838AE289837E
:103F60004FB7F894DE01139620E03EE051E2E32FD4
:103F7000F0E050935700E49120FF03C0E295EF700A
:103F80003F5FEF708E2F90E0EA30C0F0C7968D93C0
:103F90009D932F5F243159F74FBF8091E800877FB1
:103FA0008093E8006AE270E0CE0101960E94271C2F
:103FB0008091E8008B778093E80057C0C096E7CFE8
:103FC0006091900270919102AE014F5F5F4F0E942D
:103FD000681BBC01892B09F448C09091E800977FC9
:103FE0009093E80089819A810E94851CE1CF8038F6
:103FF000E1F58091E800877F8093E8008091870257
:104000008093F10045CF811130C090918E029230A3
:1040100060F58091E800877F8093E80090938702A5
:104020000E94181D80918702882311F084E005C04A
:104030008091E30087FDFACF81E080938B020E949C
:10404000611A13C080918E02813079F481E093303F
:1040500009F080E0809389021092E9008091E800E5
:10406000877F8093E8000E94181D8091E80083FFFD
:104070000AC08091E800877F8093E8008091EB0080
:1040800080628093EB00AA960FB6F894DEBF0FBE55
:10409000CDBFDF91CF911F9108950895CF93809167
:1040A0008B028823A1F0C091E900CF709091EC00C1
:1040B000892F817090FD80E8C82B1092E9008091D3
:1040C000E80083FD0E94FB1ECF70C093E900CF91F2
:1040D00008950E947D200C9465210E945E2158F075
:1040E0000E94572140F029F45F3F29F00C944E21A3
:1040F00051110C9499210C9454210E94762168F35B
:104100009923B1F3552391F3951B550BBB27AA2790
:1041100062177307840738F09F5F5F4F220F331FCA
:10412000441FAA1FA9F335D00E2E3AF0E0E832D092
:1041300091505040E695001CCAF72BD0FE2F29D095
:10414000660F771F881FBB1F261737074807AB0767
:10415000B0E809F0BB0B802DBF01FF2793585F4FDC
:104160003AF09E3F510578F00C944E210C94992121
:104170005F3FE4F3983ED4F3869577956795B795BE
:10418000F7959F5FC9F7880F911D9695879597F9C9
:104190000895E1E0660F771F881FBB1F6217730742
:1041A0008407BA0720F0621B730B840BBA0BEE1F57
:1041B00088F7E09508950E94E2206894B1110C946C
:1041C000992108950E947E2188F09F5798F0B92F79
:1041D0009927B751B0F0E1F0660F771F881F991F3C
:1041E0001AF0BA95C9F714C0B13091F00E94982125
:1041F000B1E008950C949821672F782F8827B85F35
:1042000039F0B93FCCF3869577956795B395D9F793
:104210003EF490958095709561957F4F8F4F9F4F9D
:104220000895E89409C097FB3EF4909580957095A9
:1042300061957F4F8F4F9F4F9923A9F0F92F96E9F2
:10424000BB279395F695879577956795B795F11167
:10425000F8CFFAF4BB0F11F460FF1BC06F5F7F4F04
:104260008F4F9F4F16C0882311F096E911C0772316
:1042700021F09EE8872F762F05C0662371F096E81F
:10428000862F70E060E02AF09A95660F771F881FEE
:10429000DAF7880F9695879597F9089597F99F67AC
:1042A00080E870E060E008959FEF80EC08950024BE
:1042B0000A941616170618060906089500240A948B
:1042C00012161306140605060895092E0394000C11
:1042D00011F4882352F0BB0F40F4BF2B11F460FFA0
:1042E00004C06F5F7F4F8F4F9F4F089557FD9058C9
:1042F000440F551F59F05F3F71F04795880F97FBAA
:10430000991F61F09F3F79F0879508951216130663
:104310001406551FF2CF4695F1DF08C01616170692
:104320001806991FF1CF86957105610508940895C7
:10433000E894BB2766277727CB0197F908950E9459
:10434000B2210C9465210E94572138F00E945E2111
:1043500020F0952311F00C944E210C94542111243B
:104360000C9499210E94762170F3959FC1F3950FCB
:1043700050E0551F629FF001729FBB27F00DB11DE9
:10438000639FAA27F00DB11DAA1F649F6627B00D79
:10439000A11D661F829F2227B00DA11D621F739F62
:1043A000B00DA11D621F839FA00D611D221F749F70
:1043B0003327A00D611D231F849F600D211D822FB7
:1043C000762F6A2F11249F5750409AF0F1F08823DE
:1043D0004AF0EE0FFF1FBB1F661F771F881F91500B
:1043E0005040A9F79E3F510580F00C944E210C944B
:1043F00099215F3FE4F3983ED4F3869577956795CE
:10440000B795F795E7959F5FC1F7FE2B880F911D34
:104410009695879597F9089597FB072E16F40094C3
:1044200007D077FD09D00E94262207FC05D03EF474
:10443000909581959F4F0895709561957F4F089550
:10444000EE0FFF1F0590F491E02D0994AA1BBB1BF2
:1044500051E107C0AA1FBB1FA617B70710F0A61B84
:10446000B70B881F991F5A95A9F780959095BC01A5
:10447000CD010895FB01DC0104C08D9101908019EC
:1044800021F441505040C8F7881B990B0895F999C1
:10449000FECF92BD81BDF89A992780B50895A8E115
:1044A000B0E042E050E00C947B22262FF999FECF39
:1044B00092BD81BDF89A019700B4021639F01FBA77
:1044C00020BD0FB6F894FA9AF99A0FBE0895039694
:1044D000272F0E9456220E945522252F0E945622E5
:1044E000242F0C9456220196272F0E9456220C94BA
:1044F0005522DC01CB01FC01F999FECF06C0F2BDCB
:10450000E1BDF89A319600B40D9241505040B8F791
:104510000895F894FFCF4B054B05A305A305F505BA
:104520001106780578051C06A806B706B706130716
:10453000780578051C07910791079A079A079C0749
:104540009A079A079A0791079107A1079A079A076E
:10455000A107241F4C1F35204C1F35207F1FA01F93
:064560003520F71F0320C7
:10456600403200FF03FC012808641E140A321EB6FE
:10457600190D1AEC19E819E41901E200E900EA003C
:10458600B500B600B700CD008301CC008A019201C8
:1045960094012102230224022502260227022A026E
:1045A600B300B4006F007000818283E200E900EA84
:1045B60000B500B600B700CD008301CC008A019299
:1045C6000194012102230224022502260227022A3F
:1045D60002B300B4006F00700081828367663635CF
:0E45E600349796943233919092F4F5959300A9
:00000001FF
